{
  "_format": "hh-sol-artifact-1",
  "contractName": "BulkSender",
  "sourceName": "contracts/BulkSender.sol",
  "abi": [
    {
      "inputs": [
        {
          "internalType": "address",
          "name": "_receiverAddress",
          "type": "address"
        }
      ],
      "stateMutability": "nonpayable",
      "type": "constructor"
    },
    {
      "inputs": [],
      "name": "AlreadyContract",
      "type": "error"
    },
    {
      "inputs": [],
      "name": "AlreadyNormalAddress",
      "type": "error"
    },
    {
      "inputs": [],
      "name": "AlreadyOwner",
      "type": "error"
    },
    {
      "inputs": [],
      "name": "AlreadyToken",
      "type": "error"
    },
    {
      "inputs": [],
      "name": "AlreadyVIP",
      "type": "error"
    },
    {
      "inputs": [
        {
          "internalType": "address",
          "name": "token",
          "type": "address"
        },
        {
          "internalType": "uint256",
          "name": "available",
          "type": "uint256"
        },
        {
          "internalType": "uint256",
          "name": "required",
          "type": "uint256"
        }
      ],
      "name": "InsufficientAllowance",
      "type": "error"
    },
    {
      "inputs": [
        {
          "internalType": "uint256",
          "name": "available",
          "type": "uint256"
        },
        {
          "internalType": "uint256",
          "name": "required",
          "type": "uint256"
        }
      ],
      "name": "InsufficientFunds",
      "type": "error"
    },
    {
      "inputs": [],
      "name": "InvalidInput",
      "type": "error"
    },
    {
      "inputs": [],
      "name": "NotAllowedAccount",
      "type": "error"
    },
    {
      "inputs": [],
      "name": "NotContract",
      "type": "error"
    },
    {
      "inputs": [
        {
          "internalType": "uint256",
          "name": "available",
          "type": "uint256"
        },
        {
          "internalType": "uint256",
          "name": "required",
          "type": "uint256"
        }
      ],
      "name": "NotEnoughEther",
      "type": "error"
    },
    {
      "inputs": [
        {
          "internalType": "uint256",
          "name": "available",
          "type": "uint256"
        },
        {
          "internalType": "uint256",
          "name": "required",
          "type": "uint256"
        }
      ],
      "name": "NotEnoughTokens",
      "type": "error"
    },
    {
      "inputs": [],
      "name": "NotNormalAddress",
      "type": "error"
    },
    {
      "inputs": [],
      "name": "NotOwner",
      "type": "error"
    },
    {
      "inputs": [],
      "name": "NotToken",
      "type": "error"
    },
    {
      "inputs": [],
      "name": "NotVIP",
      "type": "error"
    },
    {
      "inputs": [
        {
          "internalType": "address",
          "name": "owner",
          "type": "address"
        }
      ],
      "name": "OwnableInvalidOwner",
      "type": "error"
    },
    {
      "inputs": [
        {
          "internalType": "address",
          "name": "account",
          "type": "address"
        }
      ],
      "name": "OwnableUnauthorizedAccount",
      "type": "error"
    },
    {
      "inputs": [],
      "name": "Unauthorized",
      "type": "error"
    },
    {
      "inputs": [],
      "name": "ZeroAddress",
      "type": "error"
    },
    {
      "anonymous": false,
      "inputs": [
        {
          "indexed": false,
          "internalType": "address",
          "name": "token",
          "type": "address"
        },
        {
          "indexed": false,
          "internalType": "address",
          "name": "receiver",
          "type": "address"
        },
        {
          "indexed": false,
          "internalType": "uint256",
          "name": "balance",
          "type": "uint256"
        }
      ],
      "name": "LogGetToken",
      "type": "event"
    },
    {
      "anonymous": false,
      "inputs": [
        {
          "indexed": false,
          "internalType": "address",
          "name": "token",
          "type": "address"
        },
        {
          "indexed": false,
          "internalType": "uint256",
          "name": "total",
          "type": "uint256"
        }
      ],
      "name": "LogTokenBulkSent",
      "type": "event"
    },
    {
      "anonymous": false,
      "inputs": [
        {
          "indexed": false,
          "internalType": "address",
          "name": "sender",
          "type": "address"
        },
        {
          "indexed": false,
          "internalType": "uint256",
          "name": "value",
          "type": "uint256"
        }
      ],
      "name": "LogViPRegistered",
      "type": "event"
    },
    {
      "anonymous": false,
      "inputs": [
        {
          "indexed": true,
          "internalType": "address",
          "name": "previousOwner",
          "type": "address"
        },
        {
          "indexed": true,
          "internalType": "address",
          "name": "newOwner",
          "type": "address"
        }
      ],
      "name": "OwnershipTransferred",
      "type": "event"
    },
    {
      "inputs": [],
      "name": "VIPFee",
      "outputs": [
        {
          "internalType": "uint256",
          "name": "",
          "type": "uint256"
        }
      ],
      "stateMutability": "view",
      "type": "function"
    },
    {
      "inputs": [
        {
          "internalType": "address",
          "name": "_tokenAddress",
          "type": "address"
        },
        {
          "internalType": "address[]",
          "name": "_receivers",
          "type": "address[]"
        },
        {
          "internalType": "uint256[]",
          "name": "_tokenIds",
          "type": "uint256[]"
        },
        {
          "internalType": "uint256[]",
          "name": "_values",
          "type": "uint256[]"
        }
      ],
      "name": "bulkTransferERC1155",
      "outputs": [],
      "stateMutability": "payable",
      "type": "function"
    },
    {
      "inputs": [
        {
          "internalType": "address",
          "name": "_tokenAddress",
          "type": "address"
        },
        {
          "internalType": "address[]",
          "name": "_receivers",
          "type": "address[]"
        },
        {
          "internalType": "uint256[]",
          "name": "_values",
          "type": "uint256[]"
        }
      ],
      "name": "bulkTransferERC20",
      "outputs": [],
      "stateMutability": "payable",
      "type": "function"
    },
    {
      "inputs": [
        {
          "internalType": "address",
          "name": "_tokenAddress",
          "type": "address"
        },
        {
          "internalType": "address[]",
          "name": "_receivers",
          "type": "address[]"
        },
        {
          "internalType": "uint256",
          "name": "_value",
          "type": "uint256"
        }
      ],
      "name": "bulkTransferERC20",
      "outputs": [],
      "stateMutability": "payable",
      "type": "function"
    },
    {
      "inputs": [
        {
          "internalType": "address",
          "name": "_tokenAddress",
          "type": "address"
        },
        {
          "internalType": "address[]",
          "name": "_receivers",
          "type": "address[]"
        },
        {
          "internalType": "uint256[]",
          "name": "_tokenIds",
          "type": "uint256[]"
        }
      ],
      "name": "bulkTransferERC721",
      "outputs": [],
      "stateMutability": "payable",
      "type": "function"
    },
    {
      "inputs": [
        {
          "internalType": "address",
          "name": "_addr",
          "type": "address"
        }
      ],
      "name": "isVIP",
      "outputs": [
        {
          "internalType": "bool",
          "name": "",
          "type": "bool"
        }
      ],
      "stateMutability": "view",
      "type": "function"
    },
    {
      "inputs": [],
      "name": "owner",
      "outputs": [
        {
          "internalType": "address",
          "name": "",
          "type": "address"
        }
      ],
      "stateMutability": "view",
      "type": "function"
    },
    {
      "inputs": [],
      "name": "receiverAddress",
      "outputs": [
        {
          "internalType": "address",
          "name": "",
          "type": "address"
        }
      ],
      "stateMutability": "view",
      "type": "function"
    },
    {
      "inputs": [],
      "name": "registerVIP",
      "outputs": [],
      "stateMutability": "payable",
      "type": "function"
    },
    {
      "inputs": [
        {
          "internalType": "address[]",
          "name": "_vipList",
          "type": "address[]"
        }
      ],
      "name": "removeFromVIPList",
      "outputs": [],
      "stateMutability": "nonpayable",
      "type": "function"
    },
    {
      "inputs": [],
      "name": "renounceOwnership",
      "outputs": [],
      "stateMutability": "nonpayable",
      "type": "function"
    },
    {
      "inputs": [
        {
          "internalType": "address",
          "name": "_addr",
          "type": "address"
        }
      ],
      "name": "setReceiverAddress",
      "outputs": [],
      "stateMutability": "nonpayable",
      "type": "function"
    },
    {
      "inputs": [
        {
          "internalType": "uint256",
          "name": "_fee",
          "type": "uint256"
        }
      ],
      "name": "setTxFee",
      "outputs": [],
      "stateMutability": "nonpayable",
      "type": "function"
    },
    {
      "inputs": [
        {
          "internalType": "uint256",
          "name": "_fee",
          "type": "uint256"
        }
      ],
      "name": "setVIPFee",
      "outputs": [],
      "stateMutability": "nonpayable",
      "type": "function"
    },
    {
      "inputs": [
        {
          "internalType": "address",
          "name": "newOwner",
          "type": "address"
        }
      ],
      "name": "transferOwnership",
      "outputs": [],
      "stateMutability": "nonpayable",
      "type": "function"
    },
    {
      "inputs": [],
      "name": "txFee",
      "outputs": [
        {
          "internalType": "uint256",
          "name": "",
          "type": "uint256"
        }
      ],
      "stateMutability": "view",
      "type": "function"
    }
  ],
  "bytecode": "0x60806040523461002a576100196100146100c2565b610164565b60405161111d610286823961111d90f35b600080fd5b634e487b7160e01b600052604160045260246000fd5b90601f01601f191681019081106001600160401b0382111761006657604052565b61002f565b9061007f61007860405190565b9283610045565b565b6001600160a01b031690565b90565b6001600160a01b0381160361002a57565b9050519061007f82610090565b9060208282031261002a5761008d916100a1565b61008d6113a3803803806100d58161006b565b9283398101906100ae565b90600019905b9181191691161790565b61008d61008d61008d9290565b9061010d61008d610114926100f0565b82546100e0565b9055565b906001600160a01b03906100e6565b61008d90610081906001600160a01b031682565b61008d90610127565b61008d9061013b565b9061015d61008d61011492610144565b8254610118565b61007f906101713361019d565b610183662386f26fc1000060026100fd565b61019667016345785d8a000060036100fd565b600161014d565b61007f906101cf565b61008161008d61008d9290565b61008d906101a6565b6001600160a01b03909116815260200190565b60006101da816101b3565b6001600160a01b0381166001600160a01b038416146101fe57505061007f9061022e565b631e4fbdf760e01b8252819061021790600483016101bc565b0390fd5b61008d90610081565b61008d905461021b565b61025461024e61023e6000610224565b61024984600061014d565b610144565b91610144565b907f8be0079c531659141344cd1fd0a4f28419497f9722a3daafe3b4186f6b6457e061027f60405190565b600090a356fe6080604052600436101561001257600080fd5b60003560e01c806316fed3e2146101125780633d06242a1461010d5780633e46cd5314610108578063627d1e5014610103578063715018a6146100fe5780638164ad0e146100f95780638279c7db146100f45780638ce632e8146100ef5780638da5cb5b146100ea5780639c1f6133146100e5578063cf820461146100e0578063f05d16f7146100db578063f0a0a299146100d6578063f2fde38b146100d1578063f4201c3c146100cc5763f48d11af0361012257610510565b6104bd565b6104a5565b61048a565b610466565b61043b565b610406565b6103eb565b6103d4565b610377565b61034c565b610334565b61031a565b610287565b6101ca565b610175565b600091031261012257565b600080fd5b61013c916008021c5b6001600160a01b031690565b90565b9061013c9154610127565b61013c6000600161013f565b61015f90610130565b9052565b6020810192916101739190610156565b565b3461012257610185366004610117565b61019c61019061014a565b60405191829182610163565b0390f35b805b0361012257565b90503590610173826101a0565b906020828203126101225761013c916101a9565b34610122576101e26101dd3660046101b6565b61057d565b604051005b6101a281610130565b90503590610173826101e7565b909182601f830112156101225781359167ffffffffffffffff831161012257602001926020830284011161012257565b6060818303126101225761024182826101f0565b92602082013567ffffffffffffffff811161012257836102629184016101fd565b929093604082013567ffffffffffffffff81116101225761028392016101fd565b9091565b6101e261029536600461022d565b939290926108b7565b919091608081840312610122576102b583826101f0565b92602082013567ffffffffffffffff811161012257816102d69184016101fd565b929093604082013567ffffffffffffffff811161012257836102f99184016101fd565b929093606082013567ffffffffffffffff81116101225761028392016101fd565b6101e261032836600461029e565b95949094939193610ac9565b3461012257610344366004610117565b6101e2610b10565b6101e261035a36600461022d565b93929092610c5b565b906020828203126101225761013c916101f0565b34610122576101e261038a366004610363565b610cd6565b90606082820312610122576103a481836101f0565b92602083013567ffffffffffffffff811161012257826103cb60409461013c9387016101fd565b949095016101a9565b6101e26103e236600461038f565b92919091610e08565b34610122576103fb366004610117565b61019c610190610e14565b610411366004610117565b6101e2610ea3565b61013c916008021c81565b9061013c9154610419565b61013c60006002610424565b346101225761044b366004610117565b61019c61045661042f565b6040519182918290815260200190565b34610122576101e26104793660046101b6565b610f6e565b61013c60006003610424565b346101225761049a366004610117565b61019c61045661047e565b34610122576101e26104b8366004610363565b610fcd565b346101225761019c6104d86104d3366004610363565b610fdd565b60405191829182901515815260200190565b9060208282031261012257813567ffffffffffffffff81116101225761028392016101fd565b34610122576101e26105233660046104ea565b9061104e565b61017390610535611058565b610572565b90600019905b9181191691161790565b61013c61013c61013c9290565b9061056761013c61056e9261054a565b825461053a565b9055565b610173906003610557565b61017390610529565b61013c9081565b61013c9054610586565b1561059e57565b6332eaa48760e11b6000908152600490fd5b036000fd5b61013c90610130565b61013c90546105b5565b61013c90610130906001600160a01b031682565b61013c906105c8565b61013c906105dc565b6040513d6000823e3d90fd5b9392919061060733610fdd565b801561066f575b61061790610597565b61062761062333610fdd565b1590565b610635575b61017394610791565b600080808061064f61064a61064a60016105be565b6105e5565b81903415610665575b3491f161062c575b6105ee565b6108fc9150610658565b5061061761068061013c600261058d565b341015905061060e565b1561069157565b63b4fa3fb360e01b6000908152600490fd5b634e487b7160e01b600052603260045260246000fd5b91908110156106c9576020020190565b6106a3565b3561013c816101e7565b3561013c816101a0565b634e487b7160e01b600052604160045260246000fd5b90601f01601f1916810190811067ffffffffffffffff82111761071a57604052565b6106e2565b8015156101a2565b905051906101738261071f565b906020828203126101225761013c91610727565b604090610772610173949695939661076860608401986000850190610156565b6020830190610156565b0152565b91602061017392949361077260408201966000830190610156565b9390929180956107a383885b1461068a565b6107ac866105e5565b906000976107ba600061054a565b81811015610872578060208b8a8a6107fc6107f7868d6107f16107ec8f9b8f9c6107e66108269e6105e5565b996106b9565b6106ce565b946106b9565b6106d8565b9261080660405190565b80978195829461081a6323b872dd60e01b90565b84523360048501610748565b03925af19182156106605761084192610846575b5060010190565b6107ba565b6108669060203d811161086b575b61085e81836106f8565b810190610734565b61083a565b503d610854565b5095509650505050507fe4e3577249108daaa0a07e6d9aabc5fef8e89ec09da3f9dccfe7ef215e4efc12916108b26108a960405190565b92839283610776565b0390a1565b90610173949392916105fa565b9594939291906108d333610fdd565b8015610931575b6108e390610597565b6108ef61062333610fdd565b6108fd575b61017396610999565b600080808061091261064a61064a60016105be565b81903415610927575b3491f16108f4576105ee565b6108fc915061091b565b506108e361094261013c600261058d565b34101590506108da565b9193610980610987929461097961013c9761096f60a08801986000890190610156565b6020870190610156565b6040850152565b6060830152565b60808183039101526000815260200190565b949694959293909291809582871480610ac0575b6109b69061068a565b6109bf886105e5565b906000976109cd600061054a565b81811015610a8757808989610a098f94808c610a036107f7838f8f8f6107f7986107e6926109fd6107ec936105e5565b9c6106b9565b976106b9565b90803b1561012257610a3c948e8094610a2160405190565b97889586948593637921219560e11b8552336004860161094c565b03925af191821561066057610a5692610a5b575060010190565b6109cd565b610a7a908c8d3d10610a80575b610a7281836106f8565b810190610117565b3861083a565b503d610a68565b50975098505050505050507fe4e3577249108daaa0a07e6d9aabc5fef8e89ec09da3f9dccfe7ef215e4efc12916108b26108a960405190565b508684146109ad565b906101739695949392916108c4565b610ae0611058565b610173610afe565b61013061013c61013c9290565b61013c90610ae8565b610173610b0b6000610af5565b611095565b610173610ad8565b93929190610b2533610fdd565b8015610b83575b610b3590610597565b610b4161062333610fdd565b610b4f575b61017394610b9e565b6000808080610b6461064a61064a60016105be565b81903415610b79575b3491f1610b46576105ee565b6108fc9150610b6d565b50610b35610b9461013c600261058d565b3410159050610b2c565b9390949291610baa8190565b93610bb5838661079d565b610bbe866105e5565b90600095610bcc600061054a565b818110156108725780610bed6107ec8c9388610be7896105e5565b956106b9565b610bfb6107f7838a8c6106b9565b833b1561012257610c26938b9283610c1260405190565b80978195829461081a6342842e0e60e01b90565b03925af191821561066057610c4092610c45575060010190565b610bcc565b610a7a908a3d8c11610a8057610a7281836106f8565b9061017394939291610b18565b61017390610c74611058565b610ca6565b1561012257565b906001600160a01b0390610540565b90610c9f61013c61056e926105e5565b8254610c80565b61017390610ccf610cbf610cba6000610af5565b610130565b610cc883610130565b1415610c79565b6001610c8f565b61017390610c68565b929190610ceb33610fdd565b8015610d49575b610cfb90610597565b610d0761062333610fdd565b610d15575b61017393610d64565b6000808080610d2a61064a61064a60016105be565b81903415610d3f575b3491f1610d0c576105ee565b6108fc9150610d33565b50610cfb610d5a61013c600261058d565b3410159050610cf2565b9291610d6f846105e5565b600095610d7c600061054a565b83811015610dcb57610dac90602087610d94866105e5565b610da26107ec858a8c6106b9565b8c61080660405190565b03925af191821561066057610dc692610846575060010190565b610d7c565b509550507fe4e3577249108daaa0a07e6d9aabc5fef8e89ec09da3f9dccfe7ef215e4efc12939250610dfb915090565b906108b26108a960405190565b90610173939291610cdf565b61013c60006105be565b9081526040810192916101739160200152565b15610e3a575050565b62fae2d560e21b6000908152916105b0916004610e1e565b15610e5957565b63024b964d60e01b6000908152600490fd5b90610e75906105e5565b600052602052604060002090565b9060ff90610540565b90610e9c61013c61056e92151590565b8254610e83565b610ec8610eb361013c600361058d565b341015610ec0600361058d565b903490610e31565b610edc610ed761062333610fdd565b610e52565b6000808080610ef161064a61064a60016105be565b81903415610f4d575b3491f11561066057610f176001610f12336004610e6b565b610e8c565b7f6252330b8ac495908d7082dbcf6cd547affff5896884e8cb9c40d1b216f9f8e8610f4160405190565b806108b2343383610776565b6108fc9150610efa565b61017390610f63611058565b610173906002610557565b61017390610f57565b61017390610f83611058565b6000610f8e81610af5565b610f9781610130565b610fa084610130565b14610fb057505061017390611095565b631e4fbdf760e01b82528190610fc99060048301610163565b0390fd5b61017390610f77565b5460ff1690565b610ff461013c91610fec600090565b506004610e6b565b610fd6565b9061017391611006611058565b600092916110138461054a565b81811015611047576110429061103c86610f1260046110366107ec86898b6106b9565b90610e6b565b60010190565b611013565b5050509050565b9061017391610ff9565b611060610e14565b339061107461106e83610130565b91610130565b0361107c5750565b63118cdaa760e01b6000908152906105b0906004610163565b6110b66110b06110a560006105be565b61064a846000610c8f565b916105e5565b907f8be0079c531659141344cd1fd0a4f28419497f9722a3daafe3b4186f6b6457e06110e160405190565b600090a356fea2646970667358221220590d564ca315ee08c865ca87e9589e59426236a6877b5efe1c3c0c9b31f90fe064736f6c634300081a0033",
  "linkReferences": {},
  "deployedLinkReferences": {}
}