{
  "_format": "hh-sol-artifact-1",
  "contractName": "BulkSender",
  "sourceName": "contracts/BulkSender.sol",
  "abi": [
    {
      "inputs": [
        {
          "internalType": "address",
          "name": "_receiverAddress",
          "type": "address"
        }
      ],
      "stateMutability": "nonpayable",
      "type": "constructor"
    },
    {
      "inputs": [],
      "name": "AlreadyContract",
      "type": "error"
    },
    {
      "inputs": [],
      "name": "AlreadyNormalAddress",
      "type": "error"
    },
    {
      "inputs": [],
      "name": "AlreadyOwner",
      "type": "error"
    },
    {
      "inputs": [],
      "name": "AlreadyToken",
      "type": "error"
    },
    {
      "inputs": [],
      "name": "AlreadyVIP",
      "type": "error"
    },
    {
      "inputs": [
        {
          "internalType": "address",
          "name": "token",
          "type": "address"
        },
        {
          "internalType": "uint256",
          "name": "available",
          "type": "uint256"
        },
        {
          "internalType": "uint256",
          "name": "required",
          "type": "uint256"
        }
      ],
      "name": "InsufficientAllowance",
      "type": "error"
    },
    {
      "inputs": [
        {
          "internalType": "uint256",
          "name": "available",
          "type": "uint256"
        },
        {
          "internalType": "uint256",
          "name": "required",
          "type": "uint256"
        }
      ],
      "name": "InsufficientFunds",
      "type": "error"
    },
    {
      "inputs": [],
      "name": "InvalidInput",
      "type": "error"
    },
    {
      "inputs": [],
      "name": "NotAllowedAccount",
      "type": "error"
    },
    {
      "inputs": [],
      "name": "NotContract",
      "type": "error"
    },
    {
      "inputs": [
        {
          "internalType": "uint256",
          "name": "available",
          "type": "uint256"
        },
        {
          "internalType": "uint256",
          "name": "required",
          "type": "uint256"
        }
      ],
      "name": "NotEnoughEther",
      "type": "error"
    },
    {
      "inputs": [
        {
          "internalType": "uint256",
          "name": "available",
          "type": "uint256"
        },
        {
          "internalType": "uint256",
          "name": "required",
          "type": "uint256"
        }
      ],
      "name": "NotEnoughTokens",
      "type": "error"
    },
    {
      "inputs": [],
      "name": "NotNormalAddress",
      "type": "error"
    },
    {
      "inputs": [],
      "name": "NotOwner",
      "type": "error"
    },
    {
      "inputs": [],
      "name": "NotToken",
      "type": "error"
    },
    {
      "inputs": [],
      "name": "NotVIP",
      "type": "error"
    },
    {
      "inputs": [
        {
          "internalType": "address",
          "name": "owner",
          "type": "address"
        }
      ],
      "name": "OwnableInvalidOwner",
      "type": "error"
    },
    {
      "inputs": [
        {
          "internalType": "address",
          "name": "account",
          "type": "address"
        }
      ],
      "name": "OwnableUnauthorizedAccount",
      "type": "error"
    },
    {
      "inputs": [],
      "name": "Unauthorized",
      "type": "error"
    },
    {
      "inputs": [],
      "name": "ZeroAddress",
      "type": "error"
    },
    {
      "anonymous": false,
      "inputs": [
        {
          "indexed": false,
          "internalType": "address",
          "name": "token",
          "type": "address"
        },
        {
          "indexed": false,
          "internalType": "address",
          "name": "receiver",
          "type": "address"
        },
        {
          "indexed": false,
          "internalType": "uint256",
          "name": "balance",
          "type": "uint256"
        }
      ],
      "name": "LogGetToken",
      "type": "event"
    },
    {
      "anonymous": false,
      "inputs": [
        {
          "indexed": false,
          "internalType": "address",
          "name": "token",
          "type": "address"
        },
        {
          "indexed": false,
          "internalType": "uint256",
          "name": "total",
          "type": "uint256"
        }
      ],
      "name": "LogTokenBulkSent",
      "type": "event"
    },
    {
      "anonymous": false,
      "inputs": [
        {
          "indexed": false,
          "internalType": "address",
          "name": "sender",
          "type": "address"
        },
        {
          "indexed": false,
          "internalType": "uint256",
          "name": "value",
          "type": "uint256"
        }
      ],
      "name": "LogViPRegistered",
      "type": "event"
    },
    {
      "anonymous": false,
      "inputs": [
        {
          "indexed": true,
          "internalType": "address",
          "name": "previousOwner",
          "type": "address"
        },
        {
          "indexed": true,
          "internalType": "address",
          "name": "newOwner",
          "type": "address"
        }
      ],
      "name": "OwnershipTransferred",
      "type": "event"
    },
    {
      "inputs": [],
      "name": "VIPFee",
      "outputs": [
        {
          "internalType": "uint256",
          "name": "",
          "type": "uint256"
        }
      ],
      "stateMutability": "view",
      "type": "function"
    },
    {
      "inputs": [
        {
          "internalType": "address",
          "name": "_tokenAddress",
          "type": "address"
        },
        {
          "internalType": "address[]",
          "name": "_receivers",
          "type": "address[]"
        },
        {
          "internalType": "uint256[]",
          "name": "_tokenIds",
          "type": "uint256[]"
        },
        {
          "internalType": "uint256[]",
          "name": "_values",
          "type": "uint256[]"
        }
      ],
      "name": "bulkTransferERC1155",
      "outputs": [],
      "stateMutability": "payable",
      "type": "function"
    },
    {
      "inputs": [
        {
          "internalType": "address",
          "name": "_tokenAddress",
          "type": "address"
        },
        {
          "internalType": "address[]",
          "name": "_receivers",
          "type": "address[]"
        },
        {
          "internalType": "uint256[]",
          "name": "_values",
          "type": "uint256[]"
        }
      ],
      "name": "bulkTransferERC20",
      "outputs": [],
      "stateMutability": "payable",
      "type": "function"
    },
    {
      "inputs": [
        {
          "internalType": "address",
          "name": "_tokenAddress",
          "type": "address"
        },
        {
          "internalType": "address[]",
          "name": "_receivers",
          "type": "address[]"
        },
        {
          "internalType": "uint256",
          "name": "_value",
          "type": "uint256"
        }
      ],
      "name": "bulkTransferERC20",
      "outputs": [],
      "stateMutability": "payable",
      "type": "function"
    },
    {
      "inputs": [
        {
          "internalType": "address",
          "name": "_tokenAddress",
          "type": "address"
        },
        {
          "internalType": "address[]",
          "name": "_receivers",
          "type": "address[]"
        },
        {
          "internalType": "uint256[]",
          "name": "_tokenIds",
          "type": "uint256[]"
        }
      ],
      "name": "bulkTransferERC721",
      "outputs": [],
      "stateMutability": "payable",
      "type": "function"
    },
    {
      "inputs": [
        {
          "internalType": "address",
          "name": "_addr",
          "type": "address"
        }
      ],
      "name": "isVIP",
      "outputs": [
        {
          "internalType": "bool",
          "name": "",
          "type": "bool"
        }
      ],
      "stateMutability": "view",
      "type": "function"
    },
    {
      "inputs": [],
      "name": "owner",
      "outputs": [
        {
          "internalType": "address",
          "name": "",
          "type": "address"
        }
      ],
      "stateMutability": "view",
      "type": "function"
    },
    {
      "inputs": [],
      "name": "receiverAddress",
      "outputs": [
        {
          "internalType": "address",
          "name": "",
          "type": "address"
        }
      ],
      "stateMutability": "view",
      "type": "function"
    },
    {
      "inputs": [],
      "name": "registerVIP",
      "outputs": [],
      "stateMutability": "payable",
      "type": "function"
    },
    {
      "inputs": [
        {
          "internalType": "address[]",
          "name": "_vipList",
          "type": "address[]"
        }
      ],
      "name": "removeFromVIPList",
      "outputs": [],
      "stateMutability": "nonpayable",
      "type": "function"
    },
    {
      "inputs": [],
      "name": "renounceOwnership",
      "outputs": [],
      "stateMutability": "nonpayable",
      "type": "function"
    },
    {
      "inputs": [
        {
          "internalType": "address",
          "name": "_addr",
          "type": "address"
        }
      ],
      "name": "setReceiverAddress",
      "outputs": [],
      "stateMutability": "nonpayable",
      "type": "function"
    },
    {
      "inputs": [
        {
          "internalType": "uint256",
          "name": "_fee",
          "type": "uint256"
        }
      ],
      "name": "setTxFee",
      "outputs": [],
      "stateMutability": "nonpayable",
      "type": "function"
    },
    {
      "inputs": [
        {
          "internalType": "uint256",
          "name": "_fee",
          "type": "uint256"
        }
      ],
      "name": "setVIPFee",
      "outputs": [],
      "stateMutability": "nonpayable",
      "type": "function"
    },
    {
      "inputs": [
        {
          "internalType": "address",
          "name": "newOwner",
          "type": "address"
        }
      ],
      "name": "transferOwnership",
      "outputs": [],
      "stateMutability": "nonpayable",
      "type": "function"
    },
    {
      "inputs": [],
      "name": "txFee",
      "outputs": [
        {
          "internalType": "uint256",
          "name": "",
          "type": "uint256"
        }
      ],
      "stateMutability": "view",
      "type": "function"
    },
    {
      "inputs": [
        {
          "internalType": "address",
          "name": "",
          "type": "address"
        }
      ],
      "name": "vipList",
      "outputs": [
        {
          "internalType": "bool",
          "name": "",
          "type": "bool"
        }
      ],
      "stateMutability": "view",
      "type": "function"
    }
  ],
  "bytecode": "0x60806040523461002a576100196100146100c2565b610164565b604051611183610286823961118390f35b600080fd5b634e487b7160e01b600052604160045260246000fd5b90601f01601f191681019081106001600160401b0382111761006657604052565b61002f565b9061007f61007860405190565b9283610045565b565b6001600160a01b031690565b90565b6001600160a01b0381160361002a57565b9050519061007f82610090565b9060208282031261002a5761008d916100a1565b61008d611409803803806100d58161006b565b9283398101906100ae565b90600019905b9181191691161790565b61008d61008d61008d9290565b9061010d61008d610114926100f0565b82546100e0565b9055565b906001600160a01b03906100e6565b61008d90610081906001600160a01b031682565b61008d90610127565b61008d9061013b565b9061015d61008d61011492610144565b8254610118565b61007f906101713361019d565b610183662386f26fc1000060026100fd565b61019667016345785d8a000060036100fd565b600161014d565b61007f906101cf565b61008161008d61008d9290565b61008d906101a6565b6001600160a01b03909116815260200190565b60006101da816101b3565b6001600160a01b0381166001600160a01b038416146101fe57505061007f9061022e565b631e4fbdf760e01b8252819061021790600483016101bc565b0390fd5b61008d90610081565b61008d905461021b565b61025461024e61023e6000610224565b61024984600061014d565b610144565b91610144565b907f8be0079c531659141344cd1fd0a4f28419497f9722a3daafe3b4186f6b6457e061027f60405190565b600090a356fe6080604052600436101561001257600080fd5b60003560e01c806316fed3e2146101225780633d06242a1461011d5780633e46cd5314610118578063627d1e5014610113578063715018a61461010e5780638164ad0e146101095780638279c7db146101045780638ce632e8146100ff5780638da5cb5b146100fa5780639c1f6133146100f5578063aa168b47146100f0578063cf820461146100eb578063f05d16f7146100e6578063f0a0a299146100e1578063f2fde38b146100dc578063f4201c3c146100d75763f48d11af03610132576105a8565b610567565b61054f565b610534565b610510565b6104e5565b610496565b610416565b6103fb565b6103e4565b610387565b61035c565b610344565b61032a565b610297565b6101da565b610185565b600091031261013257565b600080fd5b61014c916008021c5b6001600160a01b031690565b90565b9061014c9154610137565b61014c6000600161014f565b61016f90610140565b9052565b6020810192916101839190610166565b565b3461013257610195366004610127565b6101ac6101a061015a565b60405191829182610173565b0390f35b805b0361013257565b90503590610183826101b0565b906020828203126101325761014c916101b9565b34610132576101f26101ed3660046101c6565b610615565b604051005b6101b281610140565b90503590610183826101f7565b909182601f830112156101325781359167ffffffffffffffff831161013257602001926020830284011161013257565b606081830312610132576102518282610200565b92602082013567ffffffffffffffff8111610132578361027291840161020d565b929093604082013567ffffffffffffffff811161013257610293920161020d565b9091565b6101f26102a536600461023d565b93929092610929565b919091608081840312610132576102c58382610200565b92602082013567ffffffffffffffff811161013257816102e691840161020d565b929093604082013567ffffffffffffffff8111610132578361030991840161020d565b929093606082013567ffffffffffffffff811161013257610293920161020d565b6101f26103383660046102ae565b95949094939193610b3b565b3461013257610354366004610127565b6101f2610b82565b6101f261036a36600461023d565b93929092610ccd565b906020828203126101325761014c91610200565b34610132576101f261039a366004610373565b610d48565b90606082820312610132576103b48183610200565b92602083013567ffffffffffffffff811161013257826103db60409461014c93870161020d565b949095016101b9565b6101f26103f236600461039f565b92919091610e7a565b346101325761040b366004610127565b6101ac6101a0610e86565b610421366004610127565b6101f2610efd565b61014c90610140906001600160a01b031682565b61014c90610429565b61014c9061043d565b9061045990610446565b600052602052604060002090565b61014c916008021c5b60ff1690565b9061014c9154610467565b600061049161014c92600461044f565b610476565b34610132576101ac6104b16104ac366004610373565b610481565b60405191829182901515815260200190565b61014c916008021c81565b9061014c91546104c3565b61014c600060026104ce565b34610132576104f5366004610127565b6101ac6105006104d9565b6040519182918290815260200190565b34610132576101f26105233660046101c6565b610fc8565b61014c600060036104ce565b3461013257610544366004610127565b6101ac610500610528565b34610132576101f2610562366004610373565b611027565b34610132576101ac6104b161057d366004610373565b611043565b9060208282031261013257813567ffffffffffffffff811161013257610293920161020d565b34610132576101f26105bb366004610582565b906110b4565b610183906105cd6110be565b61060a565b90600019905b9181191691161790565b61014c61014c61014c9290565b906105ff61014c610606926105e2565b82546105d2565b9055565b6101839060036105ef565b610183906105c1565b61014c9081565b61014c905461061e565b1561063657565b6332eaa48760e11b6000908152600490fd5b036000fd5b61014c90610140565b61014c905461064d565b6040513d6000823e3d90fd5b9392919061067933611043565b80156106e1575b6106899061062f565b61069961069533611043565b1590565b6106a7575b61018394610803565b60008080806106c16106bc6106bc6001610656565b610446565b819034156106d7575b3491f161069e575b610660565b6108fc91506106ca565b506106896106f261014c6002610625565b3410159050610680565b1561070357565b63b4fa3fb360e01b6000908152600490fd5b634e487b7160e01b600052603260045260246000fd5b919081101561073b576020020190565b610715565b3561014c816101f7565b3561014c816101b0565b634e487b7160e01b600052604160045260246000fd5b90601f01601f1916810190811067ffffffffffffffff82111761078c57604052565b610754565b8015156101b2565b9050519061018382610791565b906020828203126101325761014c91610799565b6040906107e461018394969593966107da60608401986000850190610166565b6020830190610166565b0152565b9160206101839294936107e460408201966000830190610166565b93909291809561081583885b146106fc565b61081e86610446565b9060009761082c60006105e2565b818110156108e4578060208b8a8a61086e610869868d61086361085e8f9b8f9c6108586108989e610446565b9961072b565b610740565b9461072b565b61074a565b9261087860405190565b80978195829461088c6323b872dd60e01b90565b845233600485016107ba565b03925af19182156106d2576108b3926108b8575b5060010190565b61082c565b6108d89060203d81116108dd575b6108d0818361076a565b8101906107a6565b6108ac565b503d6108c6565b5095509650505050507fe4e3577249108daaa0a07e6d9aabc5fef8e89ec09da3f9dccfe7ef215e4efc129161092461091b60405190565b928392836107e8565b0390a1565b906101839493929161066c565b95949392919061094533611043565b80156109a3575b6109559061062f565b61096161069533611043565b61096f575b61018396610a0b565b60008080806109846106bc6106bc6001610656565b81903415610999575b3491f161096657610660565b6108fc915061098d565b506109556109b461014c6002610625565b341015905061094c565b91936109f26109f992946109eb61014c976109e160a08801986000890190610166565b6020870190610166565b6040850152565b6060830152565b60808183039101526000815260200190565b949694959293909291809582871480610b32575b610a28906106fc565b610a3188610446565b90600097610a3f60006105e2565b81811015610af957808989610a7b8f94808c610a75610869838f8f8f6108699861085892610a6f61085e93610446565b9c61072b565b9761072b565b90803b1561013257610aae948e8094610a9360405190565b97889586948593637921219560e11b855233600486016109be565b03925af19182156106d257610ac892610acd575060010190565b610a3f565b610aec908c8d3d10610af2575b610ae4818361076a565b810190610127565b386108ac565b503d610ada565b50975098505050505050507fe4e3577249108daaa0a07e6d9aabc5fef8e89ec09da3f9dccfe7ef215e4efc129161092461091b60405190565b50868414610a1f565b90610183969594939291610936565b610b526110be565b610183610b70565b61014061014c61014c9290565b61014c90610b5a565b610183610b7d6000610b67565b6110fb565b610183610b4a565b93929190610b9733611043565b8015610bf5575b610ba79061062f565b610bb361069533611043565b610bc1575b61018394610c10565b6000808080610bd66106bc6106bc6001610656565b81903415610beb575b3491f1610bb857610660565b6108fc9150610bdf565b50610ba7610c0661014c6002610625565b3410159050610b9e565b9390949291610c1c8190565b93610c27838661080f565b610c3086610446565b90600095610c3e60006105e2565b818110156108e45780610c5f61085e8c9388610c5989610446565b9561072b565b610c6d610869838a8c61072b565b833b1561013257610c98938b9283610c8460405190565b80978195829461088c6342842e0e60e01b90565b03925af19182156106d257610cb292610cb7575060010190565b610c3e565b610aec908a3d8c11610af257610ae4818361076a565b9061018394939291610b8a565b61018390610ce66110be565b610d18565b1561013257565b906001600160a01b03906105d8565b90610d1161014c61060692610446565b8254610cf2565b61018390610d41610d31610d2c6000610b67565b610140565b610d3a83610140565b1415610ceb565b6001610d01565b61018390610cda565b929190610d5d33611043565b8015610dbb575b610d6d9061062f565b610d7961069533611043565b610d87575b61018393610dd6565b6000808080610d9c6106bc6106bc6001610656565b81903415610db1575b3491f1610d7e57610660565b6108fc9150610da5565b50610d6d610dcc61014c6002610625565b3410159050610d64565b9291610de184610446565b600095610dee60006105e2565b83811015610e3d57610e1e90602087610e0686610446565b610e1461085e858a8c61072b565b8c61087860405190565b03925af19182156106d257610e38926108b8575060010190565b610dee565b509550507fe4e3577249108daaa0a07e6d9aabc5fef8e89ec09da3f9dccfe7ef215e4efc12939250610e6d915090565b9061092461091b60405190565b90610183939291610d51565b61014c6000610656565b9081526040810192916101839160200152565b15610eac575050565b62fae2d560e21b600090815291610648916004610e90565b15610ecb57565b63024b964d60e01b6000908152600490fd5b9060ff906105d8565b90610ef661014c61060692151590565b8254610edd565b610f22610f0d61014c6003610625565b341015610f1a6003610625565b903490610ea3565b610f36610f3161069533611043565b610ec4565b6000808080610f4b6106bc6106bc6001610656565b81903415610fa7575b3491f1156106d257610f716001610f6c33600461044f565b610ee6565b7f6252330b8ac495908d7082dbcf6cd547affff5896884e8cb9c40d1b216f9f8e8610f9b60405190565b806109243433836107e8565b6108fc9150610f54565b61018390610fbd6110be565b6101839060026105ef565b61018390610fb1565b61018390610fdd6110be565b6000610fe881610b67565b610ff181610140565b610ffa84610140565b1461100a575050610183906110fb565b631e4fbdf760e01b825281906110239060048301610173565b0390fd5b61018390610fd1565b61014c90610470565b61014c9054611030565b61105a61014c91611052600090565b50600461044f565b611039565b906101839161106c6110be565b60009291611079846105e2565b818110156110ad576110a8906110a286610f6c600461109c61085e86898b61072b565b9061044f565b60010190565b611079565b5050509050565b906101839161105f565b6110c6610e86565b33906110da6110d483610140565b91610140565b036110e25750565b63118cdaa760e01b600090815290610648906004610173565b61111c61111661110b6000610656565b6106bc846000610d01565b91610446565b907f8be0079c531659141344cd1fd0a4f28419497f9722a3daafe3b4186f6b6457e061114760405190565b600090a356fea2646970667358221220c1c6b0b14a4294500673e462b77a20fa048f6a33dacf87b9f556d8a3755969be64736f6c634300081a0033",
  "linkReferences": {},
  "deployedLinkReferences": {}
}