{
  "contracts/testContracts/ERC721.sol": {
    "ERC721Tester": {
      "abi": [
        {
          "inputs": [],
          "stateMutability": "nonpayable",
          "type": "constructor"
        },
        {
          "inputs": [
            {
              "internalType": "address",
              "name": "sender",
              "type": "address"
            },
            {
              "internalType": "uint256",
              "name": "tokenId",
              "type": "uint256"
            },
            {
              "internalType": "address",
              "name": "owner",
              "type": "address"
            }
          ],
          "name": "ERC721IncorrectOwner",
          "type": "error"
        },
        {
          "inputs": [
            {
              "internalType": "address",
              "name": "operator",
              "type": "address"
            },
            {
              "internalType": "uint256",
              "name": "tokenId",
              "type": "uint256"
            }
          ],
          "name": "ERC721InsufficientApproval",
          "type": "error"
        },
        {
          "inputs": [
            {
              "internalType": "address",
              "name": "approver",
              "type": "address"
            }
          ],
          "name": "ERC721InvalidApprover",
          "type": "error"
        },
        {
          "inputs": [
            {
              "internalType": "address",
              "name": "operator",
              "type": "address"
            }
          ],
          "name": "ERC721InvalidOperator",
          "type": "error"
        },
        {
          "inputs": [
            {
              "internalType": "address",
              "name": "owner",
              "type": "address"
            }
          ],
          "name": "ERC721InvalidOwner",
          "type": "error"
        },
        {
          "inputs": [
            {
              "internalType": "address",
              "name": "receiver",
              "type": "address"
            }
          ],
          "name": "ERC721InvalidReceiver",
          "type": "error"
        },
        {
          "inputs": [
            {
              "internalType": "address",
              "name": "sender",
              "type": "address"
            }
          ],
          "name": "ERC721InvalidSender",
          "type": "error"
        },
        {
          "inputs": [
            {
              "internalType": "uint256",
              "name": "tokenId",
              "type": "uint256"
            }
          ],
          "name": "ERC721NonexistentToken",
          "type": "error"
        },
        {
          "inputs": [
            {
              "internalType": "address",
              "name": "owner",
              "type": "address"
            }
          ],
          "name": "OwnableInvalidOwner",
          "type": "error"
        },
        {
          "inputs": [
            {
              "internalType": "address",
              "name": "account",
              "type": "address"
            }
          ],
          "name": "OwnableUnauthorizedAccount",
          "type": "error"
        },
        {
          "anonymous": false,
          "inputs": [
            {
              "indexed": true,
              "internalType": "address",
              "name": "owner",
              "type": "address"
            },
            {
              "indexed": true,
              "internalType": "address",
              "name": "approved",
              "type": "address"
            },
            {
              "indexed": true,
              "internalType": "uint256",
              "name": "tokenId",
              "type": "uint256"
            }
          ],
          "name": "Approval",
          "type": "event"
        },
        {
          "anonymous": false,
          "inputs": [
            {
              "indexed": true,
              "internalType": "address",
              "name": "owner",
              "type": "address"
            },
            {
              "indexed": true,
              "internalType": "address",
              "name": "operator",
              "type": "address"
            },
            {
              "indexed": false,
              "internalType": "bool",
              "name": "approved",
              "type": "bool"
            }
          ],
          "name": "ApprovalForAll",
          "type": "event"
        },
        {
          "anonymous": false,
          "inputs": [
            {
              "indexed": true,
              "internalType": "address",
              "name": "previousOwner",
              "type": "address"
            },
            {
              "indexed": true,
              "internalType": "address",
              "name": "newOwner",
              "type": "address"
            }
          ],
          "name": "OwnershipTransferred",
          "type": "event"
        },
        {
          "anonymous": false,
          "inputs": [
            {
              "indexed": true,
              "internalType": "address",
              "name": "from",
              "type": "address"
            },
            {
              "indexed": true,
              "internalType": "address",
              "name": "to",
              "type": "address"
            },
            {
              "indexed": true,
              "internalType": "uint256",
              "name": "tokenId",
              "type": "uint256"
            }
          ],
          "name": "Transfer",
          "type": "event"
        },
        {
          "inputs": [
            {
              "internalType": "address",
              "name": "to",
              "type": "address"
            },
            {
              "internalType": "uint256",
              "name": "tokenId",
              "type": "uint256"
            }
          ],
          "name": "approve",
          "outputs": [],
          "stateMutability": "nonpayable",
          "type": "function"
        },
        {
          "inputs": [
            {
              "internalType": "address",
              "name": "owner",
              "type": "address"
            }
          ],
          "name": "balanceOf",
          "outputs": [
            {
              "internalType": "uint256",
              "name": "",
              "type": "uint256"
            }
          ],
          "stateMutability": "view",
          "type": "function"
        },
        {
          "inputs": [
            {
              "internalType": "uint256",
              "name": "tokenId",
              "type": "uint256"
            }
          ],
          "name": "getApproved",
          "outputs": [
            {
              "internalType": "address",
              "name": "",
              "type": "address"
            }
          ],
          "stateMutability": "view",
          "type": "function"
        },
        {
          "inputs": [
            {
              "internalType": "address",
              "name": "owner",
              "type": "address"
            },
            {
              "internalType": "address",
              "name": "operator",
              "type": "address"
            }
          ],
          "name": "isApprovedForAll",
          "outputs": [
            {
              "internalType": "bool",
              "name": "",
              "type": "bool"
            }
          ],
          "stateMutability": "view",
          "type": "function"
        },
        {
          "inputs": [
            {
              "internalType": "address",
              "name": "account",
              "type": "address"
            },
            {
              "internalType": "uint256",
              "name": "tokenId",
              "type": "uint256"
            }
          ],
          "name": "mint",
          "outputs": [],
          "stateMutability": "nonpayable",
          "type": "function"
        },
        {
          "inputs": [],
          "name": "name",
          "outputs": [
            {
              "internalType": "string",
              "name": "",
              "type": "string"
            }
          ],
          "stateMutability": "view",
          "type": "function"
        },
        {
          "inputs": [],
          "name": "owner",
          "outputs": [
            {
              "internalType": "address",
              "name": "",
              "type": "address"
            }
          ],
          "stateMutability": "view",
          "type": "function"
        },
        {
          "inputs": [
            {
              "internalType": "uint256",
              "name": "tokenId",
              "type": "uint256"
            }
          ],
          "name": "ownerOf",
          "outputs": [
            {
              "internalType": "address",
              "name": "",
              "type": "address"
            }
          ],
          "stateMutability": "view",
          "type": "function"
        },
        {
          "inputs": [],
          "name": "renounceOwnership",
          "outputs": [],
          "stateMutability": "nonpayable",
          "type": "function"
        },
        {
          "inputs": [
            {
              "internalType": "address",
              "name": "from",
              "type": "address"
            },
            {
              "internalType": "address",
              "name": "to",
              "type": "address"
            },
            {
              "internalType": "uint256",
              "name": "tokenId",
              "type": "uint256"
            }
          ],
          "name": "safeTransferFrom",
          "outputs": [],
          "stateMutability": "nonpayable",
          "type": "function"
        },
        {
          "inputs": [
            {
              "internalType": "address",
              "name": "from",
              "type": "address"
            },
            {
              "internalType": "address",
              "name": "to",
              "type": "address"
            },
            {
              "internalType": "uint256",
              "name": "tokenId",
              "type": "uint256"
            },
            {
              "internalType": "bytes",
              "name": "data",
              "type": "bytes"
            }
          ],
          "name": "safeTransferFrom",
          "outputs": [],
          "stateMutability": "nonpayable",
          "type": "function"
        },
        {
          "inputs": [
            {
              "internalType": "address",
              "name": "operator",
              "type": "address"
            },
            {
              "internalType": "bool",
              "name": "approved",
              "type": "bool"
            }
          ],
          "name": "setApprovalForAll",
          "outputs": [],
          "stateMutability": "nonpayable",
          "type": "function"
        },
        {
          "inputs": [
            {
              "internalType": "bytes4",
              "name": "interfaceId",
              "type": "bytes4"
            }
          ],
          "name": "supportsInterface",
          "outputs": [
            {
              "internalType": "bool",
              "name": "",
              "type": "bool"
            }
          ],
          "stateMutability": "view",
          "type": "function"
        },
        {
          "inputs": [],
          "name": "symbol",
          "outputs": [
            {
              "internalType": "string",
              "name": "",
              "type": "string"
            }
          ],
          "stateMutability": "view",
          "type": "function"
        },
        {
          "inputs": [
            {
              "internalType": "uint256",
              "name": "tokenId",
              "type": "uint256"
            }
          ],
          "name": "tokenURI",
          "outputs": [
            {
              "internalType": "string",
              "name": "",
              "type": "string"
            }
          ],
          "stateMutability": "view",
          "type": "function"
        },
        {
          "inputs": [
            {
              "internalType": "address",
              "name": "from",
              "type": "address"
            },
            {
              "internalType": "address",
              "name": "to",
              "type": "address"
            },
            {
              "internalType": "uint256",
              "name": "tokenId",
              "type": "uint256"
            }
          ],
          "name": "transferFrom",
          "outputs": [],
          "stateMutability": "nonpayable",
          "type": "function"
        },
        {
          "inputs": [
            {
              "internalType": "address",
              "name": "newOwner",
              "type": "address"
            }
          ],
          "name": "transferOwnership",
          "outputs": [],
          "stateMutability": "nonpayable",
          "type": "function"
        }
      ],
      "evm": {
        "bytecode": {
          "linkReferences": {},
          "object": "60806040523461002257610011610101565b6040516115ac61093c82396115ac90f35b600080fd5b634e487b7160e01b600052604160045260246000fd5b90601f01601f191681019081106001600160401b0382111761005e57604052565b610027565b9061007761007060405190565b928361003d565b565b6001600160401b03811161005e57602090601f01601f19160190565b906100a76100a283610079565b610063565b918252565b6100b66006610095565b652a32b9ba32b960d11b602082015290565b6100d06100ac565b90565b6100dd6003610095565b621514d560ea1b602082015290565b6100d06100d3565b6100d06100d06100d09290565b61011b61010c6100c8565b6101146100ec565b903361016d565b61007761012860016100f4565b336103a2565b61013b6100d06100d09290565b6001600160a01b031690565b6100d09061012e565b6101599061013b565b9052565b6020810192916100779190610150565b916101779161038c565b600061018281610147565b61018b8161013b565b6101948461013b565b146101a45750506100779061047d565b631e4fbdf760e01b825281906101bd906004830161015d565b0390fd5b634e487b7160e01b600052602260045260246000fd5b90600160028304921680156101f7575b60208310146101f257565b6101c1565b91607f16916101e7565b9160001960089290920291821b911b5b9181191691161790565b919061022c6100d0610234936100f4565b908354610201565b9055565b6100779160009161021b565b81811061024f575050565b8061025d6000600193610238565b01610244565b9190601f811161027257505050565b61028461007793600052602060002090565b906020601f8401819004830193106102a6575b6020601f909101040190610244565b9091508190610297565b906102b9815190565b906001600160401b03821161005e576102dc826102d685546101d7565b85610263565b602090601f83116001146103175761023492916000918361030c575b5050600019600883021c1916906002021790565b0151905038806102f8565b601f1983169161032c85600052602060002090565b9260005b81811061036a57509160029391856001969410610351575b50505002019055565b01516000196008601f8516021c19169055388080610348565b91936020600181928787015181550195019201610330565b90610077916102b0565b9061039b610077926000610382565b6001610382565b6000916103ae83610147565b916103b88361013b565b6103c18261013b565b14610405576103d1918391610528565b6103e36103dd8361013b565b9161013b565b036103ec575050565b6339e3563760e11b825281906101bd906004830161015d565b633250574960e11b845283806101bd856004830161015d565b6100d09061013b565b6100d0905461041e565b906001600160a01b0390610211565b6100d09061013b906001600160a01b031682565b6100d090610440565b6100d090610454565b906104766100d06102349261045d565b8254610431565b6104a361049d61048d6006610427565b610498846006610466565b61045d565b9161045d565b907f8be0079c531659141344cd1fd0a4f28419497f9722a3daafe3b4186f6b6457e06104ce60405190565b600090a3565b906104de9061045d565b600052602052604060002090565b6100d09081565b6100d090546104ec565b9060001990610211565b906105176100d0610234926100f4565b82546104fd565b906104de906100f4565b9061057b6105358261066b565b93600061054181610147565b918461054c8461013b565b6105558361013b565b0361065a575b50506105668261013b565b61056f8761013b565b0361061f575b5061013b565b6105848361013b565b036105eb575b61059e8261059983600261051e565b610466565b6105b96105b36105ad8561045d565b9361045d565b916100f4565b917fddf252ad1be2c89b69c2b068fc378daa952ba7f163c4a11628f55a4df523b3ef6105e460405190565b600090a490565b61061a6105f860016100f4565b6106146106068560036104d4565b91610610836104f3565b0190565b90610507565b61058a565b61062b9082858161070f565b61065461063860016100f4565b6106146106468860036104d4565b91610650836104f3565b0390565b38610575565b61066491886106a6565b388461055b565b6106826100d09161067a600090565b50600261051e565b610427565b9160206100779294936106a260408201966000830190610150565b0152565b906106b96106b5848385610832565b1590565b6106c257505050565b60009283926106db6103dd6106d686610147565b61013b565b036106f857637e27328960e01b8352600483015250602481010390fd5b63177e802f60e01b83526101bd9160048401610687565b92919091808115610814575b610731575b50509061059961007792600461051e565b61073a836108bd565b9160009061074a6106d683610147565b6107538261013b565b1415806107fa575b806107e7575b6107ce5750509161059991610077949361077e575b509192610720565b6107879061045d565b6107908461045d565b610799836100f4565b917f8c5be1e5ebec7d5bd14f71427d1e84f3dd0314c0f7b2291e5b200ac8c7c3b9256107c460405190565b600090a438610776565b63a9fbf51f60e01b825281906101bd906004830161015d565b506107f56106b582866108fd565b610761565b506108048161013b565b61080d8561013b565b141561075b565b506108226106d66000610147565b61082b8361013b565b141561071b565b906108406106d66000610147565b6108498261013b565b14159283610858575b50505090565b909192506108658261013b565b61086e8461013b565b149283156108a9575b508215610889575b5050388080610852565b6108a191925061089b6103dd91610924565b9261013b565b14388061087f565b6108b691935082906108fd565b9138610877565b6108c68161066b565b906000906108d66106d683610147565b6108df8461013b565b146108e957505090565b637e27328960e01b82526004820152602490fd5b6100d09161091861091d92610910600090565b5060056104d4565b6104d4565b5460ff1690565b6106826100d091610933600090565b50600461051e56fe6080604052600436101561001257600080fd5b60003560e01c806301ffc9a71461012257806306fdde031461011d578063081812fc14610118578063095ea7b31461011357806323b872dd1461010e57806340c10f191461010957806342842e0e146101045780636352211e146100ff57806370a08231146100fa578063715018a6146100f55780638da5cb5b146100f057806395d89b41146100eb578063a22cb465146100e6578063b88d4fde146100e1578063c87b56dd146100dc578063e985e9c5146100d75763f2fde38b0361013a576105f1565b6105d5565b610597565b61057b565b61044e565b6103fb565b6103e0565b6103c8565b61039d565b61036e565b610355565b61033c565b610323565b6102dc565b610268565b61020e565b610165565b6001600160e01b031981165b0361013a57565b600080fd5b9050359061014c82610127565b565b9060208282031261013a576101629161013f565b90565b3461013a5761019361018061017b36600461014e565b610609565b6040515b91829182901515815260200190565b0390f35b600091031261013a57565b60005b8381106101b55750506000910152565b81810151838201526020016101a5565b6101e66101ef6020936101f9936101da815190565b80835293849260200190565b958691016101a2565b601f01601f191690565b0190565b6020808252610162929101906101c5565b3461013a5761021e366004610197565b61019361022961074c565b604051918291826101fd565b80610133565b9050359061014c82610235565b9060208282031261013a576101629161023b565b6001600160a01b031690565b3461013a5761019361028361027e366004610248565b610756565b604051918291826001600160a01b03909116815260200190565b6001600160a01b038116610133565b9050359061014c8261029d565b919060408382031261013a576101629060206102d582866102ac565b940161023b565b3461013a576102f56102ef3660046102b9565b90610769565b604051005b909160608284031261013a5761016261031384846102ac565b9360406102d582602087016102ac565b3461013a576102f56103363660046102fa565b916107c0565b3461013a576102f561034f3660046102b9565b90610867565b3461013a576102f56103683660046102fa565b91610895565b3461013a57610193610283610384366004610248565b6108a9565b9060208282031261013a57610162916102ac565b3461013a576101936103b86103b3366004610389565b610901565b6040519182918290815260200190565b3461013a576103d8366004610197565b6102f5610974565b3461013a576103f0366004610197565b61019361028361098f565b3461013a5761040b366004610197565b610193610229610999565b801515610133565b9050359061014c82610416565b919060408382031261013a5761016290602061044782866102ac565b940161041e565b3461013a576102f561046136600461042b565b906109a3565b634e487b7160e01b600052604160045260246000fd5b90601f01601f1916810190811067ffffffffffffffff82111761049f57604052565b610467565b9061014c6104b160405190565b928361047d565b67ffffffffffffffff811161049f57602090601f01601f19160190565b90826000939282370152565b909291926104f66104f1826104b8565b6104a4565b938185528183011161013a5761014c9160208501906104d5565b9080601f8301121561013a57816020610162933591016104e1565b9060808282031261013a5761054081836102ac565b9261054e82602085016102ac565b9261055c836040830161023b565b92606082013567ffffffffffffffff811161013a576101629201610510565b3461013a576102f561058e36600461052b565b929190916109ae565b3461013a576101936102296105ad366004610248565b610a33565b919060408382031261013a576101629060206105ce82866102ac565b94016102ac565b3461013a576101936101806105eb3660046105b2565b90610a7a565b3461013a576102f5610604366004610389565b610af9565b6380ac58cd60e01b6001600160e01b0319821614908115610639575b811561062f575090565b6101629150610b02565b6001600160e01b03198116635b5e139f60e01b149150610625565b634e487b7160e01b600052602260045260246000fd5b906001600283049216801561068a575b602083101461068557565b610654565b91607f169161067a565b805460009392916106b16106a78361066a565b8085529360200190565b916001811690811561070357506001146106ca57505050565b6106dd9192939450600052602060002090565b916000925b8184106106ef5750500190565b8054848401526020909301926001016106e2565b92949550505060ff1916825215156020020190565b9061016291610694565b9061014c61073c9261073360405190565b93848092610718565b038361047d565b61016290610722565b6101626000610743565b6101629061076381610b20565b50610b6b565b61014c913391610b87565b61025c6101626101629290565b61016290610774565b6001600160a01b03909116815260608101939261014c9290916040916107b1906020830152565b01906001600160a01b03169052565b90916000926107ce84610781565b6001600160a01b0381166001600160a01b0383161461083357506107f490823391610be5565b916001600160a01b0381166001600160a01b038416036108145750505050565b6364283d7b60e01b8452839261082f9290916004850161078a565b0390fd5b633250574960e11b85526001600160a01b03166004850152602484fd5b9061014c9161085d610d30565b9061014c91610d76565b9061014c91610850565b9061087e6104f1836104b8565b918252565b6101626000610871565b610162610883565b909161014c926108a361088d565b926109ae565b61016290610b20565b6101629061025c906001600160a01b031682565b610162906108b2565b610162906108c6565b906108e2906108cf565b600052602052604060002090565b6101629081565b61016290546108f0565b600061090c81610781565b6001600160a01b0381166001600160a01b0384161461093a5750506109356101629160036108d8565b6108f7565b6322718ad960e21b82526001600160a01b03166004820152602490fd5b61095f610d30565b61014c61014c61096f6000610781565b610dfd565b61014c610957565b6101629061025c565b610162905461097c565b6101626006610985565b6101626001610743565b61014c919033610e76565b9061014c9392916109c08383836107c0565b610f70565b6101626101626101629290565b6101f96109ea926020926109e4815190565b94859290565b938491016101a2565b610a019061016293926109d2565b906109d2565b610a27929161014c91610a1960405190565b9485926020840192836109f3565b9081038252038361047d565b610a3c81610b20565b50610a45611095565b8051610a58610a5460006109c5565b9190565b1115610a7057610a6a610162926110ea565b90610a07565b505061016261088d565b61016291610a95610a9a92610a8d600090565b5060056108d8565b6108d8565b5460ff1690565b61014c90610aad610d30565b6000610ab881610781565b6001600160a01b0381166001600160a01b03841614610adc57505061014c90610dfd565b631e4fbdf760e01b82526001600160a01b03166004820152602490fd5b61014c90610aa1565b610b1c6301ffc9a760e01b5b916001600160e01b03191690565b1490565b610b298161117d565b90600090610b3961025c83610781565b6001600160a01b03841614610b4d57505090565b637e27328960e01b82526004820152602490fd5b906108e2906109c5565b610b8261016291610b7a600090565b506004610b61565b610985565b9160019161014c93611194565b90600019905b9181191691161790565b90610bb4610162610bbb926109c5565b8254610b94565b9055565b906001600160a01b0390610b9a565b90610bde610162610bbb926108cf565b8254610bbf565b90610c43610bf28261117d565b936000610bfe81610781565b91846001600160a01b0384166001600160a01b03831603610d1f575b50506001600160a01b0382166001600160a01b03871603610ce4575b506001600160a01b031690565b6001600160a01b03831603610cb4575b610c6782610c62836002610b61565b610bce565b610c82610c7c610c76856108cf565b936108cf565b916109c5565b917fddf252ad1be2c89b69c2b068fc378daa952ba7f163c4a11628f55a4df523b3ef610cad60405190565b600090a490565b610cdf610cc160016109c5565b610cd9610ccf8560036108d8565b916101f9836108f7565b90610ba4565b610c53565b610cf090828581611194565b610d19610cfd60016109c5565b610cd9610d0b8860036108d8565b91610d15836108f7565b0390565b38610c36565b610d2991886112e0565b3884610c1a565b610d3861098f565b3390610d4c825b916001600160a01b031690565b03610d545750565b63118cdaa760e01b60009081526001600160a01b039091166004526024036000fd5b600091610d8283610781565b916001600160a01b0383166001600160a01b03821614610ddf57610da7918391610be5565b610db96001600160a01b038316610d3f565b03610dc2575050565b6339e3563760e11b82526001600160a01b03166004820152602490fd5b633250574960e11b84526001600160a01b0383166004850152602484fd5b610e23610e1d610e0d6006610985565b610e18846006610bce565b6108cf565b916108cf565b907f8be0079c531659141344cd1fd0a4f28419497f9722a3daafe3b4186f6b6457e0610e4e60405190565b80805b0390a3565b9060ff90610b9a565b90610e6f610162610bbb92151590565b8254610e56565b6000610e8461025c82610781565b6001600160a01b03841614610ee15750610e51610ed7610c7683610e1887610ed288610a957f17307eab39ab6107e8899845ad3d59bd9653f200f220920489ca2b5937696c319960056108d8565b610e5f565b9361018460405190565b630b61174360e31b81526001600160a01b0383166004820152602490fd5b9050519061014c82610127565b9060208282031261013a5761016291610eff565b6001600160a01b039182168152911660208201526040810191909152608060608201819052610162929101906101c5565b3d15610f6b57610f603d610871565b903d6000602084013e565b606090565b6000939192833b610f83610a54876109c5565b11610f90575b5050505050565b602091610f9f610e18866108cf565b908633610fc8610fae60405190565b97889687958694630a85bd0160e11b865260048601610f20565b03925af160009181611064575b5061102b5750610fea565b3880808080610f89565b610ff2610f51565b8051611000610a54856109c5565b036110235750633250574960e11b82526001600160a01b03166004820152602490fd5b805190602001fd5b61103b630a85bd0160e11b610b0e565b03611047575050610fe0565b633250574960e11b82526001600160a01b03166004820152602490fd5b61108791925060203d60201161108e575b61107f818361047d565b810190610f0c565b9038610fd5565b503d611075565b61016261088d565b369037565b9061014c6110b86110b284610871565b936104b8565b601f19016020840161109d565b634e487b7160e01b600052601260045260246000fd5b81156110e5570490565b6110c5565b6110f381611340565b906111046001926101f960016109c5565b918061110f846110a2565b936020018401905b611122575b50505090565b81156111785761115c9060001901926f181899199a1a9b1b9c1cb0b131b232b360811b600a82061a8453611156600a6109c5565b906110db565b908161116b610a5460006109c5565b1461117857909181611117565b61111c565b610b826101629161118c600090565b506002610b61565b929190918081156112a4575b6111b6575b505090610c6261014c926004610b61565b6111bf83610b20565b916000906111cf61025c83610781565b6001600160a01b038216141580611288575b80611271575b61125457505091610c629161014c9493611204575b5091926111a5565b61120d906108cf565b611216846108cf565b61121f836109c5565b917f8c5be1e5ebec7d5bd14f71427d1e84f3dd0314c0f7b2291e5b200ac8c7c3b92561124a60405190565b600090a4386111fc565b63a9fbf51f60e01b82526001600160a01b03166004820152602490fd5b5061128361127f8286610a7a565b1590565b6111e7565b506001600160a01b0381166001600160a01b03851614156111e1565b506112b261025c6000610781565b6001600160a01b03831614156111a0565b6001600160a01b03909116815260408101929161014c9160200152565b906112ef61127f8483856114e2565b6112f857505050565b600092839261130c610d3f61025c86610781565b0361132957637e27328960e01b8352600483015250602481010390fd5b63177e802f60e01b835261082f91600484016112c3565b61134a60006109c5565b907a184f03e93ff9f4daa797ed6e38ed64bf6a1f010000000000000000611370816109c5565b8210156114c0575b506d04ee2d6d415b85acef8100000000611391816109c5565b82101561149e575b50662386f26fc100006113ab816109c5565b82101561147c575b506305f5e1006113c2816109c5565b82101561145a575b506127106113d7816109c5565b821015611438575b506113ea60646109c5565b811015611416575b6113ff610a54600a6109c5565b10156114085790565b610162906101f960016109c5565b6114276114329161115660646109c5565b916101f960026109c5565b906113f2565b61145391611156611448926109c5565b916101f960046109c5565b90386113df565b6114759161115661146a926109c5565b916101f960086109c5565b90386113ca565b6114979161115661148c926109c5565b916101f960106109c5565b90386113b3565b6114b9916111566114ae926109c5565b916101f960206109c5565b9038611399565b6114db916111566114d0926109c5565b916101f960406109c5565b9038611378565b906114f061025c6000610781565b6001600160a01b038216141592836115085750505090565b919250906001600160a01b0382166001600160a01b03841614928315611562575b50821561153b575b505038808061111c565b61155a91925061154d610d3f91610b6b565b926001600160a01b031690565b143880611531565b61156f9193508290610a7a565b913861152956fea26469706673582212201dc73d7bacc67e2b3a84570d84380b8f79b3fe0ea6207507dddfd1413eb09a3764736f6c634300081a0033",
          "opcodes": "PUSH1 0x80 PUSH1 0x40 MSTORE CALLVALUE PUSH2 0x22 JUMPI PUSH2 0x11 PUSH2 0x101 JUMP JUMPDEST PUSH1 0x40 MLOAD PUSH2 0x15AC PUSH2 0x93C DUP3 CODECOPY PUSH2 0x15AC SWAP1 RETURN JUMPDEST PUSH1 0x0 DUP1 REVERT JUMPDEST PUSH4 0x4E487B71 PUSH1 0xE0 SHL PUSH1 0x0 MSTORE PUSH1 0x41 PUSH1 0x4 MSTORE PUSH1 0x24 PUSH1 0x0 REVERT JUMPDEST SWAP1 PUSH1 0x1F ADD PUSH1 0x1F NOT AND DUP2 ADD SWAP1 DUP2 LT PUSH1 0x1 PUSH1 0x1 PUSH1 0x40 SHL SUB DUP3 GT OR PUSH2 0x5E JUMPI PUSH1 0x40 MSTORE JUMP JUMPDEST PUSH2 0x27 JUMP JUMPDEST SWAP1 PUSH2 0x77 PUSH2 0x70 PUSH1 0x40 MLOAD SWAP1 JUMP JUMPDEST SWAP3 DUP4 PUSH2 0x3D JUMP JUMPDEST JUMP JUMPDEST PUSH1 0x1 PUSH1 0x1 PUSH1 0x40 SHL SUB DUP2 GT PUSH2 0x5E JUMPI PUSH1 0x20 SWAP1 PUSH1 0x1F ADD PUSH1 0x1F NOT AND ADD SWAP1 JUMP JUMPDEST SWAP1 PUSH2 0xA7 PUSH2 0xA2 DUP4 PUSH2 0x79 JUMP JUMPDEST PUSH2 0x63 JUMP JUMPDEST SWAP2 DUP3 MSTORE JUMP JUMPDEST PUSH2 0xB6 PUSH1 0x6 PUSH2 0x95 JUMP JUMPDEST PUSH6 0x2A32B9BA32B9 PUSH1 0xD1 SHL PUSH1 0x20 DUP3 ADD MSTORE SWAP1 JUMP JUMPDEST PUSH2 0xD0 PUSH2 0xAC JUMP JUMPDEST SWAP1 JUMP JUMPDEST PUSH2 0xDD PUSH1 0x3 PUSH2 0x95 JUMP JUMPDEST PUSH3 0x1514D5 PUSH1 0xEA SHL PUSH1 0x20 DUP3 ADD MSTORE SWAP1 JUMP JUMPDEST PUSH2 0xD0 PUSH2 0xD3 JUMP JUMPDEST PUSH2 0xD0 PUSH2 0xD0 PUSH2 0xD0 SWAP3 SWAP1 JUMP JUMPDEST PUSH2 0x11B PUSH2 0x10C PUSH2 0xC8 JUMP JUMPDEST PUSH2 0x114 PUSH2 0xEC JUMP JUMPDEST SWAP1 CALLER PUSH2 0x16D JUMP JUMPDEST PUSH2 0x77 PUSH2 0x128 PUSH1 0x1 PUSH2 0xF4 JUMP JUMPDEST CALLER PUSH2 0x3A2 JUMP JUMPDEST PUSH2 0x13B PUSH2 0xD0 PUSH2 0xD0 SWAP3 SWAP1 JUMP JUMPDEST PUSH1 0x1 PUSH1 0x1 PUSH1 0xA0 SHL SUB AND SWAP1 JUMP JUMPDEST PUSH2 0xD0 SWAP1 PUSH2 0x12E JUMP JUMPDEST PUSH2 0x159 SWAP1 PUSH2 0x13B JUMP JUMPDEST SWAP1 MSTORE JUMP JUMPDEST PUSH1 0x20 DUP2 ADD SWAP3 SWAP2 PUSH2 0x77 SWAP2 SWAP1 PUSH2 0x150 JUMP JUMPDEST SWAP2 PUSH2 0x177 SWAP2 PUSH2 0x38C JUMP JUMPDEST PUSH1 0x0 PUSH2 0x182 DUP2 PUSH2 0x147 JUMP JUMPDEST PUSH2 0x18B DUP2 PUSH2 0x13B JUMP JUMPDEST PUSH2 0x194 DUP5 PUSH2 0x13B JUMP JUMPDEST EQ PUSH2 0x1A4 JUMPI POP POP PUSH2 0x77 SWAP1 PUSH2 0x47D JUMP JUMPDEST PUSH4 0x1E4FBDF7 PUSH1 0xE0 SHL DUP3 MSTORE DUP2 SWAP1 PUSH2 0x1BD SWAP1 PUSH1 0x4 DUP4 ADD PUSH2 0x15D JUMP JUMPDEST SUB SWAP1 REVERT JUMPDEST PUSH4 0x4E487B71 PUSH1 0xE0 SHL PUSH1 0x0 MSTORE PUSH1 0x22 PUSH1 0x4 MSTORE PUSH1 0x24 PUSH1 0x0 REVERT JUMPDEST SWAP1 PUSH1 0x1 PUSH1 0x2 DUP4 DIV SWAP3 AND DUP1 ISZERO PUSH2 0x1F7 JUMPI JUMPDEST PUSH1 0x20 DUP4 LT EQ PUSH2 0x1F2 JUMPI JUMP JUMPDEST PUSH2 0x1C1 JUMP JUMPDEST SWAP2 PUSH1 0x7F AND SWAP2 PUSH2 0x1E7 JUMP JUMPDEST SWAP2 PUSH1 0x0 NOT PUSH1 0x8 SWAP3 SWAP1 SWAP3 MUL SWAP2 DUP3 SHL SWAP2 SHL JUMPDEST SWAP2 DUP2 NOT AND SWAP2 AND OR SWAP1 JUMP JUMPDEST SWAP2 SWAP1 PUSH2 0x22C PUSH2 0xD0 PUSH2 0x234 SWAP4 PUSH2 0xF4 JUMP JUMPDEST SWAP1 DUP4 SLOAD PUSH2 0x201 JUMP JUMPDEST SWAP1 SSTORE JUMP JUMPDEST PUSH2 0x77 SWAP2 PUSH1 0x0 SWAP2 PUSH2 0x21B JUMP JUMPDEST DUP2 DUP2 LT PUSH2 0x24F JUMPI POP POP JUMP JUMPDEST DUP1 PUSH2 0x25D PUSH1 0x0 PUSH1 0x1 SWAP4 PUSH2 0x238 JUMP JUMPDEST ADD PUSH2 0x244 JUMP JUMPDEST SWAP2 SWAP1 PUSH1 0x1F DUP2 GT PUSH2 0x272 JUMPI POP POP POP JUMP JUMPDEST PUSH2 0x284 PUSH2 0x77 SWAP4 PUSH1 0x0 MSTORE PUSH1 0x20 PUSH1 0x0 KECCAK256 SWAP1 JUMP JUMPDEST SWAP1 PUSH1 0x20 PUSH1 0x1F DUP5 ADD DUP2 SWAP1 DIV DUP4 ADD SWAP4 LT PUSH2 0x2A6 JUMPI JUMPDEST PUSH1 0x20 PUSH1 0x1F SWAP1 SWAP2 ADD DIV ADD SWAP1 PUSH2 0x244 JUMP JUMPDEST SWAP1 SWAP2 POP DUP2 SWAP1 PUSH2 0x297 JUMP JUMPDEST SWAP1 PUSH2 0x2B9 DUP2 MLOAD SWAP1 JUMP JUMPDEST SWAP1 PUSH1 0x1 PUSH1 0x1 PUSH1 0x40 SHL SUB DUP3 GT PUSH2 0x5E JUMPI PUSH2 0x2DC DUP3 PUSH2 0x2D6 DUP6 SLOAD PUSH2 0x1D7 JUMP JUMPDEST DUP6 PUSH2 0x263 JUMP JUMPDEST PUSH1 0x20 SWAP1 PUSH1 0x1F DUP4 GT PUSH1 0x1 EQ PUSH2 0x317 JUMPI PUSH2 0x234 SWAP3 SWAP2 PUSH1 0x0 SWAP2 DUP4 PUSH2 0x30C JUMPI JUMPDEST POP POP PUSH1 0x0 NOT PUSH1 0x8 DUP4 MUL SHR NOT AND SWAP1 PUSH1 0x2 MUL OR SWAP1 JUMP JUMPDEST ADD MLOAD SWAP1 POP CODESIZE DUP1 PUSH2 0x2F8 JUMP JUMPDEST PUSH1 0x1F NOT DUP4 AND SWAP2 PUSH2 0x32C DUP6 PUSH1 0x0 MSTORE PUSH1 0x20 PUSH1 0x0 KECCAK256 SWAP1 JUMP JUMPDEST SWAP3 PUSH1 0x0 JUMPDEST DUP2 DUP2 LT PUSH2 0x36A JUMPI POP SWAP2 PUSH1 0x2 SWAP4 SWAP2 DUP6 PUSH1 0x1 SWAP7 SWAP5 LT PUSH2 0x351 JUMPI JUMPDEST POP POP POP MUL ADD SWAP1 SSTORE JUMP JUMPDEST ADD MLOAD PUSH1 0x0 NOT PUSH1 0x8 PUSH1 0x1F DUP6 AND MUL SHR NOT AND SWAP1 SSTORE CODESIZE DUP1 DUP1 PUSH2 0x348 JUMP JUMPDEST SWAP2 SWAP4 PUSH1 0x20 PUSH1 0x1 DUP2 SWAP3 DUP8 DUP8 ADD MLOAD DUP2 SSTORE ADD SWAP6 ADD SWAP3 ADD PUSH2 0x330 JUMP JUMPDEST SWAP1 PUSH2 0x77 SWAP2 PUSH2 0x2B0 JUMP JUMPDEST SWAP1 PUSH2 0x39B PUSH2 0x77 SWAP3 PUSH1 0x0 PUSH2 0x382 JUMP JUMPDEST PUSH1 0x1 PUSH2 0x382 JUMP JUMPDEST PUSH1 0x0 SWAP2 PUSH2 0x3AE DUP4 PUSH2 0x147 JUMP JUMPDEST SWAP2 PUSH2 0x3B8 DUP4 PUSH2 0x13B JUMP JUMPDEST PUSH2 0x3C1 DUP3 PUSH2 0x13B JUMP JUMPDEST EQ PUSH2 0x405 JUMPI PUSH2 0x3D1 SWAP2 DUP4 SWAP2 PUSH2 0x528 JUMP JUMPDEST PUSH2 0x3E3 PUSH2 0x3DD DUP4 PUSH2 0x13B JUMP JUMPDEST SWAP2 PUSH2 0x13B JUMP JUMPDEST SUB PUSH2 0x3EC JUMPI POP POP JUMP JUMPDEST PUSH4 0x39E35637 PUSH1 0xE1 SHL DUP3 MSTORE DUP2 SWAP1 PUSH2 0x1BD SWAP1 PUSH1 0x4 DUP4 ADD PUSH2 0x15D JUMP JUMPDEST PUSH4 0x32505749 PUSH1 0xE1 SHL DUP5 MSTORE DUP4 DUP1 PUSH2 0x1BD DUP6 PUSH1 0x4 DUP4 ADD PUSH2 0x15D JUMP JUMPDEST PUSH2 0xD0 SWAP1 PUSH2 0x13B JUMP JUMPDEST PUSH2 0xD0 SWAP1 SLOAD PUSH2 0x41E JUMP JUMPDEST SWAP1 PUSH1 0x1 PUSH1 0x1 PUSH1 0xA0 SHL SUB SWAP1 PUSH2 0x211 JUMP JUMPDEST PUSH2 0xD0 SWAP1 PUSH2 0x13B SWAP1 PUSH1 0x1 PUSH1 0x1 PUSH1 0xA0 SHL SUB AND DUP3 JUMP JUMPDEST PUSH2 0xD0 SWAP1 PUSH2 0x440 JUMP JUMPDEST PUSH2 0xD0 SWAP1 PUSH2 0x454 JUMP JUMPDEST SWAP1 PUSH2 0x476 PUSH2 0xD0 PUSH2 0x234 SWAP3 PUSH2 0x45D JUMP JUMPDEST DUP3 SLOAD PUSH2 0x431 JUMP JUMPDEST PUSH2 0x4A3 PUSH2 0x49D PUSH2 0x48D PUSH1 0x6 PUSH2 0x427 JUMP JUMPDEST PUSH2 0x498 DUP5 PUSH1 0x6 PUSH2 0x466 JUMP JUMPDEST PUSH2 0x45D JUMP JUMPDEST SWAP2 PUSH2 0x45D JUMP JUMPDEST SWAP1 PUSH32 0x8BE0079C531659141344CD1FD0A4F28419497F9722A3DAAFE3B4186F6B6457E0 PUSH2 0x4CE PUSH1 0x40 MLOAD SWAP1 JUMP JUMPDEST PUSH1 0x0 SWAP1 LOG3 JUMP JUMPDEST SWAP1 PUSH2 0x4DE SWAP1 PUSH2 0x45D JUMP JUMPDEST PUSH1 0x0 MSTORE PUSH1 0x20 MSTORE PUSH1 0x40 PUSH1 0x0 KECCAK256 SWAP1 JUMP JUMPDEST PUSH2 0xD0 SWAP1 DUP2 JUMP JUMPDEST PUSH2 0xD0 SWAP1 SLOAD PUSH2 0x4EC JUMP JUMPDEST SWAP1 PUSH1 0x0 NOT SWAP1 PUSH2 0x211 JUMP JUMPDEST SWAP1 PUSH2 0x517 PUSH2 0xD0 PUSH2 0x234 SWAP3 PUSH2 0xF4 JUMP JUMPDEST DUP3 SLOAD PUSH2 0x4FD JUMP JUMPDEST SWAP1 PUSH2 0x4DE SWAP1 PUSH2 0xF4 JUMP JUMPDEST SWAP1 PUSH2 0x57B PUSH2 0x535 DUP3 PUSH2 0x66B JUMP JUMPDEST SWAP4 PUSH1 0x0 PUSH2 0x541 DUP2 PUSH2 0x147 JUMP JUMPDEST SWAP2 DUP5 PUSH2 0x54C DUP5 PUSH2 0x13B JUMP JUMPDEST PUSH2 0x555 DUP4 PUSH2 0x13B JUMP JUMPDEST SUB PUSH2 0x65A JUMPI JUMPDEST POP POP PUSH2 0x566 DUP3 PUSH2 0x13B JUMP JUMPDEST PUSH2 0x56F DUP8 PUSH2 0x13B JUMP JUMPDEST SUB PUSH2 0x61F JUMPI JUMPDEST POP PUSH2 0x13B JUMP JUMPDEST PUSH2 0x584 DUP4 PUSH2 0x13B JUMP JUMPDEST SUB PUSH2 0x5EB JUMPI JUMPDEST PUSH2 0x59E DUP3 PUSH2 0x599 DUP4 PUSH1 0x2 PUSH2 0x51E JUMP JUMPDEST PUSH2 0x466 JUMP JUMPDEST PUSH2 0x5B9 PUSH2 0x5B3 PUSH2 0x5AD DUP6 PUSH2 0x45D JUMP JUMPDEST SWAP4 PUSH2 0x45D JUMP JUMPDEST SWAP2 PUSH2 0xF4 JUMP JUMPDEST SWAP2 PUSH32 0xDDF252AD1BE2C89B69C2B068FC378DAA952BA7F163C4A11628F55A4DF523B3EF PUSH2 0x5E4 PUSH1 0x40 MLOAD SWAP1 JUMP JUMPDEST PUSH1 0x0 SWAP1 LOG4 SWAP1 JUMP JUMPDEST PUSH2 0x61A PUSH2 0x5F8 PUSH1 0x1 PUSH2 0xF4 JUMP JUMPDEST PUSH2 0x614 PUSH2 0x606 DUP6 PUSH1 0x3 PUSH2 0x4D4 JUMP JUMPDEST SWAP2 PUSH2 0x610 DUP4 PUSH2 0x4F3 JUMP JUMPDEST ADD SWAP1 JUMP JUMPDEST SWAP1 PUSH2 0x507 JUMP JUMPDEST PUSH2 0x58A JUMP JUMPDEST PUSH2 0x62B SWAP1 DUP3 DUP6 DUP2 PUSH2 0x70F JUMP JUMPDEST PUSH2 0x654 PUSH2 0x638 PUSH1 0x1 PUSH2 0xF4 JUMP JUMPDEST PUSH2 0x614 PUSH2 0x646 DUP9 PUSH1 0x3 PUSH2 0x4D4 JUMP JUMPDEST SWAP2 PUSH2 0x650 DUP4 PUSH2 0x4F3 JUMP JUMPDEST SUB SWAP1 JUMP JUMPDEST CODESIZE PUSH2 0x575 JUMP JUMPDEST PUSH2 0x664 SWAP2 DUP9 PUSH2 0x6A6 JUMP JUMPDEST CODESIZE DUP5 PUSH2 0x55B JUMP JUMPDEST PUSH2 0x682 PUSH2 0xD0 SWAP2 PUSH2 0x67A PUSH1 0x0 SWAP1 JUMP JUMPDEST POP PUSH1 0x2 PUSH2 0x51E JUMP JUMPDEST PUSH2 0x427 JUMP JUMPDEST SWAP2 PUSH1 0x20 PUSH2 0x77 SWAP3 SWAP5 SWAP4 PUSH2 0x6A2 PUSH1 0x40 DUP3 ADD SWAP7 PUSH1 0x0 DUP4 ADD SWAP1 PUSH2 0x150 JUMP JUMPDEST ADD MSTORE JUMP JUMPDEST SWAP1 PUSH2 0x6B9 PUSH2 0x6B5 DUP5 DUP4 DUP6 PUSH2 0x832 JUMP JUMPDEST ISZERO SWAP1 JUMP JUMPDEST PUSH2 0x6C2 JUMPI POP POP POP JUMP JUMPDEST PUSH1 0x0 SWAP3 DUP4 SWAP3 PUSH2 0x6DB PUSH2 0x3DD PUSH2 0x6D6 DUP7 PUSH2 0x147 JUMP JUMPDEST PUSH2 0x13B JUMP JUMPDEST SUB PUSH2 0x6F8 JUMPI PUSH4 0x7E273289 PUSH1 0xE0 SHL DUP4 MSTORE PUSH1 0x4 DUP4 ADD MSTORE POP PUSH1 0x24 DUP2 ADD SUB SWAP1 REVERT JUMPDEST PUSH4 0x177E802F PUSH1 0xE0 SHL DUP4 MSTORE PUSH2 0x1BD SWAP2 PUSH1 0x4 DUP5 ADD PUSH2 0x687 JUMP JUMPDEST SWAP3 SWAP2 SWAP1 SWAP2 DUP1 DUP2 ISZERO PUSH2 0x814 JUMPI JUMPDEST PUSH2 0x731 JUMPI JUMPDEST POP POP SWAP1 PUSH2 0x599 PUSH2 0x77 SWAP3 PUSH1 0x4 PUSH2 0x51E JUMP JUMPDEST PUSH2 0x73A DUP4 PUSH2 0x8BD JUMP JUMPDEST SWAP2 PUSH1 0x0 SWAP1 PUSH2 0x74A PUSH2 0x6D6 DUP4 PUSH2 0x147 JUMP JUMPDEST PUSH2 0x753 DUP3 PUSH2 0x13B JUMP JUMPDEST EQ ISZERO DUP1 PUSH2 0x7FA JUMPI JUMPDEST DUP1 PUSH2 0x7E7 JUMPI JUMPDEST PUSH2 0x7CE JUMPI POP POP SWAP2 PUSH2 0x599 SWAP2 PUSH2 0x77 SWAP5 SWAP4 PUSH2 0x77E JUMPI JUMPDEST POP SWAP2 SWAP3 PUSH2 0x720 JUMP JUMPDEST PUSH2 0x787 SWAP1 PUSH2 0x45D JUMP JUMPDEST PUSH2 0x790 DUP5 PUSH2 0x45D JUMP JUMPDEST PUSH2 0x799 DUP4 PUSH2 0xF4 JUMP JUMPDEST SWAP2 PUSH32 0x8C5BE1E5EBEC7D5BD14F71427D1E84F3DD0314C0F7B2291E5B200AC8C7C3B925 PUSH2 0x7C4 PUSH1 0x40 MLOAD SWAP1 JUMP JUMPDEST PUSH1 0x0 SWAP1 LOG4 CODESIZE PUSH2 0x776 JUMP JUMPDEST PUSH4 0xA9FBF51F PUSH1 0xE0 SHL DUP3 MSTORE DUP2 SWAP1 PUSH2 0x1BD SWAP1 PUSH1 0x4 DUP4 ADD PUSH2 0x15D JUMP JUMPDEST POP PUSH2 0x7F5 PUSH2 0x6B5 DUP3 DUP7 PUSH2 0x8FD JUMP JUMPDEST PUSH2 0x761 JUMP JUMPDEST POP PUSH2 0x804 DUP2 PUSH2 0x13B JUMP JUMPDEST PUSH2 0x80D DUP6 PUSH2 0x13B JUMP JUMPDEST EQ ISZERO PUSH2 0x75B JUMP JUMPDEST POP PUSH2 0x822 PUSH2 0x6D6 PUSH1 0x0 PUSH2 0x147 JUMP JUMPDEST PUSH2 0x82B DUP4 PUSH2 0x13B JUMP JUMPDEST EQ ISZERO PUSH2 0x71B JUMP JUMPDEST SWAP1 PUSH2 0x840 PUSH2 0x6D6 PUSH1 0x0 PUSH2 0x147 JUMP JUMPDEST PUSH2 0x849 DUP3 PUSH2 0x13B JUMP JUMPDEST EQ ISZERO SWAP3 DUP4 PUSH2 0x858 JUMPI JUMPDEST POP POP POP SWAP1 JUMP JUMPDEST SWAP1 SWAP2 SWAP3 POP PUSH2 0x865 DUP3 PUSH2 0x13B JUMP JUMPDEST PUSH2 0x86E DUP5 PUSH2 0x13B JUMP JUMPDEST EQ SWAP3 DUP4 ISZERO PUSH2 0x8A9 JUMPI JUMPDEST POP DUP3 ISZERO PUSH2 0x889 JUMPI JUMPDEST POP POP CODESIZE DUP1 DUP1 PUSH2 0x852 JUMP JUMPDEST PUSH2 0x8A1 SWAP2 SWAP3 POP PUSH2 0x89B PUSH2 0x3DD SWAP2 PUSH2 0x924 JUMP JUMPDEST SWAP3 PUSH2 0x13B JUMP JUMPDEST EQ CODESIZE DUP1 PUSH2 0x87F JUMP JUMPDEST PUSH2 0x8B6 SWAP2 SWAP4 POP DUP3 SWAP1 PUSH2 0x8FD JUMP JUMPDEST SWAP2 CODESIZE PUSH2 0x877 JUMP JUMPDEST PUSH2 0x8C6 DUP2 PUSH2 0x66B JUMP JUMPDEST SWAP1 PUSH1 0x0 SWAP1 PUSH2 0x8D6 PUSH2 0x6D6 DUP4 PUSH2 0x147 JUMP JUMPDEST PUSH2 0x8DF DUP5 PUSH2 0x13B JUMP JUMPDEST EQ PUSH2 0x8E9 JUMPI POP POP SWAP1 JUMP JUMPDEST PUSH4 0x7E273289 PUSH1 0xE0 SHL DUP3 MSTORE PUSH1 0x4 DUP3 ADD MSTORE PUSH1 0x24 SWAP1 REVERT JUMPDEST PUSH2 0xD0 SWAP2 PUSH2 0x918 PUSH2 0x91D SWAP3 PUSH2 0x910 PUSH1 0x0 SWAP1 JUMP JUMPDEST POP PUSH1 0x5 PUSH2 0x4D4 JUMP JUMPDEST PUSH2 0x4D4 JUMP JUMPDEST SLOAD PUSH1 0xFF AND SWAP1 JUMP JUMPDEST PUSH2 0x682 PUSH2 0xD0 SWAP2 PUSH2 0x933 PUSH1 0x0 SWAP1 JUMP JUMPDEST POP PUSH1 0x4 PUSH2 0x51E JUMP INVALID PUSH1 0x80 PUSH1 0x40 MSTORE PUSH1 0x4 CALLDATASIZE LT ISZERO PUSH2 0x12 JUMPI PUSH1 0x0 DUP1 REVERT JUMPDEST PUSH1 0x0 CALLDATALOAD PUSH1 0xE0 SHR DUP1 PUSH4 0x1FFC9A7 EQ PUSH2 0x122 JUMPI DUP1 PUSH4 0x6FDDE03 EQ PUSH2 0x11D JUMPI DUP1 PUSH4 0x81812FC EQ PUSH2 0x118 JUMPI DUP1 PUSH4 0x95EA7B3 EQ PUSH2 0x113 JUMPI DUP1 PUSH4 0x23B872DD EQ PUSH2 0x10E JUMPI DUP1 PUSH4 0x40C10F19 EQ PUSH2 0x109 JUMPI DUP1 PUSH4 0x42842E0E EQ PUSH2 0x104 JUMPI DUP1 PUSH4 0x6352211E EQ PUSH2 0xFF JUMPI DUP1 PUSH4 0x70A08231 EQ PUSH2 0xFA JUMPI DUP1 PUSH4 0x715018A6 EQ PUSH2 0xF5 JUMPI DUP1 PUSH4 0x8DA5CB5B EQ PUSH2 0xF0 JUMPI DUP1 PUSH4 0x95D89B41 EQ PUSH2 0xEB JUMPI DUP1 PUSH4 0xA22CB465 EQ PUSH2 0xE6 JUMPI DUP1 PUSH4 0xB88D4FDE EQ PUSH2 0xE1 JUMPI DUP1 PUSH4 0xC87B56DD EQ PUSH2 0xDC JUMPI DUP1 PUSH4 0xE985E9C5 EQ PUSH2 0xD7 JUMPI PUSH4 0xF2FDE38B SUB PUSH2 0x13A JUMPI PUSH2 0x5F1 JUMP JUMPDEST PUSH2 0x5D5 JUMP JUMPDEST PUSH2 0x597 JUMP JUMPDEST PUSH2 0x57B JUMP JUMPDEST PUSH2 0x44E JUMP JUMPDEST PUSH2 0x3FB JUMP JUMPDEST PUSH2 0x3E0 JUMP JUMPDEST PUSH2 0x3C8 JUMP JUMPDEST PUSH2 0x39D JUMP JUMPDEST PUSH2 0x36E JUMP JUMPDEST PUSH2 0x355 JUMP JUMPDEST PUSH2 0x33C JUMP JUMPDEST PUSH2 0x323 JUMP JUMPDEST PUSH2 0x2DC JUMP JUMPDEST PUSH2 0x268 JUMP JUMPDEST PUSH2 0x20E JUMP JUMPDEST PUSH2 0x165 JUMP JUMPDEST PUSH1 0x1 PUSH1 0x1 PUSH1 0xE0 SHL SUB NOT DUP2 AND JUMPDEST SUB PUSH2 0x13A JUMPI JUMP JUMPDEST PUSH1 0x0 DUP1 REVERT JUMPDEST SWAP1 POP CALLDATALOAD SWAP1 PUSH2 0x14C DUP3 PUSH2 0x127 JUMP JUMPDEST JUMP JUMPDEST SWAP1 PUSH1 0x20 DUP3 DUP3 SUB SLT PUSH2 0x13A JUMPI PUSH2 0x162 SWAP2 PUSH2 0x13F JUMP JUMPDEST SWAP1 JUMP JUMPDEST CALLVALUE PUSH2 0x13A JUMPI PUSH2 0x193 PUSH2 0x180 PUSH2 0x17B CALLDATASIZE PUSH1 0x4 PUSH2 0x14E JUMP JUMPDEST PUSH2 0x609 JUMP JUMPDEST PUSH1 0x40 MLOAD JUMPDEST SWAP2 DUP3 SWAP2 DUP3 SWAP1 ISZERO ISZERO DUP2 MSTORE PUSH1 0x20 ADD SWAP1 JUMP JUMPDEST SUB SWAP1 RETURN JUMPDEST PUSH1 0x0 SWAP2 SUB SLT PUSH2 0x13A JUMPI JUMP JUMPDEST PUSH1 0x0 JUMPDEST DUP4 DUP2 LT PUSH2 0x1B5 JUMPI POP POP PUSH1 0x0 SWAP2 ADD MSTORE JUMP JUMPDEST DUP2 DUP2 ADD MLOAD DUP4 DUP3 ADD MSTORE PUSH1 0x20 ADD PUSH2 0x1A5 JUMP JUMPDEST PUSH2 0x1E6 PUSH2 0x1EF PUSH1 0x20 SWAP4 PUSH2 0x1F9 SWAP4 PUSH2 0x1DA DUP2 MLOAD SWAP1 JUMP JUMPDEST DUP1 DUP4 MSTORE SWAP4 DUP5 SWAP3 PUSH1 0x20 ADD SWAP1 JUMP JUMPDEST SWAP6 DUP7 SWAP2 ADD PUSH2 0x1A2 JUMP JUMPDEST PUSH1 0x1F ADD PUSH1 0x1F NOT AND SWAP1 JUMP JUMPDEST ADD SWAP1 JUMP JUMPDEST PUSH1 0x20 DUP1 DUP3 MSTORE PUSH2 0x162 SWAP3 SWAP2 ADD SWAP1 PUSH2 0x1C5 JUMP JUMPDEST CALLVALUE PUSH2 0x13A JUMPI PUSH2 0x21E CALLDATASIZE PUSH1 0x4 PUSH2 0x197 JUMP JUMPDEST PUSH2 0x193 PUSH2 0x229 PUSH2 0x74C JUMP JUMPDEST PUSH1 0x40 MLOAD SWAP2 DUP3 SWAP2 DUP3 PUSH2 0x1FD JUMP JUMPDEST DUP1 PUSH2 0x133 JUMP JUMPDEST SWAP1 POP CALLDATALOAD SWAP1 PUSH2 0x14C DUP3 PUSH2 0x235 JUMP JUMPDEST SWAP1 PUSH1 0x20 DUP3 DUP3 SUB SLT PUSH2 0x13A JUMPI PUSH2 0x162 SWAP2 PUSH2 0x23B JUMP JUMPDEST PUSH1 0x1 PUSH1 0x1 PUSH1 0xA0 SHL SUB AND SWAP1 JUMP JUMPDEST CALLVALUE PUSH2 0x13A JUMPI PUSH2 0x193 PUSH2 0x283 PUSH2 0x27E CALLDATASIZE PUSH1 0x4 PUSH2 0x248 JUMP JUMPDEST PUSH2 0x756 JUMP JUMPDEST PUSH1 0x40 MLOAD SWAP2 DUP3 SWAP2 DUP3 PUSH1 0x1 PUSH1 0x1 PUSH1 0xA0 SHL SUB SWAP1 SWAP2 AND DUP2 MSTORE PUSH1 0x20 ADD SWAP1 JUMP JUMPDEST PUSH1 0x1 PUSH1 0x1 PUSH1 0xA0 SHL SUB DUP2 AND PUSH2 0x133 JUMP JUMPDEST SWAP1 POP CALLDATALOAD SWAP1 PUSH2 0x14C DUP3 PUSH2 0x29D JUMP JUMPDEST SWAP2 SWAP1 PUSH1 0x40 DUP4 DUP3 SUB SLT PUSH2 0x13A JUMPI PUSH2 0x162 SWAP1 PUSH1 0x20 PUSH2 0x2D5 DUP3 DUP7 PUSH2 0x2AC JUMP JUMPDEST SWAP5 ADD PUSH2 0x23B JUMP JUMPDEST CALLVALUE PUSH2 0x13A JUMPI PUSH2 0x2F5 PUSH2 0x2EF CALLDATASIZE PUSH1 0x4 PUSH2 0x2B9 JUMP JUMPDEST SWAP1 PUSH2 0x769 JUMP JUMPDEST PUSH1 0x40 MLOAD STOP JUMPDEST SWAP1 SWAP2 PUSH1 0x60 DUP3 DUP5 SUB SLT PUSH2 0x13A JUMPI PUSH2 0x162 PUSH2 0x313 DUP5 DUP5 PUSH2 0x2AC JUMP JUMPDEST SWAP4 PUSH1 0x40 PUSH2 0x2D5 DUP3 PUSH1 0x20 DUP8 ADD PUSH2 0x2AC JUMP JUMPDEST CALLVALUE PUSH2 0x13A JUMPI PUSH2 0x2F5 PUSH2 0x336 CALLDATASIZE PUSH1 0x4 PUSH2 0x2FA JUMP JUMPDEST SWAP2 PUSH2 0x7C0 JUMP JUMPDEST CALLVALUE PUSH2 0x13A JUMPI PUSH2 0x2F5 PUSH2 0x34F CALLDATASIZE PUSH1 0x4 PUSH2 0x2B9 JUMP JUMPDEST SWAP1 PUSH2 0x867 JUMP JUMPDEST CALLVALUE PUSH2 0x13A JUMPI PUSH2 0x2F5 PUSH2 0x368 CALLDATASIZE PUSH1 0x4 PUSH2 0x2FA JUMP JUMPDEST SWAP2 PUSH2 0x895 JUMP JUMPDEST CALLVALUE PUSH2 0x13A JUMPI PUSH2 0x193 PUSH2 0x283 PUSH2 0x384 CALLDATASIZE PUSH1 0x4 PUSH2 0x248 JUMP JUMPDEST PUSH2 0x8A9 JUMP JUMPDEST SWAP1 PUSH1 0x20 DUP3 DUP3 SUB SLT PUSH2 0x13A JUMPI PUSH2 0x162 SWAP2 PUSH2 0x2AC JUMP JUMPDEST CALLVALUE PUSH2 0x13A JUMPI PUSH2 0x193 PUSH2 0x3B8 PUSH2 0x3B3 CALLDATASIZE PUSH1 0x4 PUSH2 0x389 JUMP JUMPDEST PUSH2 0x901 JUMP JUMPDEST PUSH1 0x40 MLOAD SWAP2 DUP3 SWAP2 DUP3 SWAP1 DUP2 MSTORE PUSH1 0x20 ADD SWAP1 JUMP JUMPDEST CALLVALUE PUSH2 0x13A JUMPI PUSH2 0x3D8 CALLDATASIZE PUSH1 0x4 PUSH2 0x197 JUMP JUMPDEST PUSH2 0x2F5 PUSH2 0x974 JUMP JUMPDEST CALLVALUE PUSH2 0x13A JUMPI PUSH2 0x3F0 CALLDATASIZE PUSH1 0x4 PUSH2 0x197 JUMP JUMPDEST PUSH2 0x193 PUSH2 0x283 PUSH2 0x98F JUMP JUMPDEST CALLVALUE PUSH2 0x13A JUMPI PUSH2 0x40B CALLDATASIZE PUSH1 0x4 PUSH2 0x197 JUMP JUMPDEST PUSH2 0x193 PUSH2 0x229 PUSH2 0x999 JUMP JUMPDEST DUP1 ISZERO ISZERO PUSH2 0x133 JUMP JUMPDEST SWAP1 POP CALLDATALOAD SWAP1 PUSH2 0x14C DUP3 PUSH2 0x416 JUMP JUMPDEST SWAP2 SWAP1 PUSH1 0x40 DUP4 DUP3 SUB SLT PUSH2 0x13A JUMPI PUSH2 0x162 SWAP1 PUSH1 0x20 PUSH2 0x447 DUP3 DUP7 PUSH2 0x2AC JUMP JUMPDEST SWAP5 ADD PUSH2 0x41E JUMP JUMPDEST CALLVALUE PUSH2 0x13A JUMPI PUSH2 0x2F5 PUSH2 0x461 CALLDATASIZE PUSH1 0x4 PUSH2 0x42B JUMP JUMPDEST SWAP1 PUSH2 0x9A3 JUMP JUMPDEST PUSH4 0x4E487B71 PUSH1 0xE0 SHL PUSH1 0x0 MSTORE PUSH1 0x41 PUSH1 0x4 MSTORE PUSH1 0x24 PUSH1 0x0 REVERT JUMPDEST SWAP1 PUSH1 0x1F ADD PUSH1 0x1F NOT AND DUP2 ADD SWAP1 DUP2 LT PUSH8 0xFFFFFFFFFFFFFFFF DUP3 GT OR PUSH2 0x49F JUMPI PUSH1 0x40 MSTORE JUMP JUMPDEST PUSH2 0x467 JUMP JUMPDEST SWAP1 PUSH2 0x14C PUSH2 0x4B1 PUSH1 0x40 MLOAD SWAP1 JUMP JUMPDEST SWAP3 DUP4 PUSH2 0x47D JUMP JUMPDEST PUSH8 0xFFFFFFFFFFFFFFFF DUP2 GT PUSH2 0x49F JUMPI PUSH1 0x20 SWAP1 PUSH1 0x1F ADD PUSH1 0x1F NOT AND ADD SWAP1 JUMP JUMPDEST SWAP1 DUP3 PUSH1 0x0 SWAP4 SWAP3 DUP3 CALLDATACOPY ADD MSTORE JUMP JUMPDEST SWAP1 SWAP3 SWAP2 SWAP3 PUSH2 0x4F6 PUSH2 0x4F1 DUP3 PUSH2 0x4B8 JUMP JUMPDEST PUSH2 0x4A4 JUMP JUMPDEST SWAP4 DUP2 DUP6 MSTORE DUP2 DUP4 ADD GT PUSH2 0x13A JUMPI PUSH2 0x14C SWAP2 PUSH1 0x20 DUP6 ADD SWAP1 PUSH2 0x4D5 JUMP JUMPDEST SWAP1 DUP1 PUSH1 0x1F DUP4 ADD SLT ISZERO PUSH2 0x13A JUMPI DUP2 PUSH1 0x20 PUSH2 0x162 SWAP4 CALLDATALOAD SWAP2 ADD PUSH2 0x4E1 JUMP JUMPDEST SWAP1 PUSH1 0x80 DUP3 DUP3 SUB SLT PUSH2 0x13A JUMPI PUSH2 0x540 DUP2 DUP4 PUSH2 0x2AC JUMP JUMPDEST SWAP3 PUSH2 0x54E DUP3 PUSH1 0x20 DUP6 ADD PUSH2 0x2AC JUMP JUMPDEST SWAP3 PUSH2 0x55C DUP4 PUSH1 0x40 DUP4 ADD PUSH2 0x23B JUMP JUMPDEST SWAP3 PUSH1 0x60 DUP3 ADD CALLDATALOAD PUSH8 0xFFFFFFFFFFFFFFFF DUP2 GT PUSH2 0x13A JUMPI PUSH2 0x162 SWAP3 ADD PUSH2 0x510 JUMP JUMPDEST CALLVALUE PUSH2 0x13A JUMPI PUSH2 0x2F5 PUSH2 0x58E CALLDATASIZE PUSH1 0x4 PUSH2 0x52B JUMP JUMPDEST SWAP3 SWAP2 SWAP1 SWAP2 PUSH2 0x9AE JUMP JUMPDEST CALLVALUE PUSH2 0x13A JUMPI PUSH2 0x193 PUSH2 0x229 PUSH2 0x5AD CALLDATASIZE PUSH1 0x4 PUSH2 0x248 JUMP JUMPDEST PUSH2 0xA33 JUMP JUMPDEST SWAP2 SWAP1 PUSH1 0x40 DUP4 DUP3 SUB SLT PUSH2 0x13A JUMPI PUSH2 0x162 SWAP1 PUSH1 0x20 PUSH2 0x5CE DUP3 DUP7 PUSH2 0x2AC JUMP JUMPDEST SWAP5 ADD PUSH2 0x2AC JUMP JUMPDEST CALLVALUE PUSH2 0x13A JUMPI PUSH2 0x193 PUSH2 0x180 PUSH2 0x5EB CALLDATASIZE PUSH1 0x4 PUSH2 0x5B2 JUMP JUMPDEST SWAP1 PUSH2 0xA7A JUMP JUMPDEST CALLVALUE PUSH2 0x13A JUMPI PUSH2 0x2F5 PUSH2 0x604 CALLDATASIZE PUSH1 0x4 PUSH2 0x389 JUMP JUMPDEST PUSH2 0xAF9 JUMP JUMPDEST PUSH4 0x80AC58CD PUSH1 0xE0 SHL PUSH1 0x1 PUSH1 0x1 PUSH1 0xE0 SHL SUB NOT DUP3 AND EQ SWAP1 DUP2 ISZERO PUSH2 0x639 JUMPI JUMPDEST DUP2 ISZERO PUSH2 0x62F JUMPI POP SWAP1 JUMP JUMPDEST PUSH2 0x162 SWAP2 POP PUSH2 0xB02 JUMP JUMPDEST PUSH1 0x1 PUSH1 0x1 PUSH1 0xE0 SHL SUB NOT DUP2 AND PUSH4 0x5B5E139F PUSH1 0xE0 SHL EQ SWAP2 POP PUSH2 0x625 JUMP JUMPDEST PUSH4 0x4E487B71 PUSH1 0xE0 SHL PUSH1 0x0 MSTORE PUSH1 0x22 PUSH1 0x4 MSTORE PUSH1 0x24 PUSH1 0x0 REVERT JUMPDEST SWAP1 PUSH1 0x1 PUSH1 0x2 DUP4 DIV SWAP3 AND DUP1 ISZERO PUSH2 0x68A JUMPI JUMPDEST PUSH1 0x20 DUP4 LT EQ PUSH2 0x685 JUMPI JUMP JUMPDEST PUSH2 0x654 JUMP JUMPDEST SWAP2 PUSH1 0x7F AND SWAP2 PUSH2 0x67A JUMP JUMPDEST DUP1 SLOAD PUSH1 0x0 SWAP4 SWAP3 SWAP2 PUSH2 0x6B1 PUSH2 0x6A7 DUP4 PUSH2 0x66A JUMP JUMPDEST DUP1 DUP6 MSTORE SWAP4 PUSH1 0x20 ADD SWAP1 JUMP JUMPDEST SWAP2 PUSH1 0x1 DUP2 AND SWAP1 DUP2 ISZERO PUSH2 0x703 JUMPI POP PUSH1 0x1 EQ PUSH2 0x6CA JUMPI POP POP POP JUMP JUMPDEST PUSH2 0x6DD SWAP2 SWAP3 SWAP4 SWAP5 POP PUSH1 0x0 MSTORE PUSH1 0x20 PUSH1 0x0 KECCAK256 SWAP1 JUMP JUMPDEST SWAP2 PUSH1 0x0 SWAP3 JUMPDEST DUP2 DUP5 LT PUSH2 0x6EF JUMPI POP POP ADD SWAP1 JUMP JUMPDEST DUP1 SLOAD DUP5 DUP5 ADD MSTORE PUSH1 0x20 SWAP1 SWAP4 ADD SWAP3 PUSH1 0x1 ADD PUSH2 0x6E2 JUMP JUMPDEST SWAP3 SWAP5 SWAP6 POP POP POP PUSH1 0xFF NOT AND DUP3 MSTORE ISZERO ISZERO PUSH1 0x20 MUL ADD SWAP1 JUMP JUMPDEST SWAP1 PUSH2 0x162 SWAP2 PUSH2 0x694 JUMP JUMPDEST SWAP1 PUSH2 0x14C PUSH2 0x73C SWAP3 PUSH2 0x733 PUSH1 0x40 MLOAD SWAP1 JUMP JUMPDEST SWAP4 DUP5 DUP1 SWAP3 PUSH2 0x718 JUMP JUMPDEST SUB DUP4 PUSH2 0x47D JUMP JUMPDEST PUSH2 0x162 SWAP1 PUSH2 0x722 JUMP JUMPDEST PUSH2 0x162 PUSH1 0x0 PUSH2 0x743 JUMP JUMPDEST PUSH2 0x162 SWAP1 PUSH2 0x763 DUP2 PUSH2 0xB20 JUMP JUMPDEST POP PUSH2 0xB6B JUMP JUMPDEST PUSH2 0x14C SWAP2 CALLER SWAP2 PUSH2 0xB87 JUMP JUMPDEST PUSH2 0x25C PUSH2 0x162 PUSH2 0x162 SWAP3 SWAP1 JUMP JUMPDEST PUSH2 0x162 SWAP1 PUSH2 0x774 JUMP JUMPDEST PUSH1 0x1 PUSH1 0x1 PUSH1 0xA0 SHL SUB SWAP1 SWAP2 AND DUP2 MSTORE PUSH1 0x60 DUP2 ADD SWAP4 SWAP3 PUSH2 0x14C SWAP3 SWAP1 SWAP2 PUSH1 0x40 SWAP2 PUSH2 0x7B1 SWAP1 PUSH1 0x20 DUP4 ADD MSTORE JUMP JUMPDEST ADD SWAP1 PUSH1 0x1 PUSH1 0x1 PUSH1 0xA0 SHL SUB AND SWAP1 MSTORE JUMP JUMPDEST SWAP1 SWAP2 PUSH1 0x0 SWAP3 PUSH2 0x7CE DUP5 PUSH2 0x781 JUMP JUMPDEST PUSH1 0x1 PUSH1 0x1 PUSH1 0xA0 SHL SUB DUP2 AND PUSH1 0x1 PUSH1 0x1 PUSH1 0xA0 SHL SUB DUP4 AND EQ PUSH2 0x833 JUMPI POP PUSH2 0x7F4 SWAP1 DUP3 CALLER SWAP2 PUSH2 0xBE5 JUMP JUMPDEST SWAP2 PUSH1 0x1 PUSH1 0x1 PUSH1 0xA0 SHL SUB DUP2 AND PUSH1 0x1 PUSH1 0x1 PUSH1 0xA0 SHL SUB DUP5 AND SUB PUSH2 0x814 JUMPI POP POP POP POP JUMP JUMPDEST PUSH4 0x64283D7B PUSH1 0xE0 SHL DUP5 MSTORE DUP4 SWAP3 PUSH2 0x82F SWAP3 SWAP1 SWAP2 PUSH1 0x4 DUP6 ADD PUSH2 0x78A JUMP JUMPDEST SUB SWAP1 REVERT JUMPDEST PUSH4 0x32505749 PUSH1 0xE1 SHL DUP6 MSTORE PUSH1 0x1 PUSH1 0x1 PUSH1 0xA0 SHL SUB AND PUSH1 0x4 DUP6 ADD MSTORE PUSH1 0x24 DUP5 REVERT JUMPDEST SWAP1 PUSH2 0x14C SWAP2 PUSH2 0x85D PUSH2 0xD30 JUMP JUMPDEST SWAP1 PUSH2 0x14C SWAP2 PUSH2 0xD76 JUMP JUMPDEST SWAP1 PUSH2 0x14C SWAP2 PUSH2 0x850 JUMP JUMPDEST SWAP1 PUSH2 0x87E PUSH2 0x4F1 DUP4 PUSH2 0x4B8 JUMP JUMPDEST SWAP2 DUP3 MSTORE JUMP JUMPDEST PUSH2 0x162 PUSH1 0x0 PUSH2 0x871 JUMP JUMPDEST PUSH2 0x162 PUSH2 0x883 JUMP JUMPDEST SWAP1 SWAP2 PUSH2 0x14C SWAP3 PUSH2 0x8A3 PUSH2 0x88D JUMP JUMPDEST SWAP3 PUSH2 0x9AE JUMP JUMPDEST PUSH2 0x162 SWAP1 PUSH2 0xB20 JUMP JUMPDEST PUSH2 0x162 SWAP1 PUSH2 0x25C SWAP1 PUSH1 0x1 PUSH1 0x1 PUSH1 0xA0 SHL SUB AND DUP3 JUMP JUMPDEST PUSH2 0x162 SWAP1 PUSH2 0x8B2 JUMP JUMPDEST PUSH2 0x162 SWAP1 PUSH2 0x8C6 JUMP JUMPDEST SWAP1 PUSH2 0x8E2 SWAP1 PUSH2 0x8CF JUMP JUMPDEST PUSH1 0x0 MSTORE PUSH1 0x20 MSTORE PUSH1 0x40 PUSH1 0x0 KECCAK256 SWAP1 JUMP JUMPDEST PUSH2 0x162 SWAP1 DUP2 JUMP JUMPDEST PUSH2 0x162 SWAP1 SLOAD PUSH2 0x8F0 JUMP JUMPDEST PUSH1 0x0 PUSH2 0x90C DUP2 PUSH2 0x781 JUMP JUMPDEST PUSH1 0x1 PUSH1 0x1 PUSH1 0xA0 SHL SUB DUP2 AND PUSH1 0x1 PUSH1 0x1 PUSH1 0xA0 SHL SUB DUP5 AND EQ PUSH2 0x93A JUMPI POP POP PUSH2 0x935 PUSH2 0x162 SWAP2 PUSH1 0x3 PUSH2 0x8D8 JUMP JUMPDEST PUSH2 0x8F7 JUMP JUMPDEST PUSH4 0x22718AD9 PUSH1 0xE2 SHL DUP3 MSTORE PUSH1 0x1 PUSH1 0x1 PUSH1 0xA0 SHL SUB AND PUSH1 0x4 DUP3 ADD MSTORE PUSH1 0x24 SWAP1 REVERT JUMPDEST PUSH2 0x95F PUSH2 0xD30 JUMP JUMPDEST PUSH2 0x14C PUSH2 0x14C PUSH2 0x96F PUSH1 0x0 PUSH2 0x781 JUMP JUMPDEST PUSH2 0xDFD JUMP JUMPDEST PUSH2 0x14C PUSH2 0x957 JUMP JUMPDEST PUSH2 0x162 SWAP1 PUSH2 0x25C JUMP JUMPDEST PUSH2 0x162 SWAP1 SLOAD PUSH2 0x97C JUMP JUMPDEST PUSH2 0x162 PUSH1 0x6 PUSH2 0x985 JUMP JUMPDEST PUSH2 0x162 PUSH1 0x1 PUSH2 0x743 JUMP JUMPDEST PUSH2 0x14C SWAP2 SWAP1 CALLER PUSH2 0xE76 JUMP JUMPDEST SWAP1 PUSH2 0x14C SWAP4 SWAP3 SWAP2 PUSH2 0x9C0 DUP4 DUP4 DUP4 PUSH2 0x7C0 JUMP JUMPDEST PUSH2 0xF70 JUMP JUMPDEST PUSH2 0x162 PUSH2 0x162 PUSH2 0x162 SWAP3 SWAP1 JUMP JUMPDEST PUSH2 0x1F9 PUSH2 0x9EA SWAP3 PUSH1 0x20 SWAP3 PUSH2 0x9E4 DUP2 MLOAD SWAP1 JUMP JUMPDEST SWAP5 DUP6 SWAP3 SWAP1 JUMP JUMPDEST SWAP4 DUP5 SWAP2 ADD PUSH2 0x1A2 JUMP JUMPDEST PUSH2 0xA01 SWAP1 PUSH2 0x162 SWAP4 SWAP3 PUSH2 0x9D2 JUMP JUMPDEST SWAP1 PUSH2 0x9D2 JUMP JUMPDEST PUSH2 0xA27 SWAP3 SWAP2 PUSH2 0x14C SWAP2 PUSH2 0xA19 PUSH1 0x40 MLOAD SWAP1 JUMP JUMPDEST SWAP5 DUP6 SWAP3 PUSH1 0x20 DUP5 ADD SWAP3 DUP4 PUSH2 0x9F3 JUMP JUMPDEST SWAP1 DUP2 SUB DUP3 MSTORE SUB DUP4 PUSH2 0x47D JUMP JUMPDEST PUSH2 0xA3C DUP2 PUSH2 0xB20 JUMP JUMPDEST POP PUSH2 0xA45 PUSH2 0x1095 JUMP JUMPDEST DUP1 MLOAD PUSH2 0xA58 PUSH2 0xA54 PUSH1 0x0 PUSH2 0x9C5 JUMP JUMPDEST SWAP2 SWAP1 JUMP JUMPDEST GT ISZERO PUSH2 0xA70 JUMPI PUSH2 0xA6A PUSH2 0x162 SWAP3 PUSH2 0x10EA JUMP JUMPDEST SWAP1 PUSH2 0xA07 JUMP JUMPDEST POP POP PUSH2 0x162 PUSH2 0x88D JUMP JUMPDEST PUSH2 0x162 SWAP2 PUSH2 0xA95 PUSH2 0xA9A SWAP3 PUSH2 0xA8D PUSH1 0x0 SWAP1 JUMP JUMPDEST POP PUSH1 0x5 PUSH2 0x8D8 JUMP JUMPDEST PUSH2 0x8D8 JUMP JUMPDEST SLOAD PUSH1 0xFF AND SWAP1 JUMP JUMPDEST PUSH2 0x14C SWAP1 PUSH2 0xAAD PUSH2 0xD30 JUMP JUMPDEST PUSH1 0x0 PUSH2 0xAB8 DUP2 PUSH2 0x781 JUMP JUMPDEST PUSH1 0x1 PUSH1 0x1 PUSH1 0xA0 SHL SUB DUP2 AND PUSH1 0x1 PUSH1 0x1 PUSH1 0xA0 SHL SUB DUP5 AND EQ PUSH2 0xADC JUMPI POP POP PUSH2 0x14C SWAP1 PUSH2 0xDFD JUMP JUMPDEST PUSH4 0x1E4FBDF7 PUSH1 0xE0 SHL DUP3 MSTORE PUSH1 0x1 PUSH1 0x1 PUSH1 0xA0 SHL SUB AND PUSH1 0x4 DUP3 ADD MSTORE PUSH1 0x24 SWAP1 REVERT JUMPDEST PUSH2 0x14C SWAP1 PUSH2 0xAA1 JUMP JUMPDEST PUSH2 0xB1C PUSH4 0x1FFC9A7 PUSH1 0xE0 SHL JUMPDEST SWAP2 PUSH1 0x1 PUSH1 0x1 PUSH1 0xE0 SHL SUB NOT AND SWAP1 JUMP JUMPDEST EQ SWAP1 JUMP JUMPDEST PUSH2 0xB29 DUP2 PUSH2 0x117D JUMP JUMPDEST SWAP1 PUSH1 0x0 SWAP1 PUSH2 0xB39 PUSH2 0x25C DUP4 PUSH2 0x781 JUMP JUMPDEST PUSH1 0x1 PUSH1 0x1 PUSH1 0xA0 SHL SUB DUP5 AND EQ PUSH2 0xB4D JUMPI POP POP SWAP1 JUMP JUMPDEST PUSH4 0x7E273289 PUSH1 0xE0 SHL DUP3 MSTORE PUSH1 0x4 DUP3 ADD MSTORE PUSH1 0x24 SWAP1 REVERT JUMPDEST SWAP1 PUSH2 0x8E2 SWAP1 PUSH2 0x9C5 JUMP JUMPDEST PUSH2 0xB82 PUSH2 0x162 SWAP2 PUSH2 0xB7A PUSH1 0x0 SWAP1 JUMP JUMPDEST POP PUSH1 0x4 PUSH2 0xB61 JUMP JUMPDEST PUSH2 0x985 JUMP JUMPDEST SWAP2 PUSH1 0x1 SWAP2 PUSH2 0x14C SWAP4 PUSH2 0x1194 JUMP JUMPDEST SWAP1 PUSH1 0x0 NOT SWAP1 JUMPDEST SWAP2 DUP2 NOT AND SWAP2 AND OR SWAP1 JUMP JUMPDEST SWAP1 PUSH2 0xBB4 PUSH2 0x162 PUSH2 0xBBB SWAP3 PUSH2 0x9C5 JUMP JUMPDEST DUP3 SLOAD PUSH2 0xB94 JUMP JUMPDEST SWAP1 SSTORE JUMP JUMPDEST SWAP1 PUSH1 0x1 PUSH1 0x1 PUSH1 0xA0 SHL SUB SWAP1 PUSH2 0xB9A JUMP JUMPDEST SWAP1 PUSH2 0xBDE PUSH2 0x162 PUSH2 0xBBB SWAP3 PUSH2 0x8CF JUMP JUMPDEST DUP3 SLOAD PUSH2 0xBBF JUMP JUMPDEST SWAP1 PUSH2 0xC43 PUSH2 0xBF2 DUP3 PUSH2 0x117D JUMP JUMPDEST SWAP4 PUSH1 0x0 PUSH2 0xBFE DUP2 PUSH2 0x781 JUMP JUMPDEST SWAP2 DUP5 PUSH1 0x1 PUSH1 0x1 PUSH1 0xA0 SHL SUB DUP5 AND PUSH1 0x1 PUSH1 0x1 PUSH1 0xA0 SHL SUB DUP4 AND SUB PUSH2 0xD1F JUMPI JUMPDEST POP POP PUSH1 0x1 PUSH1 0x1 PUSH1 0xA0 SHL SUB DUP3 AND PUSH1 0x1 PUSH1 0x1 PUSH1 0xA0 SHL SUB DUP8 AND SUB PUSH2 0xCE4 JUMPI JUMPDEST POP PUSH1 0x1 PUSH1 0x1 PUSH1 0xA0 SHL SUB AND SWAP1 JUMP JUMPDEST PUSH1 0x1 PUSH1 0x1 PUSH1 0xA0 SHL SUB DUP4 AND SUB PUSH2 0xCB4 JUMPI JUMPDEST PUSH2 0xC67 DUP3 PUSH2 0xC62 DUP4 PUSH1 0x2 PUSH2 0xB61 JUMP JUMPDEST PUSH2 0xBCE JUMP JUMPDEST PUSH2 0xC82 PUSH2 0xC7C PUSH2 0xC76 DUP6 PUSH2 0x8CF JUMP JUMPDEST SWAP4 PUSH2 0x8CF JUMP JUMPDEST SWAP2 PUSH2 0x9C5 JUMP JUMPDEST SWAP2 PUSH32 0xDDF252AD1BE2C89B69C2B068FC378DAA952BA7F163C4A11628F55A4DF523B3EF PUSH2 0xCAD PUSH1 0x40 MLOAD SWAP1 JUMP JUMPDEST PUSH1 0x0 SWAP1 LOG4 SWAP1 JUMP JUMPDEST PUSH2 0xCDF PUSH2 0xCC1 PUSH1 0x1 PUSH2 0x9C5 JUMP JUMPDEST PUSH2 0xCD9 PUSH2 0xCCF DUP6 PUSH1 0x3 PUSH2 0x8D8 JUMP JUMPDEST SWAP2 PUSH2 0x1F9 DUP4 PUSH2 0x8F7 JUMP JUMPDEST SWAP1 PUSH2 0xBA4 JUMP JUMPDEST PUSH2 0xC53 JUMP JUMPDEST PUSH2 0xCF0 SWAP1 DUP3 DUP6 DUP2 PUSH2 0x1194 JUMP JUMPDEST PUSH2 0xD19 PUSH2 0xCFD PUSH1 0x1 PUSH2 0x9C5 JUMP JUMPDEST PUSH2 0xCD9 PUSH2 0xD0B DUP9 PUSH1 0x3 PUSH2 0x8D8 JUMP JUMPDEST SWAP2 PUSH2 0xD15 DUP4 PUSH2 0x8F7 JUMP JUMPDEST SUB SWAP1 JUMP JUMPDEST CODESIZE PUSH2 0xC36 JUMP JUMPDEST PUSH2 0xD29 SWAP2 DUP9 PUSH2 0x12E0 JUMP JUMPDEST CODESIZE DUP5 PUSH2 0xC1A JUMP JUMPDEST PUSH2 0xD38 PUSH2 0x98F JUMP JUMPDEST CALLER SWAP1 PUSH2 0xD4C DUP3 JUMPDEST SWAP2 PUSH1 0x1 PUSH1 0x1 PUSH1 0xA0 SHL SUB AND SWAP1 JUMP JUMPDEST SUB PUSH2 0xD54 JUMPI POP JUMP JUMPDEST PUSH4 0x118CDAA7 PUSH1 0xE0 SHL PUSH1 0x0 SWAP1 DUP2 MSTORE PUSH1 0x1 PUSH1 0x1 PUSH1 0xA0 SHL SUB SWAP1 SWAP2 AND PUSH1 0x4 MSTORE PUSH1 0x24 SUB PUSH1 0x0 REVERT JUMPDEST PUSH1 0x0 SWAP2 PUSH2 0xD82 DUP4 PUSH2 0x781 JUMP JUMPDEST SWAP2 PUSH1 0x1 PUSH1 0x1 PUSH1 0xA0 SHL SUB DUP4 AND PUSH1 0x1 PUSH1 0x1 PUSH1 0xA0 SHL SUB DUP3 AND EQ PUSH2 0xDDF JUMPI PUSH2 0xDA7 SWAP2 DUP4 SWAP2 PUSH2 0xBE5 JUMP JUMPDEST PUSH2 0xDB9 PUSH1 0x1 PUSH1 0x1 PUSH1 0xA0 SHL SUB DUP4 AND PUSH2 0xD3F JUMP JUMPDEST SUB PUSH2 0xDC2 JUMPI POP POP JUMP JUMPDEST PUSH4 0x39E35637 PUSH1 0xE1 SHL DUP3 MSTORE PUSH1 0x1 PUSH1 0x1 PUSH1 0xA0 SHL SUB AND PUSH1 0x4 DUP3 ADD MSTORE PUSH1 0x24 SWAP1 REVERT JUMPDEST PUSH4 0x32505749 PUSH1 0xE1 SHL DUP5 MSTORE PUSH1 0x1 PUSH1 0x1 PUSH1 0xA0 SHL SUB DUP4 AND PUSH1 0x4 DUP6 ADD MSTORE PUSH1 0x24 DUP5 REVERT JUMPDEST PUSH2 0xE23 PUSH2 0xE1D PUSH2 0xE0D PUSH1 0x6 PUSH2 0x985 JUMP JUMPDEST PUSH2 0xE18 DUP5 PUSH1 0x6 PUSH2 0xBCE JUMP JUMPDEST PUSH2 0x8CF JUMP JUMPDEST SWAP2 PUSH2 0x8CF JUMP JUMPDEST SWAP1 PUSH32 0x8BE0079C531659141344CD1FD0A4F28419497F9722A3DAAFE3B4186F6B6457E0 PUSH2 0xE4E PUSH1 0x40 MLOAD SWAP1 JUMP JUMPDEST DUP1 DUP1 JUMPDEST SUB SWAP1 LOG3 JUMP JUMPDEST SWAP1 PUSH1 0xFF SWAP1 PUSH2 0xB9A JUMP JUMPDEST SWAP1 PUSH2 0xE6F PUSH2 0x162 PUSH2 0xBBB SWAP3 ISZERO ISZERO SWAP1 JUMP JUMPDEST DUP3 SLOAD PUSH2 0xE56 JUMP JUMPDEST PUSH1 0x0 PUSH2 0xE84 PUSH2 0x25C DUP3 PUSH2 0x781 JUMP JUMPDEST PUSH1 0x1 PUSH1 0x1 PUSH1 0xA0 SHL SUB DUP5 AND EQ PUSH2 0xEE1 JUMPI POP PUSH2 0xE51 PUSH2 0xED7 PUSH2 0xC76 DUP4 PUSH2 0xE18 DUP8 PUSH2 0xED2 DUP9 PUSH2 0xA95 PUSH32 0x17307EAB39AB6107E8899845AD3D59BD9653F200F220920489CA2B5937696C31 SWAP10 PUSH1 0x5 PUSH2 0x8D8 JUMP JUMPDEST PUSH2 0xE5F JUMP JUMPDEST SWAP4 PUSH2 0x184 PUSH1 0x40 MLOAD SWAP1 JUMP JUMPDEST PUSH4 0xB611743 PUSH1 0xE3 SHL DUP2 MSTORE PUSH1 0x1 PUSH1 0x1 PUSH1 0xA0 SHL SUB DUP4 AND PUSH1 0x4 DUP3 ADD MSTORE PUSH1 0x24 SWAP1 REVERT JUMPDEST SWAP1 POP MLOAD SWAP1 PUSH2 0x14C DUP3 PUSH2 0x127 JUMP JUMPDEST SWAP1 PUSH1 0x20 DUP3 DUP3 SUB SLT PUSH2 0x13A JUMPI PUSH2 0x162 SWAP2 PUSH2 0xEFF JUMP JUMPDEST PUSH1 0x1 PUSH1 0x1 PUSH1 0xA0 SHL SUB SWAP2 DUP3 AND DUP2 MSTORE SWAP2 AND PUSH1 0x20 DUP3 ADD MSTORE PUSH1 0x40 DUP2 ADD SWAP2 SWAP1 SWAP2 MSTORE PUSH1 0x80 PUSH1 0x60 DUP3 ADD DUP2 SWAP1 MSTORE PUSH2 0x162 SWAP3 SWAP2 ADD SWAP1 PUSH2 0x1C5 JUMP JUMPDEST RETURNDATASIZE ISZERO PUSH2 0xF6B JUMPI PUSH2 0xF60 RETURNDATASIZE PUSH2 0x871 JUMP JUMPDEST SWAP1 RETURNDATASIZE PUSH1 0x0 PUSH1 0x20 DUP5 ADD RETURNDATACOPY JUMP JUMPDEST PUSH1 0x60 SWAP1 JUMP JUMPDEST PUSH1 0x0 SWAP4 SWAP2 SWAP3 DUP4 EXTCODESIZE PUSH2 0xF83 PUSH2 0xA54 DUP8 PUSH2 0x9C5 JUMP JUMPDEST GT PUSH2 0xF90 JUMPI JUMPDEST POP POP POP POP POP JUMP JUMPDEST PUSH1 0x20 SWAP2 PUSH2 0xF9F PUSH2 0xE18 DUP7 PUSH2 0x8CF JUMP JUMPDEST SWAP1 DUP7 CALLER PUSH2 0xFC8 PUSH2 0xFAE PUSH1 0x40 MLOAD SWAP1 JUMP JUMPDEST SWAP8 DUP9 SWAP7 DUP8 SWAP6 DUP7 SWAP5 PUSH4 0xA85BD01 PUSH1 0xE1 SHL DUP7 MSTORE PUSH1 0x4 DUP7 ADD PUSH2 0xF20 JUMP JUMPDEST SUB SWAP3 GAS CALL PUSH1 0x0 SWAP2 DUP2 PUSH2 0x1064 JUMPI JUMPDEST POP PUSH2 0x102B JUMPI POP PUSH2 0xFEA JUMP JUMPDEST CODESIZE DUP1 DUP1 DUP1 DUP1 PUSH2 0xF89 JUMP JUMPDEST PUSH2 0xFF2 PUSH2 0xF51 JUMP JUMPDEST DUP1 MLOAD PUSH2 0x1000 PUSH2 0xA54 DUP6 PUSH2 0x9C5 JUMP JUMPDEST SUB PUSH2 0x1023 JUMPI POP PUSH4 0x32505749 PUSH1 0xE1 SHL DUP3 MSTORE PUSH1 0x1 PUSH1 0x1 PUSH1 0xA0 SHL SUB AND PUSH1 0x4 DUP3 ADD MSTORE PUSH1 0x24 SWAP1 REVERT JUMPDEST DUP1 MLOAD SWAP1 PUSH1 0x20 ADD REVERT JUMPDEST PUSH2 0x103B PUSH4 0xA85BD01 PUSH1 0xE1 SHL PUSH2 0xB0E JUMP JUMPDEST SUB PUSH2 0x1047 JUMPI POP POP PUSH2 0xFE0 JUMP JUMPDEST PUSH4 0x32505749 PUSH1 0xE1 SHL DUP3 MSTORE PUSH1 0x1 PUSH1 0x1 PUSH1 0xA0 SHL SUB AND PUSH1 0x4 DUP3 ADD MSTORE PUSH1 0x24 SWAP1 REVERT JUMPDEST PUSH2 0x1087 SWAP2 SWAP3 POP PUSH1 0x20 RETURNDATASIZE PUSH1 0x20 GT PUSH2 0x108E JUMPI JUMPDEST PUSH2 0x107F DUP2 DUP4 PUSH2 0x47D JUMP JUMPDEST DUP2 ADD SWAP1 PUSH2 0xF0C JUMP JUMPDEST SWAP1 CODESIZE PUSH2 0xFD5 JUMP JUMPDEST POP RETURNDATASIZE PUSH2 0x1075 JUMP JUMPDEST PUSH2 0x162 PUSH2 0x88D JUMP JUMPDEST CALLDATASIZE SWAP1 CALLDATACOPY JUMP JUMPDEST SWAP1 PUSH2 0x14C PUSH2 0x10B8 PUSH2 0x10B2 DUP5 PUSH2 0x871 JUMP JUMPDEST SWAP4 PUSH2 0x4B8 JUMP JUMPDEST PUSH1 0x1F NOT ADD PUSH1 0x20 DUP5 ADD PUSH2 0x109D JUMP JUMPDEST PUSH4 0x4E487B71 PUSH1 0xE0 SHL PUSH1 0x0 MSTORE PUSH1 0x12 PUSH1 0x4 MSTORE PUSH1 0x24 PUSH1 0x0 REVERT JUMPDEST DUP2 ISZERO PUSH2 0x10E5 JUMPI DIV SWAP1 JUMP JUMPDEST PUSH2 0x10C5 JUMP JUMPDEST PUSH2 0x10F3 DUP2 PUSH2 0x1340 JUMP JUMPDEST SWAP1 PUSH2 0x1104 PUSH1 0x1 SWAP3 PUSH2 0x1F9 PUSH1 0x1 PUSH2 0x9C5 JUMP JUMPDEST SWAP2 DUP1 PUSH2 0x110F DUP5 PUSH2 0x10A2 JUMP JUMPDEST SWAP4 PUSH1 0x20 ADD DUP5 ADD SWAP1 JUMPDEST PUSH2 0x1122 JUMPI JUMPDEST POP POP POP SWAP1 JUMP JUMPDEST DUP2 ISZERO PUSH2 0x1178 JUMPI PUSH2 0x115C SWAP1 PUSH1 0x0 NOT ADD SWAP3 PUSH16 0x181899199A1A9B1B9C1CB0B131B232B3 PUSH1 0x81 SHL PUSH1 0xA DUP3 MOD BYTE DUP5 MSTORE8 PUSH2 0x1156 PUSH1 0xA PUSH2 0x9C5 JUMP JUMPDEST SWAP1 PUSH2 0x10DB JUMP JUMPDEST SWAP1 DUP2 PUSH2 0x116B PUSH2 0xA54 PUSH1 0x0 PUSH2 0x9C5 JUMP JUMPDEST EQ PUSH2 0x1178 JUMPI SWAP1 SWAP2 DUP2 PUSH2 0x1117 JUMP JUMPDEST PUSH2 0x111C JUMP JUMPDEST PUSH2 0xB82 PUSH2 0x162 SWAP2 PUSH2 0x118C PUSH1 0x0 SWAP1 JUMP JUMPDEST POP PUSH1 0x2 PUSH2 0xB61 JUMP JUMPDEST SWAP3 SWAP2 SWAP1 SWAP2 DUP1 DUP2 ISZERO PUSH2 0x12A4 JUMPI JUMPDEST PUSH2 0x11B6 JUMPI JUMPDEST POP POP SWAP1 PUSH2 0xC62 PUSH2 0x14C SWAP3 PUSH1 0x4 PUSH2 0xB61 JUMP JUMPDEST PUSH2 0x11BF DUP4 PUSH2 0xB20 JUMP JUMPDEST SWAP2 PUSH1 0x0 SWAP1 PUSH2 0x11CF PUSH2 0x25C DUP4 PUSH2 0x781 JUMP JUMPDEST PUSH1 0x1 PUSH1 0x1 PUSH1 0xA0 SHL SUB DUP3 AND EQ ISZERO DUP1 PUSH2 0x1288 JUMPI JUMPDEST DUP1 PUSH2 0x1271 JUMPI JUMPDEST PUSH2 0x1254 JUMPI POP POP SWAP2 PUSH2 0xC62 SWAP2 PUSH2 0x14C SWAP5 SWAP4 PUSH2 0x1204 JUMPI JUMPDEST POP SWAP2 SWAP3 PUSH2 0x11A5 JUMP JUMPDEST PUSH2 0x120D SWAP1 PUSH2 0x8CF JUMP JUMPDEST PUSH2 0x1216 DUP5 PUSH2 0x8CF JUMP JUMPDEST PUSH2 0x121F DUP4 PUSH2 0x9C5 JUMP JUMPDEST SWAP2 PUSH32 0x8C5BE1E5EBEC7D5BD14F71427D1E84F3DD0314C0F7B2291E5B200AC8C7C3B925 PUSH2 0x124A PUSH1 0x40 MLOAD SWAP1 JUMP JUMPDEST PUSH1 0x0 SWAP1 LOG4 CODESIZE PUSH2 0x11FC JUMP JUMPDEST PUSH4 0xA9FBF51F PUSH1 0xE0 SHL DUP3 MSTORE PUSH1 0x1 PUSH1 0x1 PUSH1 0xA0 SHL SUB AND PUSH1 0x4 DUP3 ADD MSTORE PUSH1 0x24 SWAP1 REVERT JUMPDEST POP PUSH2 0x1283 PUSH2 0x127F DUP3 DUP7 PUSH2 0xA7A JUMP JUMPDEST ISZERO SWAP1 JUMP JUMPDEST PUSH2 0x11E7 JUMP JUMPDEST POP PUSH1 0x1 PUSH1 0x1 PUSH1 0xA0 SHL SUB DUP2 AND PUSH1 0x1 PUSH1 0x1 PUSH1 0xA0 SHL SUB DUP6 AND EQ ISZERO PUSH2 0x11E1 JUMP JUMPDEST POP PUSH2 0x12B2 PUSH2 0x25C PUSH1 0x0 PUSH2 0x781 JUMP JUMPDEST PUSH1 0x1 PUSH1 0x1 PUSH1 0xA0 SHL SUB DUP4 AND EQ ISZERO PUSH2 0x11A0 JUMP JUMPDEST PUSH1 0x1 PUSH1 0x1 PUSH1 0xA0 SHL SUB SWAP1 SWAP2 AND DUP2 MSTORE PUSH1 0x40 DUP2 ADD SWAP3 SWAP2 PUSH2 0x14C SWAP2 PUSH1 0x20 ADD MSTORE JUMP JUMPDEST SWAP1 PUSH2 0x12EF PUSH2 0x127F DUP5 DUP4 DUP6 PUSH2 0x14E2 JUMP JUMPDEST PUSH2 0x12F8 JUMPI POP POP POP JUMP JUMPDEST PUSH1 0x0 SWAP3 DUP4 SWAP3 PUSH2 0x130C PUSH2 0xD3F PUSH2 0x25C DUP7 PUSH2 0x781 JUMP JUMPDEST SUB PUSH2 0x1329 JUMPI PUSH4 0x7E273289 PUSH1 0xE0 SHL DUP4 MSTORE PUSH1 0x4 DUP4 ADD MSTORE POP PUSH1 0x24 DUP2 ADD SUB SWAP1 REVERT JUMPDEST PUSH4 0x177E802F PUSH1 0xE0 SHL DUP4 MSTORE PUSH2 0x82F SWAP2 PUSH1 0x4 DUP5 ADD PUSH2 0x12C3 JUMP JUMPDEST PUSH2 0x134A PUSH1 0x0 PUSH2 0x9C5 JUMP JUMPDEST SWAP1 PUSH27 0x184F03E93FF9F4DAA797ED6E38ED64BF6A1F010000000000000000 PUSH2 0x1370 DUP2 PUSH2 0x9C5 JUMP JUMPDEST DUP3 LT ISZERO PUSH2 0x14C0 JUMPI JUMPDEST POP PUSH14 0x4EE2D6D415B85ACEF8100000000 PUSH2 0x1391 DUP2 PUSH2 0x9C5 JUMP JUMPDEST DUP3 LT ISZERO PUSH2 0x149E JUMPI JUMPDEST POP PUSH7 0x2386F26FC10000 PUSH2 0x13AB DUP2 PUSH2 0x9C5 JUMP JUMPDEST DUP3 LT ISZERO PUSH2 0x147C JUMPI JUMPDEST POP PUSH4 0x5F5E100 PUSH2 0x13C2 DUP2 PUSH2 0x9C5 JUMP JUMPDEST DUP3 LT ISZERO PUSH2 0x145A JUMPI JUMPDEST POP PUSH2 0x2710 PUSH2 0x13D7 DUP2 PUSH2 0x9C5 JUMP JUMPDEST DUP3 LT ISZERO PUSH2 0x1438 JUMPI JUMPDEST POP PUSH2 0x13EA PUSH1 0x64 PUSH2 0x9C5 JUMP JUMPDEST DUP2 LT ISZERO PUSH2 0x1416 JUMPI JUMPDEST PUSH2 0x13FF PUSH2 0xA54 PUSH1 0xA PUSH2 0x9C5 JUMP JUMPDEST LT ISZERO PUSH2 0x1408 JUMPI SWAP1 JUMP JUMPDEST PUSH2 0x162 SWAP1 PUSH2 0x1F9 PUSH1 0x1 PUSH2 0x9C5 JUMP JUMPDEST PUSH2 0x1427 PUSH2 0x1432 SWAP2 PUSH2 0x1156 PUSH1 0x64 PUSH2 0x9C5 JUMP JUMPDEST SWAP2 PUSH2 0x1F9 PUSH1 0x2 PUSH2 0x9C5 JUMP JUMPDEST SWAP1 PUSH2 0x13F2 JUMP JUMPDEST PUSH2 0x1453 SWAP2 PUSH2 0x1156 PUSH2 0x1448 SWAP3 PUSH2 0x9C5 JUMP JUMPDEST SWAP2 PUSH2 0x1F9 PUSH1 0x4 PUSH2 0x9C5 JUMP JUMPDEST SWAP1 CODESIZE PUSH2 0x13DF JUMP JUMPDEST PUSH2 0x1475 SWAP2 PUSH2 0x1156 PUSH2 0x146A SWAP3 PUSH2 0x9C5 JUMP JUMPDEST SWAP2 PUSH2 0x1F9 PUSH1 0x8 PUSH2 0x9C5 JUMP JUMPDEST SWAP1 CODESIZE PUSH2 0x13CA JUMP JUMPDEST PUSH2 0x1497 SWAP2 PUSH2 0x1156 PUSH2 0x148C SWAP3 PUSH2 0x9C5 JUMP JUMPDEST SWAP2 PUSH2 0x1F9 PUSH1 0x10 PUSH2 0x9C5 JUMP JUMPDEST SWAP1 CODESIZE PUSH2 0x13B3 JUMP JUMPDEST PUSH2 0x14B9 SWAP2 PUSH2 0x1156 PUSH2 0x14AE SWAP3 PUSH2 0x9C5 JUMP JUMPDEST SWAP2 PUSH2 0x1F9 PUSH1 0x20 PUSH2 0x9C5 JUMP JUMPDEST SWAP1 CODESIZE PUSH2 0x1399 JUMP JUMPDEST PUSH2 0x14DB SWAP2 PUSH2 0x1156 PUSH2 0x14D0 SWAP3 PUSH2 0x9C5 JUMP JUMPDEST SWAP2 PUSH2 0x1F9 PUSH1 0x40 PUSH2 0x9C5 JUMP JUMPDEST SWAP1 CODESIZE PUSH2 0x1378 JUMP JUMPDEST SWAP1 PUSH2 0x14F0 PUSH2 0x25C PUSH1 0x0 PUSH2 0x781 JUMP JUMPDEST PUSH1 0x1 PUSH1 0x1 PUSH1 0xA0 SHL SUB DUP3 AND EQ ISZERO SWAP3 DUP4 PUSH2 0x1508 JUMPI POP POP POP SWAP1 JUMP JUMPDEST SWAP2 SWAP3 POP SWAP1 PUSH1 0x1 PUSH1 0x1 PUSH1 0xA0 SHL SUB DUP3 AND PUSH1 0x1 PUSH1 0x1 PUSH1 0xA0 SHL SUB DUP5 AND EQ SWAP3 DUP4 ISZERO PUSH2 0x1562 JUMPI JUMPDEST POP DUP3 ISZERO PUSH2 0x153B JUMPI JUMPDEST POP POP CODESIZE DUP1 DUP1 PUSH2 0x111C JUMP JUMPDEST PUSH2 0x155A SWAP2 SWAP3 POP PUSH2 0x154D PUSH2 0xD3F SWAP2 PUSH2 0xB6B JUMP JUMPDEST SWAP3 PUSH1 0x1 PUSH1 0x1 PUSH1 0xA0 SHL SUB AND SWAP1 JUMP JUMPDEST EQ CODESIZE DUP1 PUSH2 0x1531 JUMP JUMPDEST PUSH2 0x156F SWAP2 SWAP4 POP DUP3 SWAP1 PUSH2 0xA7A JUMP JUMPDEST SWAP2 CODESIZE PUSH2 0x1529 JUMP INVALID LOG2 PUSH5 0x6970667358 0x22 SLT KECCAK256 SAR 0xC7 RETURNDATASIZE PUSH28 0xACC67E2B3A84570D84380B8F79B3FE0EA6207507DDDFD1413EB09A37 PUSH5 0x736F6C6343 STOP ADDMOD BYTE STOP CALLER "
        },
        "methodIdentifiers": {
          "approve(address,uint256)": "095ea7b3",
          "balanceOf(address)": "70a08231",
          "getApproved(uint256)": "081812fc",
          "isApprovedForAll(address,address)": "e985e9c5",
          "mint(address,uint256)": "40c10f19",
          "name()": "06fdde03",
          "owner()": "8da5cb5b",
          "ownerOf(uint256)": "6352211e",
          "renounceOwnership()": "715018a6",
          "safeTransferFrom(address,address,uint256)": "42842e0e",
          "safeTransferFrom(address,address,uint256,bytes)": "b88d4fde",
          "setApprovalForAll(address,bool)": "a22cb465",
          "supportsInterface(bytes4)": "01ffc9a7",
          "symbol()": "95d89b41",
          "tokenURI(uint256)": "c87b56dd",
          "transferFrom(address,address,uint256)": "23b872dd",
          "transferOwnership(address)": "f2fde38b"
        }
      }
    }
  }
}