{
  "contracts/BulkSender.sol": {
    "BulkSender": {
      "abi": [
        {
          "inputs": [
            {
              "internalType": "address",
              "name": "_receiverAddress",
              "type": "address"
            }
          ],
          "stateMutability": "nonpayable",
          "type": "constructor"
        },
        {
          "inputs": [],
          "name": "AlreadyContract",
          "type": "error"
        },
        {
          "inputs": [],
          "name": "AlreadyNormalAddress",
          "type": "error"
        },
        {
          "inputs": [],
          "name": "AlreadyOwner",
          "type": "error"
        },
        {
          "inputs": [],
          "name": "AlreadyToken",
          "type": "error"
        },
        {
          "inputs": [],
          "name": "AlreadyVIP",
          "type": "error"
        },
        {
          "inputs": [
            {
              "internalType": "address",
              "name": "token",
              "type": "address"
            },
            {
              "internalType": "uint256",
              "name": "available",
              "type": "uint256"
            },
            {
              "internalType": "uint256",
              "name": "required",
              "type": "uint256"
            }
          ],
          "name": "InsufficientAllowance",
          "type": "error"
        },
        {
          "inputs": [
            {
              "internalType": "uint256",
              "name": "available",
              "type": "uint256"
            },
            {
              "internalType": "uint256",
              "name": "required",
              "type": "uint256"
            }
          ],
          "name": "InsufficientFunds",
          "type": "error"
        },
        {
          "inputs": [],
          "name": "InvalidInput",
          "type": "error"
        },
        {
          "inputs": [],
          "name": "NotAllowedAccount",
          "type": "error"
        },
        {
          "inputs": [],
          "name": "NotContract",
          "type": "error"
        },
        {
          "inputs": [
            {
              "internalType": "uint256",
              "name": "available",
              "type": "uint256"
            },
            {
              "internalType": "uint256",
              "name": "required",
              "type": "uint256"
            }
          ],
          "name": "NotEnoughEther",
          "type": "error"
        },
        {
          "inputs": [
            {
              "internalType": "uint256",
              "name": "available",
              "type": "uint256"
            },
            {
              "internalType": "uint256",
              "name": "required",
              "type": "uint256"
            }
          ],
          "name": "NotEnoughTokens",
          "type": "error"
        },
        {
          "inputs": [],
          "name": "NotNormalAddress",
          "type": "error"
        },
        {
          "inputs": [],
          "name": "NotOwner",
          "type": "error"
        },
        {
          "inputs": [],
          "name": "NotToken",
          "type": "error"
        },
        {
          "inputs": [],
          "name": "NotVIP",
          "type": "error"
        },
        {
          "inputs": [
            {
              "internalType": "address",
              "name": "owner",
              "type": "address"
            }
          ],
          "name": "OwnableInvalidOwner",
          "type": "error"
        },
        {
          "inputs": [
            {
              "internalType": "address",
              "name": "account",
              "type": "address"
            }
          ],
          "name": "OwnableUnauthorizedAccount",
          "type": "error"
        },
        {
          "inputs": [],
          "name": "Unauthorized",
          "type": "error"
        },
        {
          "inputs": [],
          "name": "ZeroAddress",
          "type": "error"
        },
        {
          "anonymous": false,
          "inputs": [
            {
              "indexed": false,
              "internalType": "address",
              "name": "token",
              "type": "address"
            },
            {
              "indexed": false,
              "internalType": "address",
              "name": "receiver",
              "type": "address"
            },
            {
              "indexed": false,
              "internalType": "uint256",
              "name": "balance",
              "type": "uint256"
            }
          ],
          "name": "LogGetToken",
          "type": "event"
        },
        {
          "anonymous": false,
          "inputs": [
            {
              "indexed": false,
              "internalType": "address",
              "name": "token",
              "type": "address"
            },
            {
              "indexed": false,
              "internalType": "uint256",
              "name": "total",
              "type": "uint256"
            }
          ],
          "name": "LogTokenBulkSent",
          "type": "event"
        },
        {
          "anonymous": false,
          "inputs": [
            {
              "indexed": false,
              "internalType": "address",
              "name": "sender",
              "type": "address"
            },
            {
              "indexed": false,
              "internalType": "uint256",
              "name": "value",
              "type": "uint256"
            }
          ],
          "name": "LogViPRegistered",
          "type": "event"
        },
        {
          "anonymous": false,
          "inputs": [
            {
              "indexed": true,
              "internalType": "address",
              "name": "previousOwner",
              "type": "address"
            },
            {
              "indexed": true,
              "internalType": "address",
              "name": "newOwner",
              "type": "address"
            }
          ],
          "name": "OwnershipTransferred",
          "type": "event"
        },
        {
          "inputs": [],
          "name": "VIPFee",
          "outputs": [
            {
              "internalType": "uint256",
              "name": "",
              "type": "uint256"
            }
          ],
          "stateMutability": "view",
          "type": "function"
        },
        {
          "inputs": [
            {
              "internalType": "address",
              "name": "_tokenAddress",
              "type": "address"
            },
            {
              "internalType": "address[]",
              "name": "_receivers",
              "type": "address[]"
            },
            {
              "internalType": "uint256[]",
              "name": "_tokenIds",
              "type": "uint256[]"
            },
            {
              "internalType": "uint256[]",
              "name": "_values",
              "type": "uint256[]"
            }
          ],
          "name": "bulkTransferERC1155",
          "outputs": [],
          "stateMutability": "payable",
          "type": "function"
        },
        {
          "inputs": [
            {
              "internalType": "address",
              "name": "_tokenAddress",
              "type": "address"
            },
            {
              "internalType": "address[]",
              "name": "_receivers",
              "type": "address[]"
            },
            {
              "internalType": "uint256[]",
              "name": "_values",
              "type": "uint256[]"
            }
          ],
          "name": "bulkTransferERC20",
          "outputs": [],
          "stateMutability": "payable",
          "type": "function"
        },
        {
          "inputs": [
            {
              "internalType": "address",
              "name": "_tokenAddress",
              "type": "address"
            },
            {
              "internalType": "address[]",
              "name": "_receivers",
              "type": "address[]"
            },
            {
              "internalType": "uint256",
              "name": "_value",
              "type": "uint256"
            }
          ],
          "name": "bulkTransferERC20",
          "outputs": [],
          "stateMutability": "payable",
          "type": "function"
        },
        {
          "inputs": [
            {
              "internalType": "address",
              "name": "_tokenAddress",
              "type": "address"
            },
            {
              "internalType": "address[]",
              "name": "_receivers",
              "type": "address[]"
            },
            {
              "internalType": "uint256[]",
              "name": "_tokenIds",
              "type": "uint256[]"
            }
          ],
          "name": "bulkTransferERC721",
          "outputs": [],
          "stateMutability": "payable",
          "type": "function"
        },
        {
          "inputs": [
            {
              "internalType": "address",
              "name": "_addr",
              "type": "address"
            }
          ],
          "name": "isVIP",
          "outputs": [
            {
              "internalType": "bool",
              "name": "",
              "type": "bool"
            }
          ],
          "stateMutability": "view",
          "type": "function"
        },
        {
          "inputs": [],
          "name": "owner",
          "outputs": [
            {
              "internalType": "address",
              "name": "",
              "type": "address"
            }
          ],
          "stateMutability": "view",
          "type": "function"
        },
        {
          "inputs": [],
          "name": "receiverAddress",
          "outputs": [
            {
              "internalType": "address",
              "name": "",
              "type": "address"
            }
          ],
          "stateMutability": "view",
          "type": "function"
        },
        {
          "inputs": [],
          "name": "registerVIP",
          "outputs": [],
          "stateMutability": "payable",
          "type": "function"
        },
        {
          "inputs": [
            {
              "internalType": "address[]",
              "name": "_vipList",
              "type": "address[]"
            }
          ],
          "name": "removeFromVIPList",
          "outputs": [],
          "stateMutability": "nonpayable",
          "type": "function"
        },
        {
          "inputs": [],
          "name": "renounceOwnership",
          "outputs": [],
          "stateMutability": "nonpayable",
          "type": "function"
        },
        {
          "inputs": [
            {
              "internalType": "address",
              "name": "_addr",
              "type": "address"
            }
          ],
          "name": "setReceiverAddress",
          "outputs": [],
          "stateMutability": "nonpayable",
          "type": "function"
        },
        {
          "inputs": [
            {
              "internalType": "uint256",
              "name": "_fee",
              "type": "uint256"
            }
          ],
          "name": "setTxFee",
          "outputs": [],
          "stateMutability": "nonpayable",
          "type": "function"
        },
        {
          "inputs": [
            {
              "internalType": "uint256",
              "name": "_fee",
              "type": "uint256"
            }
          ],
          "name": "setVIPFee",
          "outputs": [],
          "stateMutability": "nonpayable",
          "type": "function"
        },
        {
          "inputs": [
            {
              "internalType": "address",
              "name": "newOwner",
              "type": "address"
            }
          ],
          "name": "transferOwnership",
          "outputs": [],
          "stateMutability": "nonpayable",
          "type": "function"
        },
        {
          "inputs": [],
          "name": "txFee",
          "outputs": [
            {
              "internalType": "uint256",
              "name": "",
              "type": "uint256"
            }
          ],
          "stateMutability": "view",
          "type": "function"
        },
        {
          "inputs": [
            {
              "internalType": "address",
              "name": "",
              "type": "address"
            }
          ],
          "name": "vipList",
          "outputs": [
            {
              "internalType": "bool",
              "name": "",
              "type": "bool"
            }
          ],
          "stateMutability": "view",
          "type": "function"
        }
      ],
      "evm": {
        "bytecode": {
          "linkReferences": {},
          "object": "60806040523461002a576100196100146100c2565b610164565b604051611183610286823961118390f35b600080fd5b634e487b7160e01b600052604160045260246000fd5b90601f01601f191681019081106001600160401b0382111761006657604052565b61002f565b9061007f61007860405190565b9283610045565b565b6001600160a01b031690565b90565b6001600160a01b0381160361002a57565b9050519061007f82610090565b9060208282031261002a5761008d916100a1565b61008d611409803803806100d58161006b565b9283398101906100ae565b90600019905b9181191691161790565b61008d61008d61008d9290565b9061010d61008d610114926100f0565b82546100e0565b9055565b906001600160a01b03906100e6565b61008d90610081906001600160a01b031682565b61008d90610127565b61008d9061013b565b9061015d61008d61011492610144565b8254610118565b61007f906101713361019d565b610183662386f26fc1000060026100fd565b61019667016345785d8a000060036100fd565b600161014d565b61007f906101cf565b61008161008d61008d9290565b61008d906101a6565b6001600160a01b03909116815260200190565b60006101da816101b3565b6001600160a01b0381166001600160a01b038416146101fe57505061007f9061022e565b631e4fbdf760e01b8252819061021790600483016101bc565b0390fd5b61008d90610081565b61008d905461021b565b61025461024e61023e6000610224565b61024984600061014d565b610144565b91610144565b907f8be0079c531659141344cd1fd0a4f28419497f9722a3daafe3b4186f6b6457e061027f60405190565b600090a356fe6080604052600436101561001257600080fd5b60003560e01c806316fed3e2146101225780633d06242a1461011d5780633e46cd5314610118578063627d1e5014610113578063715018a61461010e5780638164ad0e146101095780638279c7db146101045780638ce632e8146100ff5780638da5cb5b146100fa5780639c1f6133146100f5578063aa168b47146100f0578063cf820461146100eb578063f05d16f7146100e6578063f0a0a299146100e1578063f2fde38b146100dc578063f4201c3c146100d75763f48d11af03610132576105a8565b610567565b61054f565b610534565b610510565b6104e5565b610496565b610416565b6103fb565b6103e4565b610387565b61035c565b610344565b61032a565b610297565b6101da565b610185565b600091031261013257565b600080fd5b61014c916008021c5b6001600160a01b031690565b90565b9061014c9154610137565b61014c6000600161014f565b61016f90610140565b9052565b6020810192916101839190610166565b565b3461013257610195366004610127565b6101ac6101a061015a565b60405191829182610173565b0390f35b805b0361013257565b90503590610183826101b0565b906020828203126101325761014c916101b9565b34610132576101f26101ed3660046101c6565b610615565b604051005b6101b281610140565b90503590610183826101f7565b909182601f830112156101325781359167ffffffffffffffff831161013257602001926020830284011161013257565b606081830312610132576102518282610200565b92602082013567ffffffffffffffff8111610132578361027291840161020d565b929093604082013567ffffffffffffffff811161013257610293920161020d565b9091565b6101f26102a536600461023d565b93929092610929565b919091608081840312610132576102c58382610200565b92602082013567ffffffffffffffff811161013257816102e691840161020d565b929093604082013567ffffffffffffffff8111610132578361030991840161020d565b929093606082013567ffffffffffffffff811161013257610293920161020d565b6101f26103383660046102ae565b95949094939193610b3b565b3461013257610354366004610127565b6101f2610b82565b6101f261036a36600461023d565b93929092610ccd565b906020828203126101325761014c91610200565b34610132576101f261039a366004610373565b610d48565b90606082820312610132576103b48183610200565b92602083013567ffffffffffffffff811161013257826103db60409461014c93870161020d565b949095016101b9565b6101f26103f236600461039f565b92919091610e7a565b346101325761040b366004610127565b6101ac6101a0610e86565b610421366004610127565b6101f2610efd565b61014c90610140906001600160a01b031682565b61014c90610429565b61014c9061043d565b9061045990610446565b600052602052604060002090565b61014c916008021c5b60ff1690565b9061014c9154610467565b600061049161014c92600461044f565b610476565b34610132576101ac6104b16104ac366004610373565b610481565b60405191829182901515815260200190565b61014c916008021c81565b9061014c91546104c3565b61014c600060026104ce565b34610132576104f5366004610127565b6101ac6105006104d9565b6040519182918290815260200190565b34610132576101f26105233660046101c6565b610fc8565b61014c600060036104ce565b3461013257610544366004610127565b6101ac610500610528565b34610132576101f2610562366004610373565b611027565b34610132576101ac6104b161057d366004610373565b611043565b9060208282031261013257813567ffffffffffffffff811161013257610293920161020d565b34610132576101f26105bb366004610582565b906110b4565b610183906105cd6110be565b61060a565b90600019905b9181191691161790565b61014c61014c61014c9290565b906105ff61014c610606926105e2565b82546105d2565b9055565b6101839060036105ef565b610183906105c1565b61014c9081565b61014c905461061e565b1561063657565b6332eaa48760e11b6000908152600490fd5b036000fd5b61014c90610140565b61014c905461064d565b6040513d6000823e3d90fd5b9392919061067933611043565b80156106e1575b6106899061062f565b61069961069533611043565b1590565b6106a7575b61018394610803565b60008080806106c16106bc6106bc6001610656565b610446565b819034156106d7575b3491f161069e575b610660565b6108fc91506106ca565b506106896106f261014c6002610625565b3410159050610680565b1561070357565b63b4fa3fb360e01b6000908152600490fd5b634e487b7160e01b600052603260045260246000fd5b919081101561073b576020020190565b610715565b3561014c816101f7565b3561014c816101b0565b634e487b7160e01b600052604160045260246000fd5b90601f01601f1916810190811067ffffffffffffffff82111761078c57604052565b610754565b8015156101b2565b9050519061018382610791565b906020828203126101325761014c91610799565b6040906107e461018394969593966107da60608401986000850190610166565b6020830190610166565b0152565b9160206101839294936107e460408201966000830190610166565b93909291809561081583885b146106fc565b61081e86610446565b9060009761082c60006105e2565b818110156108e4578060208b8a8a61086e610869868d61086361085e8f9b8f9c6108586108989e610446565b9961072b565b610740565b9461072b565b61074a565b9261087860405190565b80978195829461088c6323b872dd60e01b90565b845233600485016107ba565b03925af19182156106d2576108b3926108b8575b5060010190565b61082c565b6108d89060203d81116108dd575b6108d0818361076a565b8101906107a6565b6108ac565b503d6108c6565b5095509650505050507fe4e3577249108daaa0a07e6d9aabc5fef8e89ec09da3f9dccfe7ef215e4efc129161092461091b60405190565b928392836107e8565b0390a1565b906101839493929161066c565b95949392919061094533611043565b80156109a3575b6109559061062f565b61096161069533611043565b61096f575b61018396610a0b565b60008080806109846106bc6106bc6001610656565b81903415610999575b3491f161096657610660565b6108fc915061098d565b506109556109b461014c6002610625565b341015905061094c565b91936109f26109f992946109eb61014c976109e160a08801986000890190610166565b6020870190610166565b6040850152565b6060830152565b60808183039101526000815260200190565b949694959293909291809582871480610b32575b610a28906106fc565b610a3188610446565b90600097610a3f60006105e2565b81811015610af957808989610a7b8f94808c610a75610869838f8f8f6108699861085892610a6f61085e93610446565b9c61072b565b9761072b565b90803b1561013257610aae948e8094610a9360405190565b97889586948593637921219560e11b855233600486016109be565b03925af19182156106d257610ac892610acd575060010190565b610a3f565b610aec908c8d3d10610af2575b610ae4818361076a565b810190610127565b386108ac565b503d610ada565b50975098505050505050507fe4e3577249108daaa0a07e6d9aabc5fef8e89ec09da3f9dccfe7ef215e4efc129161092461091b60405190565b50868414610a1f565b90610183969594939291610936565b610b526110be565b610183610b70565b61014061014c61014c9290565b61014c90610b5a565b610183610b7d6000610b67565b6110fb565b610183610b4a565b93929190610b9733611043565b8015610bf5575b610ba79061062f565b610bb361069533611043565b610bc1575b61018394610c10565b6000808080610bd66106bc6106bc6001610656565b81903415610beb575b3491f1610bb857610660565b6108fc9150610bdf565b50610ba7610c0661014c6002610625565b3410159050610b9e565b9390949291610c1c8190565b93610c27838661080f565b610c3086610446565b90600095610c3e60006105e2565b818110156108e45780610c5f61085e8c9388610c5989610446565b9561072b565b610c6d610869838a8c61072b565b833b1561013257610c98938b9283610c8460405190565b80978195829461088c6342842e0e60e01b90565b03925af19182156106d257610cb292610cb7575060010190565b610c3e565b610aec908a3d8c11610af257610ae4818361076a565b9061018394939291610b8a565b61018390610ce66110be565b610d18565b1561013257565b906001600160a01b03906105d8565b90610d1161014c61060692610446565b8254610cf2565b61018390610d41610d31610d2c6000610b67565b610140565b610d3a83610140565b1415610ceb565b6001610d01565b61018390610cda565b929190610d5d33611043565b8015610dbb575b610d6d9061062f565b610d7961069533611043565b610d87575b61018393610dd6565b6000808080610d9c6106bc6106bc6001610656565b81903415610db1575b3491f1610d7e57610660565b6108fc9150610da5565b50610d6d610dcc61014c6002610625565b3410159050610d64565b9291610de184610446565b600095610dee60006105e2565b83811015610e3d57610e1e90602087610e0686610446565b610e1461085e858a8c61072b565b8c61087860405190565b03925af19182156106d257610e38926108b8575060010190565b610dee565b509550507fe4e3577249108daaa0a07e6d9aabc5fef8e89ec09da3f9dccfe7ef215e4efc12939250610e6d915090565b9061092461091b60405190565b90610183939291610d51565b61014c6000610656565b9081526040810192916101839160200152565b15610eac575050565b62fae2d560e21b600090815291610648916004610e90565b15610ecb57565b63024b964d60e01b6000908152600490fd5b9060ff906105d8565b90610ef661014c61060692151590565b8254610edd565b610f22610f0d61014c6003610625565b341015610f1a6003610625565b903490610ea3565b610f36610f3161069533611043565b610ec4565b6000808080610f4b6106bc6106bc6001610656565b81903415610fa7575b3491f1156106d257610f716001610f6c33600461044f565b610ee6565b7f6252330b8ac495908d7082dbcf6cd547affff5896884e8cb9c40d1b216f9f8e8610f9b60405190565b806109243433836107e8565b6108fc9150610f54565b61018390610fbd6110be565b6101839060026105ef565b61018390610fb1565b61018390610fdd6110be565b6000610fe881610b67565b610ff181610140565b610ffa84610140565b1461100a575050610183906110fb565b631e4fbdf760e01b825281906110239060048301610173565b0390fd5b61018390610fd1565b61014c90610470565b61014c9054611030565b61105a61014c91611052600090565b50600461044f565b611039565b906101839161106c6110be565b60009291611079846105e2565b818110156110ad576110a8906110a286610f6c600461109c61085e86898b61072b565b9061044f565b60010190565b611079565b5050509050565b906101839161105f565b6110c6610e86565b33906110da6110d483610140565b91610140565b036110e25750565b63118cdaa760e01b600090815290610648906004610173565b61111c61111661110b6000610656565b6106bc846000610d01565b91610446565b907f8be0079c531659141344cd1fd0a4f28419497f9722a3daafe3b4186f6b6457e061114760405190565b600090a356fea2646970667358221220c1c6b0b14a4294500673e462b77a20fa048f6a33dacf87b9f556d8a3755969be64736f6c634300081a0033",
          "opcodes": "PUSH1 0x80 PUSH1 0x40 MSTORE CALLVALUE PUSH2 0x2A JUMPI PUSH2 0x19 PUSH2 0x14 PUSH2 0xC2 JUMP JUMPDEST PUSH2 0x164 JUMP JUMPDEST PUSH1 0x40 MLOAD PUSH2 0x1183 PUSH2 0x286 DUP3 CODECOPY PUSH2 0x1183 SWAP1 RETURN JUMPDEST PUSH1 0x0 DUP1 REVERT JUMPDEST PUSH4 0x4E487B71 PUSH1 0xE0 SHL PUSH1 0x0 MSTORE PUSH1 0x41 PUSH1 0x4 MSTORE PUSH1 0x24 PUSH1 0x0 REVERT JUMPDEST SWAP1 PUSH1 0x1F ADD PUSH1 0x1F NOT AND DUP2 ADD SWAP1 DUP2 LT PUSH1 0x1 PUSH1 0x1 PUSH1 0x40 SHL SUB DUP3 GT OR PUSH2 0x66 JUMPI PUSH1 0x40 MSTORE JUMP JUMPDEST PUSH2 0x2F JUMP JUMPDEST SWAP1 PUSH2 0x7F PUSH2 0x78 PUSH1 0x40 MLOAD SWAP1 JUMP JUMPDEST SWAP3 DUP4 PUSH2 0x45 JUMP JUMPDEST JUMP JUMPDEST PUSH1 0x1 PUSH1 0x1 PUSH1 0xA0 SHL SUB AND SWAP1 JUMP JUMPDEST SWAP1 JUMP JUMPDEST PUSH1 0x1 PUSH1 0x1 PUSH1 0xA0 SHL SUB DUP2 AND SUB PUSH2 0x2A JUMPI JUMP JUMPDEST SWAP1 POP MLOAD SWAP1 PUSH2 0x7F DUP3 PUSH2 0x90 JUMP JUMPDEST SWAP1 PUSH1 0x20 DUP3 DUP3 SUB SLT PUSH2 0x2A JUMPI PUSH2 0x8D SWAP2 PUSH2 0xA1 JUMP JUMPDEST PUSH2 0x8D PUSH2 0x1409 DUP1 CODESIZE SUB DUP1 PUSH2 0xD5 DUP2 PUSH2 0x6B JUMP JUMPDEST SWAP3 DUP4 CODECOPY DUP2 ADD SWAP1 PUSH2 0xAE JUMP JUMPDEST SWAP1 PUSH1 0x0 NOT SWAP1 JUMPDEST SWAP2 DUP2 NOT AND SWAP2 AND OR SWAP1 JUMP JUMPDEST PUSH2 0x8D PUSH2 0x8D PUSH2 0x8D SWAP3 SWAP1 JUMP JUMPDEST SWAP1 PUSH2 0x10D PUSH2 0x8D PUSH2 0x114 SWAP3 PUSH2 0xF0 JUMP JUMPDEST DUP3 SLOAD PUSH2 0xE0 JUMP JUMPDEST SWAP1 SSTORE JUMP JUMPDEST SWAP1 PUSH1 0x1 PUSH1 0x1 PUSH1 0xA0 SHL SUB SWAP1 PUSH2 0xE6 JUMP JUMPDEST PUSH2 0x8D SWAP1 PUSH2 0x81 SWAP1 PUSH1 0x1 PUSH1 0x1 PUSH1 0xA0 SHL SUB AND DUP3 JUMP JUMPDEST PUSH2 0x8D SWAP1 PUSH2 0x127 JUMP JUMPDEST PUSH2 0x8D SWAP1 PUSH2 0x13B JUMP JUMPDEST SWAP1 PUSH2 0x15D PUSH2 0x8D PUSH2 0x114 SWAP3 PUSH2 0x144 JUMP JUMPDEST DUP3 SLOAD PUSH2 0x118 JUMP JUMPDEST PUSH2 0x7F SWAP1 PUSH2 0x171 CALLER PUSH2 0x19D JUMP JUMPDEST PUSH2 0x183 PUSH7 0x2386F26FC10000 PUSH1 0x2 PUSH2 0xFD JUMP JUMPDEST PUSH2 0x196 PUSH8 0x16345785D8A0000 PUSH1 0x3 PUSH2 0xFD JUMP JUMPDEST PUSH1 0x1 PUSH2 0x14D JUMP JUMPDEST PUSH2 0x7F SWAP1 PUSH2 0x1CF JUMP JUMPDEST PUSH2 0x81 PUSH2 0x8D PUSH2 0x8D SWAP3 SWAP1 JUMP JUMPDEST PUSH2 0x8D SWAP1 PUSH2 0x1A6 JUMP JUMPDEST PUSH1 0x1 PUSH1 0x1 PUSH1 0xA0 SHL SUB SWAP1 SWAP2 AND DUP2 MSTORE PUSH1 0x20 ADD SWAP1 JUMP JUMPDEST PUSH1 0x0 PUSH2 0x1DA DUP2 PUSH2 0x1B3 JUMP JUMPDEST PUSH1 0x1 PUSH1 0x1 PUSH1 0xA0 SHL SUB DUP2 AND PUSH1 0x1 PUSH1 0x1 PUSH1 0xA0 SHL SUB DUP5 AND EQ PUSH2 0x1FE JUMPI POP POP PUSH2 0x7F SWAP1 PUSH2 0x22E JUMP JUMPDEST PUSH4 0x1E4FBDF7 PUSH1 0xE0 SHL DUP3 MSTORE DUP2 SWAP1 PUSH2 0x217 SWAP1 PUSH1 0x4 DUP4 ADD PUSH2 0x1BC JUMP JUMPDEST SUB SWAP1 REVERT JUMPDEST PUSH2 0x8D SWAP1 PUSH2 0x81 JUMP JUMPDEST PUSH2 0x8D SWAP1 SLOAD PUSH2 0x21B JUMP JUMPDEST PUSH2 0x254 PUSH2 0x24E PUSH2 0x23E PUSH1 0x0 PUSH2 0x224 JUMP JUMPDEST PUSH2 0x249 DUP5 PUSH1 0x0 PUSH2 0x14D JUMP JUMPDEST PUSH2 0x144 JUMP JUMPDEST SWAP2 PUSH2 0x144 JUMP JUMPDEST SWAP1 PUSH32 0x8BE0079C531659141344CD1FD0A4F28419497F9722A3DAAFE3B4186F6B6457E0 PUSH2 0x27F PUSH1 0x40 MLOAD SWAP1 JUMP JUMPDEST PUSH1 0x0 SWAP1 LOG3 JUMP INVALID PUSH1 0x80 PUSH1 0x40 MSTORE PUSH1 0x4 CALLDATASIZE LT ISZERO PUSH2 0x12 JUMPI PUSH1 0x0 DUP1 REVERT JUMPDEST PUSH1 0x0 CALLDATALOAD PUSH1 0xE0 SHR DUP1 PUSH4 0x16FED3E2 EQ PUSH2 0x122 JUMPI DUP1 PUSH4 0x3D06242A EQ PUSH2 0x11D JUMPI DUP1 PUSH4 0x3E46CD53 EQ PUSH2 0x118 JUMPI DUP1 PUSH4 0x627D1E50 EQ PUSH2 0x113 JUMPI DUP1 PUSH4 0x715018A6 EQ PUSH2 0x10E JUMPI DUP1 PUSH4 0x8164AD0E EQ PUSH2 0x109 JUMPI DUP1 PUSH4 0x8279C7DB EQ PUSH2 0x104 JUMPI DUP1 PUSH4 0x8CE632E8 EQ PUSH2 0xFF JUMPI DUP1 PUSH4 0x8DA5CB5B EQ PUSH2 0xFA JUMPI DUP1 PUSH4 0x9C1F6133 EQ PUSH2 0xF5 JUMPI DUP1 PUSH4 0xAA168B47 EQ PUSH2 0xF0 JUMPI DUP1 PUSH4 0xCF820461 EQ PUSH2 0xEB JUMPI DUP1 PUSH4 0xF05D16F7 EQ PUSH2 0xE6 JUMPI DUP1 PUSH4 0xF0A0A299 EQ PUSH2 0xE1 JUMPI DUP1 PUSH4 0xF2FDE38B EQ PUSH2 0xDC JUMPI DUP1 PUSH4 0xF4201C3C EQ PUSH2 0xD7 JUMPI PUSH4 0xF48D11AF SUB PUSH2 0x132 JUMPI PUSH2 0x5A8 JUMP JUMPDEST PUSH2 0x567 JUMP JUMPDEST PUSH2 0x54F JUMP JUMPDEST PUSH2 0x534 JUMP JUMPDEST PUSH2 0x510 JUMP JUMPDEST PUSH2 0x4E5 JUMP JUMPDEST PUSH2 0x496 JUMP JUMPDEST PUSH2 0x416 JUMP JUMPDEST PUSH2 0x3FB JUMP JUMPDEST PUSH2 0x3E4 JUMP JUMPDEST PUSH2 0x387 JUMP JUMPDEST PUSH2 0x35C JUMP JUMPDEST PUSH2 0x344 JUMP JUMPDEST PUSH2 0x32A JUMP JUMPDEST PUSH2 0x297 JUMP JUMPDEST PUSH2 0x1DA JUMP JUMPDEST PUSH2 0x185 JUMP JUMPDEST PUSH1 0x0 SWAP2 SUB SLT PUSH2 0x132 JUMPI JUMP JUMPDEST PUSH1 0x0 DUP1 REVERT JUMPDEST PUSH2 0x14C SWAP2 PUSH1 0x8 MUL SHR JUMPDEST PUSH1 0x1 PUSH1 0x1 PUSH1 0xA0 SHL SUB AND SWAP1 JUMP JUMPDEST SWAP1 JUMP JUMPDEST SWAP1 PUSH2 0x14C SWAP2 SLOAD PUSH2 0x137 JUMP JUMPDEST PUSH2 0x14C PUSH1 0x0 PUSH1 0x1 PUSH2 0x14F JUMP JUMPDEST PUSH2 0x16F SWAP1 PUSH2 0x140 JUMP JUMPDEST SWAP1 MSTORE JUMP JUMPDEST PUSH1 0x20 DUP2 ADD SWAP3 SWAP2 PUSH2 0x183 SWAP2 SWAP1 PUSH2 0x166 JUMP JUMPDEST JUMP JUMPDEST CALLVALUE PUSH2 0x132 JUMPI PUSH2 0x195 CALLDATASIZE PUSH1 0x4 PUSH2 0x127 JUMP JUMPDEST PUSH2 0x1AC PUSH2 0x1A0 PUSH2 0x15A JUMP JUMPDEST PUSH1 0x40 MLOAD SWAP2 DUP3 SWAP2 DUP3 PUSH2 0x173 JUMP JUMPDEST SUB SWAP1 RETURN JUMPDEST DUP1 JUMPDEST SUB PUSH2 0x132 JUMPI JUMP JUMPDEST SWAP1 POP CALLDATALOAD SWAP1 PUSH2 0x183 DUP3 PUSH2 0x1B0 JUMP JUMPDEST SWAP1 PUSH1 0x20 DUP3 DUP3 SUB SLT PUSH2 0x132 JUMPI PUSH2 0x14C SWAP2 PUSH2 0x1B9 JUMP JUMPDEST CALLVALUE PUSH2 0x132 JUMPI PUSH2 0x1F2 PUSH2 0x1ED CALLDATASIZE PUSH1 0x4 PUSH2 0x1C6 JUMP JUMPDEST PUSH2 0x615 JUMP JUMPDEST PUSH1 0x40 MLOAD STOP JUMPDEST PUSH2 0x1B2 DUP2 PUSH2 0x140 JUMP JUMPDEST SWAP1 POP CALLDATALOAD SWAP1 PUSH2 0x183 DUP3 PUSH2 0x1F7 JUMP JUMPDEST SWAP1 SWAP2 DUP3 PUSH1 0x1F DUP4 ADD SLT ISZERO PUSH2 0x132 JUMPI DUP2 CALLDATALOAD SWAP2 PUSH8 0xFFFFFFFFFFFFFFFF DUP4 GT PUSH2 0x132 JUMPI PUSH1 0x20 ADD SWAP3 PUSH1 0x20 DUP4 MUL DUP5 ADD GT PUSH2 0x132 JUMPI JUMP JUMPDEST PUSH1 0x60 DUP2 DUP4 SUB SLT PUSH2 0x132 JUMPI PUSH2 0x251 DUP3 DUP3 PUSH2 0x200 JUMP JUMPDEST SWAP3 PUSH1 0x20 DUP3 ADD CALLDATALOAD PUSH8 0xFFFFFFFFFFFFFFFF DUP2 GT PUSH2 0x132 JUMPI DUP4 PUSH2 0x272 SWAP2 DUP5 ADD PUSH2 0x20D JUMP JUMPDEST SWAP3 SWAP1 SWAP4 PUSH1 0x40 DUP3 ADD CALLDATALOAD PUSH8 0xFFFFFFFFFFFFFFFF DUP2 GT PUSH2 0x132 JUMPI PUSH2 0x293 SWAP3 ADD PUSH2 0x20D JUMP JUMPDEST SWAP1 SWAP2 JUMP JUMPDEST PUSH2 0x1F2 PUSH2 0x2A5 CALLDATASIZE PUSH1 0x4 PUSH2 0x23D JUMP JUMPDEST SWAP4 SWAP3 SWAP1 SWAP3 PUSH2 0x929 JUMP JUMPDEST SWAP2 SWAP1 SWAP2 PUSH1 0x80 DUP2 DUP5 SUB SLT PUSH2 0x132 JUMPI PUSH2 0x2C5 DUP4 DUP3 PUSH2 0x200 JUMP JUMPDEST SWAP3 PUSH1 0x20 DUP3 ADD CALLDATALOAD PUSH8 0xFFFFFFFFFFFFFFFF DUP2 GT PUSH2 0x132 JUMPI DUP2 PUSH2 0x2E6 SWAP2 DUP5 ADD PUSH2 0x20D JUMP JUMPDEST SWAP3 SWAP1 SWAP4 PUSH1 0x40 DUP3 ADD CALLDATALOAD PUSH8 0xFFFFFFFFFFFFFFFF DUP2 GT PUSH2 0x132 JUMPI DUP4 PUSH2 0x309 SWAP2 DUP5 ADD PUSH2 0x20D JUMP JUMPDEST SWAP3 SWAP1 SWAP4 PUSH1 0x60 DUP3 ADD CALLDATALOAD PUSH8 0xFFFFFFFFFFFFFFFF DUP2 GT PUSH2 0x132 JUMPI PUSH2 0x293 SWAP3 ADD PUSH2 0x20D JUMP JUMPDEST PUSH2 0x1F2 PUSH2 0x338 CALLDATASIZE PUSH1 0x4 PUSH2 0x2AE JUMP JUMPDEST SWAP6 SWAP5 SWAP1 SWAP5 SWAP4 SWAP2 SWAP4 PUSH2 0xB3B JUMP JUMPDEST CALLVALUE PUSH2 0x132 JUMPI PUSH2 0x354 CALLDATASIZE PUSH1 0x4 PUSH2 0x127 JUMP JUMPDEST PUSH2 0x1F2 PUSH2 0xB82 JUMP JUMPDEST PUSH2 0x1F2 PUSH2 0x36A CALLDATASIZE PUSH1 0x4 PUSH2 0x23D JUMP JUMPDEST SWAP4 SWAP3 SWAP1 SWAP3 PUSH2 0xCCD JUMP JUMPDEST SWAP1 PUSH1 0x20 DUP3 DUP3 SUB SLT PUSH2 0x132 JUMPI PUSH2 0x14C SWAP2 PUSH2 0x200 JUMP JUMPDEST CALLVALUE PUSH2 0x132 JUMPI PUSH2 0x1F2 PUSH2 0x39A CALLDATASIZE PUSH1 0x4 PUSH2 0x373 JUMP JUMPDEST PUSH2 0xD48 JUMP JUMPDEST SWAP1 PUSH1 0x60 DUP3 DUP3 SUB SLT PUSH2 0x132 JUMPI PUSH2 0x3B4 DUP2 DUP4 PUSH2 0x200 JUMP JUMPDEST SWAP3 PUSH1 0x20 DUP4 ADD CALLDATALOAD PUSH8 0xFFFFFFFFFFFFFFFF DUP2 GT PUSH2 0x132 JUMPI DUP3 PUSH2 0x3DB PUSH1 0x40 SWAP5 PUSH2 0x14C SWAP4 DUP8 ADD PUSH2 0x20D JUMP JUMPDEST SWAP5 SWAP1 SWAP6 ADD PUSH2 0x1B9 JUMP JUMPDEST PUSH2 0x1F2 PUSH2 0x3F2 CALLDATASIZE PUSH1 0x4 PUSH2 0x39F JUMP JUMPDEST SWAP3 SWAP2 SWAP1 SWAP2 PUSH2 0xE7A JUMP JUMPDEST CALLVALUE PUSH2 0x132 JUMPI PUSH2 0x40B CALLDATASIZE PUSH1 0x4 PUSH2 0x127 JUMP JUMPDEST PUSH2 0x1AC PUSH2 0x1A0 PUSH2 0xE86 JUMP JUMPDEST PUSH2 0x421 CALLDATASIZE PUSH1 0x4 PUSH2 0x127 JUMP JUMPDEST PUSH2 0x1F2 PUSH2 0xEFD JUMP JUMPDEST PUSH2 0x14C SWAP1 PUSH2 0x140 SWAP1 PUSH1 0x1 PUSH1 0x1 PUSH1 0xA0 SHL SUB AND DUP3 JUMP JUMPDEST PUSH2 0x14C SWAP1 PUSH2 0x429 JUMP JUMPDEST PUSH2 0x14C SWAP1 PUSH2 0x43D JUMP JUMPDEST SWAP1 PUSH2 0x459 SWAP1 PUSH2 0x446 JUMP JUMPDEST PUSH1 0x0 MSTORE PUSH1 0x20 MSTORE PUSH1 0x40 PUSH1 0x0 KECCAK256 SWAP1 JUMP JUMPDEST PUSH2 0x14C SWAP2 PUSH1 0x8 MUL SHR JUMPDEST PUSH1 0xFF AND SWAP1 JUMP JUMPDEST SWAP1 PUSH2 0x14C SWAP2 SLOAD PUSH2 0x467 JUMP JUMPDEST PUSH1 0x0 PUSH2 0x491 PUSH2 0x14C SWAP3 PUSH1 0x4 PUSH2 0x44F JUMP JUMPDEST PUSH2 0x476 JUMP JUMPDEST CALLVALUE PUSH2 0x132 JUMPI PUSH2 0x1AC PUSH2 0x4B1 PUSH2 0x4AC CALLDATASIZE PUSH1 0x4 PUSH2 0x373 JUMP JUMPDEST PUSH2 0x481 JUMP JUMPDEST PUSH1 0x40 MLOAD SWAP2 DUP3 SWAP2 DUP3 SWAP1 ISZERO ISZERO DUP2 MSTORE PUSH1 0x20 ADD SWAP1 JUMP JUMPDEST PUSH2 0x14C SWAP2 PUSH1 0x8 MUL SHR DUP2 JUMP JUMPDEST SWAP1 PUSH2 0x14C SWAP2 SLOAD PUSH2 0x4C3 JUMP JUMPDEST PUSH2 0x14C PUSH1 0x0 PUSH1 0x2 PUSH2 0x4CE JUMP JUMPDEST CALLVALUE PUSH2 0x132 JUMPI PUSH2 0x4F5 CALLDATASIZE PUSH1 0x4 PUSH2 0x127 JUMP JUMPDEST PUSH2 0x1AC PUSH2 0x500 PUSH2 0x4D9 JUMP JUMPDEST PUSH1 0x40 MLOAD SWAP2 DUP3 SWAP2 DUP3 SWAP1 DUP2 MSTORE PUSH1 0x20 ADD SWAP1 JUMP JUMPDEST CALLVALUE PUSH2 0x132 JUMPI PUSH2 0x1F2 PUSH2 0x523 CALLDATASIZE PUSH1 0x4 PUSH2 0x1C6 JUMP JUMPDEST PUSH2 0xFC8 JUMP JUMPDEST PUSH2 0x14C PUSH1 0x0 PUSH1 0x3 PUSH2 0x4CE JUMP JUMPDEST CALLVALUE PUSH2 0x132 JUMPI PUSH2 0x544 CALLDATASIZE PUSH1 0x4 PUSH2 0x127 JUMP JUMPDEST PUSH2 0x1AC PUSH2 0x500 PUSH2 0x528 JUMP JUMPDEST CALLVALUE PUSH2 0x132 JUMPI PUSH2 0x1F2 PUSH2 0x562 CALLDATASIZE PUSH1 0x4 PUSH2 0x373 JUMP JUMPDEST PUSH2 0x1027 JUMP JUMPDEST CALLVALUE PUSH2 0x132 JUMPI PUSH2 0x1AC PUSH2 0x4B1 PUSH2 0x57D CALLDATASIZE PUSH1 0x4 PUSH2 0x373 JUMP JUMPDEST PUSH2 0x1043 JUMP JUMPDEST SWAP1 PUSH1 0x20 DUP3 DUP3 SUB SLT PUSH2 0x132 JUMPI DUP2 CALLDATALOAD PUSH8 0xFFFFFFFFFFFFFFFF DUP2 GT PUSH2 0x132 JUMPI PUSH2 0x293 SWAP3 ADD PUSH2 0x20D JUMP JUMPDEST CALLVALUE PUSH2 0x132 JUMPI PUSH2 0x1F2 PUSH2 0x5BB CALLDATASIZE PUSH1 0x4 PUSH2 0x582 JUMP JUMPDEST SWAP1 PUSH2 0x10B4 JUMP JUMPDEST PUSH2 0x183 SWAP1 PUSH2 0x5CD PUSH2 0x10BE JUMP JUMPDEST PUSH2 0x60A JUMP JUMPDEST SWAP1 PUSH1 0x0 NOT SWAP1 JUMPDEST SWAP2 DUP2 NOT AND SWAP2 AND OR SWAP1 JUMP JUMPDEST PUSH2 0x14C PUSH2 0x14C PUSH2 0x14C SWAP3 SWAP1 JUMP JUMPDEST SWAP1 PUSH2 0x5FF PUSH2 0x14C PUSH2 0x606 SWAP3 PUSH2 0x5E2 JUMP JUMPDEST DUP3 SLOAD PUSH2 0x5D2 JUMP JUMPDEST SWAP1 SSTORE JUMP JUMPDEST PUSH2 0x183 SWAP1 PUSH1 0x3 PUSH2 0x5EF JUMP JUMPDEST PUSH2 0x183 SWAP1 PUSH2 0x5C1 JUMP JUMPDEST PUSH2 0x14C SWAP1 DUP2 JUMP JUMPDEST PUSH2 0x14C SWAP1 SLOAD PUSH2 0x61E JUMP JUMPDEST ISZERO PUSH2 0x636 JUMPI JUMP JUMPDEST PUSH4 0x32EAA487 PUSH1 0xE1 SHL PUSH1 0x0 SWAP1 DUP2 MSTORE PUSH1 0x4 SWAP1 REVERT JUMPDEST SUB PUSH1 0x0 REVERT JUMPDEST PUSH2 0x14C SWAP1 PUSH2 0x140 JUMP JUMPDEST PUSH2 0x14C SWAP1 SLOAD PUSH2 0x64D JUMP JUMPDEST PUSH1 0x40 MLOAD RETURNDATASIZE PUSH1 0x0 DUP3 RETURNDATACOPY RETURNDATASIZE SWAP1 REVERT JUMPDEST SWAP4 SWAP3 SWAP2 SWAP1 PUSH2 0x679 CALLER PUSH2 0x1043 JUMP JUMPDEST DUP1 ISZERO PUSH2 0x6E1 JUMPI JUMPDEST PUSH2 0x689 SWAP1 PUSH2 0x62F JUMP JUMPDEST PUSH2 0x699 PUSH2 0x695 CALLER PUSH2 0x1043 JUMP JUMPDEST ISZERO SWAP1 JUMP JUMPDEST PUSH2 0x6A7 JUMPI JUMPDEST PUSH2 0x183 SWAP5 PUSH2 0x803 JUMP JUMPDEST PUSH1 0x0 DUP1 DUP1 DUP1 PUSH2 0x6C1 PUSH2 0x6BC PUSH2 0x6BC PUSH1 0x1 PUSH2 0x656 JUMP JUMPDEST PUSH2 0x446 JUMP JUMPDEST DUP2 SWAP1 CALLVALUE ISZERO PUSH2 0x6D7 JUMPI JUMPDEST CALLVALUE SWAP2 CALL PUSH2 0x69E JUMPI JUMPDEST PUSH2 0x660 JUMP JUMPDEST PUSH2 0x8FC SWAP2 POP PUSH2 0x6CA JUMP JUMPDEST POP PUSH2 0x689 PUSH2 0x6F2 PUSH2 0x14C PUSH1 0x2 PUSH2 0x625 JUMP JUMPDEST CALLVALUE LT ISZERO SWAP1 POP PUSH2 0x680 JUMP JUMPDEST ISZERO PUSH2 0x703 JUMPI JUMP JUMPDEST PUSH4 0xB4FA3FB3 PUSH1 0xE0 SHL PUSH1 0x0 SWAP1 DUP2 MSTORE PUSH1 0x4 SWAP1 REVERT JUMPDEST PUSH4 0x4E487B71 PUSH1 0xE0 SHL PUSH1 0x0 MSTORE PUSH1 0x32 PUSH1 0x4 MSTORE PUSH1 0x24 PUSH1 0x0 REVERT JUMPDEST SWAP2 SWAP1 DUP2 LT ISZERO PUSH2 0x73B JUMPI PUSH1 0x20 MUL ADD SWAP1 JUMP JUMPDEST PUSH2 0x715 JUMP JUMPDEST CALLDATALOAD PUSH2 0x14C DUP2 PUSH2 0x1F7 JUMP JUMPDEST CALLDATALOAD PUSH2 0x14C DUP2 PUSH2 0x1B0 JUMP JUMPDEST PUSH4 0x4E487B71 PUSH1 0xE0 SHL PUSH1 0x0 MSTORE PUSH1 0x41 PUSH1 0x4 MSTORE PUSH1 0x24 PUSH1 0x0 REVERT JUMPDEST SWAP1 PUSH1 0x1F ADD PUSH1 0x1F NOT AND DUP2 ADD SWAP1 DUP2 LT PUSH8 0xFFFFFFFFFFFFFFFF DUP3 GT OR PUSH2 0x78C JUMPI PUSH1 0x40 MSTORE JUMP JUMPDEST PUSH2 0x754 JUMP JUMPDEST DUP1 ISZERO ISZERO PUSH2 0x1B2 JUMP JUMPDEST SWAP1 POP MLOAD SWAP1 PUSH2 0x183 DUP3 PUSH2 0x791 JUMP JUMPDEST SWAP1 PUSH1 0x20 DUP3 DUP3 SUB SLT PUSH2 0x132 JUMPI PUSH2 0x14C SWAP2 PUSH2 0x799 JUMP JUMPDEST PUSH1 0x40 SWAP1 PUSH2 0x7E4 PUSH2 0x183 SWAP5 SWAP7 SWAP6 SWAP4 SWAP7 PUSH2 0x7DA PUSH1 0x60 DUP5 ADD SWAP9 PUSH1 0x0 DUP6 ADD SWAP1 PUSH2 0x166 JUMP JUMPDEST PUSH1 0x20 DUP4 ADD SWAP1 PUSH2 0x166 JUMP JUMPDEST ADD MSTORE JUMP JUMPDEST SWAP2 PUSH1 0x20 PUSH2 0x183 SWAP3 SWAP5 SWAP4 PUSH2 0x7E4 PUSH1 0x40 DUP3 ADD SWAP7 PUSH1 0x0 DUP4 ADD SWAP1 PUSH2 0x166 JUMP JUMPDEST SWAP4 SWAP1 SWAP3 SWAP2 DUP1 SWAP6 PUSH2 0x815 DUP4 DUP9 JUMPDEST EQ PUSH2 0x6FC JUMP JUMPDEST PUSH2 0x81E DUP7 PUSH2 0x446 JUMP JUMPDEST SWAP1 PUSH1 0x0 SWAP8 PUSH2 0x82C PUSH1 0x0 PUSH2 0x5E2 JUMP JUMPDEST DUP2 DUP2 LT ISZERO PUSH2 0x8E4 JUMPI DUP1 PUSH1 0x20 DUP12 DUP11 DUP11 PUSH2 0x86E PUSH2 0x869 DUP7 DUP14 PUSH2 0x863 PUSH2 0x85E DUP16 SWAP12 DUP16 SWAP13 PUSH2 0x858 PUSH2 0x898 SWAP15 PUSH2 0x446 JUMP JUMPDEST SWAP10 PUSH2 0x72B JUMP JUMPDEST PUSH2 0x740 JUMP JUMPDEST SWAP5 PUSH2 0x72B JUMP JUMPDEST PUSH2 0x74A JUMP JUMPDEST SWAP3 PUSH2 0x878 PUSH1 0x40 MLOAD SWAP1 JUMP JUMPDEST DUP1 SWAP8 DUP2 SWAP6 DUP3 SWAP5 PUSH2 0x88C PUSH4 0x23B872DD PUSH1 0xE0 SHL SWAP1 JUMP JUMPDEST DUP5 MSTORE CALLER PUSH1 0x4 DUP6 ADD PUSH2 0x7BA JUMP JUMPDEST SUB SWAP3 GAS CALL SWAP2 DUP3 ISZERO PUSH2 0x6D2 JUMPI PUSH2 0x8B3 SWAP3 PUSH2 0x8B8 JUMPI JUMPDEST POP PUSH1 0x1 ADD SWAP1 JUMP JUMPDEST PUSH2 0x82C JUMP JUMPDEST PUSH2 0x8D8 SWAP1 PUSH1 0x20 RETURNDATASIZE DUP2 GT PUSH2 0x8DD JUMPI JUMPDEST PUSH2 0x8D0 DUP2 DUP4 PUSH2 0x76A JUMP JUMPDEST DUP2 ADD SWAP1 PUSH2 0x7A6 JUMP JUMPDEST PUSH2 0x8AC JUMP JUMPDEST POP RETURNDATASIZE PUSH2 0x8C6 JUMP JUMPDEST POP SWAP6 POP SWAP7 POP POP POP POP POP PUSH32 0xE4E3577249108DAAA0A07E6D9AABC5FEF8E89EC09DA3F9DCCFE7EF215E4EFC12 SWAP2 PUSH2 0x924 PUSH2 0x91B PUSH1 0x40 MLOAD SWAP1 JUMP JUMPDEST SWAP3 DUP4 SWAP3 DUP4 PUSH2 0x7E8 JUMP JUMPDEST SUB SWAP1 LOG1 JUMP JUMPDEST SWAP1 PUSH2 0x183 SWAP5 SWAP4 SWAP3 SWAP2 PUSH2 0x66C JUMP JUMPDEST SWAP6 SWAP5 SWAP4 SWAP3 SWAP2 SWAP1 PUSH2 0x945 CALLER PUSH2 0x1043 JUMP JUMPDEST DUP1 ISZERO PUSH2 0x9A3 JUMPI JUMPDEST PUSH2 0x955 SWAP1 PUSH2 0x62F JUMP JUMPDEST PUSH2 0x961 PUSH2 0x695 CALLER PUSH2 0x1043 JUMP JUMPDEST PUSH2 0x96F JUMPI JUMPDEST PUSH2 0x183 SWAP7 PUSH2 0xA0B JUMP JUMPDEST PUSH1 0x0 DUP1 DUP1 DUP1 PUSH2 0x984 PUSH2 0x6BC PUSH2 0x6BC PUSH1 0x1 PUSH2 0x656 JUMP JUMPDEST DUP2 SWAP1 CALLVALUE ISZERO PUSH2 0x999 JUMPI JUMPDEST CALLVALUE SWAP2 CALL PUSH2 0x966 JUMPI PUSH2 0x660 JUMP JUMPDEST PUSH2 0x8FC SWAP2 POP PUSH2 0x98D JUMP JUMPDEST POP PUSH2 0x955 PUSH2 0x9B4 PUSH2 0x14C PUSH1 0x2 PUSH2 0x625 JUMP JUMPDEST CALLVALUE LT ISZERO SWAP1 POP PUSH2 0x94C JUMP JUMPDEST SWAP2 SWAP4 PUSH2 0x9F2 PUSH2 0x9F9 SWAP3 SWAP5 PUSH2 0x9EB PUSH2 0x14C SWAP8 PUSH2 0x9E1 PUSH1 0xA0 DUP9 ADD SWAP9 PUSH1 0x0 DUP10 ADD SWAP1 PUSH2 0x166 JUMP JUMPDEST PUSH1 0x20 DUP8 ADD SWAP1 PUSH2 0x166 JUMP JUMPDEST PUSH1 0x40 DUP6 ADD MSTORE JUMP JUMPDEST PUSH1 0x60 DUP4 ADD MSTORE JUMP JUMPDEST PUSH1 0x80 DUP2 DUP4 SUB SWAP2 ADD MSTORE PUSH1 0x0 DUP2 MSTORE PUSH1 0x20 ADD SWAP1 JUMP JUMPDEST SWAP5 SWAP7 SWAP5 SWAP6 SWAP3 SWAP4 SWAP1 SWAP3 SWAP2 DUP1 SWAP6 DUP3 DUP8 EQ DUP1 PUSH2 0xB32 JUMPI JUMPDEST PUSH2 0xA28 SWAP1 PUSH2 0x6FC JUMP JUMPDEST PUSH2 0xA31 DUP9 PUSH2 0x446 JUMP JUMPDEST SWAP1 PUSH1 0x0 SWAP8 PUSH2 0xA3F PUSH1 0x0 PUSH2 0x5E2 JUMP JUMPDEST DUP2 DUP2 LT ISZERO PUSH2 0xAF9 JUMPI DUP1 DUP10 DUP10 PUSH2 0xA7B DUP16 SWAP5 DUP1 DUP13 PUSH2 0xA75 PUSH2 0x869 DUP4 DUP16 DUP16 DUP16 PUSH2 0x869 SWAP9 PUSH2 0x858 SWAP3 PUSH2 0xA6F PUSH2 0x85E SWAP4 PUSH2 0x446 JUMP JUMPDEST SWAP13 PUSH2 0x72B JUMP JUMPDEST SWAP8 PUSH2 0x72B JUMP JUMPDEST SWAP1 DUP1 EXTCODESIZE ISZERO PUSH2 0x132 JUMPI PUSH2 0xAAE SWAP5 DUP15 DUP1 SWAP5 PUSH2 0xA93 PUSH1 0x40 MLOAD SWAP1 JUMP JUMPDEST SWAP8 DUP9 SWAP6 DUP7 SWAP5 DUP6 SWAP4 PUSH4 0x79212195 PUSH1 0xE1 SHL DUP6 MSTORE CALLER PUSH1 0x4 DUP7 ADD PUSH2 0x9BE JUMP JUMPDEST SUB SWAP3 GAS CALL SWAP2 DUP3 ISZERO PUSH2 0x6D2 JUMPI PUSH2 0xAC8 SWAP3 PUSH2 0xACD JUMPI POP PUSH1 0x1 ADD SWAP1 JUMP JUMPDEST PUSH2 0xA3F JUMP JUMPDEST PUSH2 0xAEC SWAP1 DUP13 DUP14 RETURNDATASIZE LT PUSH2 0xAF2 JUMPI JUMPDEST PUSH2 0xAE4 DUP2 DUP4 PUSH2 0x76A JUMP JUMPDEST DUP2 ADD SWAP1 PUSH2 0x127 JUMP JUMPDEST CODESIZE PUSH2 0x8AC JUMP JUMPDEST POP RETURNDATASIZE PUSH2 0xADA JUMP JUMPDEST POP SWAP8 POP SWAP9 POP POP POP POP POP POP POP PUSH32 0xE4E3577249108DAAA0A07E6D9AABC5FEF8E89EC09DA3F9DCCFE7EF215E4EFC12 SWAP2 PUSH2 0x924 PUSH2 0x91B PUSH1 0x40 MLOAD SWAP1 JUMP JUMPDEST POP DUP7 DUP5 EQ PUSH2 0xA1F JUMP JUMPDEST SWAP1 PUSH2 0x183 SWAP7 SWAP6 SWAP5 SWAP4 SWAP3 SWAP2 PUSH2 0x936 JUMP JUMPDEST PUSH2 0xB52 PUSH2 0x10BE JUMP JUMPDEST PUSH2 0x183 PUSH2 0xB70 JUMP JUMPDEST PUSH2 0x140 PUSH2 0x14C PUSH2 0x14C SWAP3 SWAP1 JUMP JUMPDEST PUSH2 0x14C SWAP1 PUSH2 0xB5A JUMP JUMPDEST PUSH2 0x183 PUSH2 0xB7D PUSH1 0x0 PUSH2 0xB67 JUMP JUMPDEST PUSH2 0x10FB JUMP JUMPDEST PUSH2 0x183 PUSH2 0xB4A JUMP JUMPDEST SWAP4 SWAP3 SWAP2 SWAP1 PUSH2 0xB97 CALLER PUSH2 0x1043 JUMP JUMPDEST DUP1 ISZERO PUSH2 0xBF5 JUMPI JUMPDEST PUSH2 0xBA7 SWAP1 PUSH2 0x62F JUMP JUMPDEST PUSH2 0xBB3 PUSH2 0x695 CALLER PUSH2 0x1043 JUMP JUMPDEST PUSH2 0xBC1 JUMPI JUMPDEST PUSH2 0x183 SWAP5 PUSH2 0xC10 JUMP JUMPDEST PUSH1 0x0 DUP1 DUP1 DUP1 PUSH2 0xBD6 PUSH2 0x6BC PUSH2 0x6BC PUSH1 0x1 PUSH2 0x656 JUMP JUMPDEST DUP2 SWAP1 CALLVALUE ISZERO PUSH2 0xBEB JUMPI JUMPDEST CALLVALUE SWAP2 CALL PUSH2 0xBB8 JUMPI PUSH2 0x660 JUMP JUMPDEST PUSH2 0x8FC SWAP2 POP PUSH2 0xBDF JUMP JUMPDEST POP PUSH2 0xBA7 PUSH2 0xC06 PUSH2 0x14C PUSH1 0x2 PUSH2 0x625 JUMP JUMPDEST CALLVALUE LT ISZERO SWAP1 POP PUSH2 0xB9E JUMP JUMPDEST SWAP4 SWAP1 SWAP5 SWAP3 SWAP2 PUSH2 0xC1C DUP2 SWAP1 JUMP JUMPDEST SWAP4 PUSH2 0xC27 DUP4 DUP7 PUSH2 0x80F JUMP JUMPDEST PUSH2 0xC30 DUP7 PUSH2 0x446 JUMP JUMPDEST SWAP1 PUSH1 0x0 SWAP6 PUSH2 0xC3E PUSH1 0x0 PUSH2 0x5E2 JUMP JUMPDEST DUP2 DUP2 LT ISZERO PUSH2 0x8E4 JUMPI DUP1 PUSH2 0xC5F PUSH2 0x85E DUP13 SWAP4 DUP9 PUSH2 0xC59 DUP10 PUSH2 0x446 JUMP JUMPDEST SWAP6 PUSH2 0x72B JUMP JUMPDEST PUSH2 0xC6D PUSH2 0x869 DUP4 DUP11 DUP13 PUSH2 0x72B JUMP JUMPDEST DUP4 EXTCODESIZE ISZERO PUSH2 0x132 JUMPI PUSH2 0xC98 SWAP4 DUP12 SWAP3 DUP4 PUSH2 0xC84 PUSH1 0x40 MLOAD SWAP1 JUMP JUMPDEST DUP1 SWAP8 DUP2 SWAP6 DUP3 SWAP5 PUSH2 0x88C PUSH4 0x42842E0E PUSH1 0xE0 SHL SWAP1 JUMP JUMPDEST SUB SWAP3 GAS CALL SWAP2 DUP3 ISZERO PUSH2 0x6D2 JUMPI PUSH2 0xCB2 SWAP3 PUSH2 0xCB7 JUMPI POP PUSH1 0x1 ADD SWAP1 JUMP JUMPDEST PUSH2 0xC3E JUMP JUMPDEST PUSH2 0xAEC SWAP1 DUP11 RETURNDATASIZE DUP13 GT PUSH2 0xAF2 JUMPI PUSH2 0xAE4 DUP2 DUP4 PUSH2 0x76A JUMP JUMPDEST SWAP1 PUSH2 0x183 SWAP5 SWAP4 SWAP3 SWAP2 PUSH2 0xB8A JUMP JUMPDEST PUSH2 0x183 SWAP1 PUSH2 0xCE6 PUSH2 0x10BE JUMP JUMPDEST PUSH2 0xD18 JUMP JUMPDEST ISZERO PUSH2 0x132 JUMPI JUMP JUMPDEST SWAP1 PUSH1 0x1 PUSH1 0x1 PUSH1 0xA0 SHL SUB SWAP1 PUSH2 0x5D8 JUMP JUMPDEST SWAP1 PUSH2 0xD11 PUSH2 0x14C PUSH2 0x606 SWAP3 PUSH2 0x446 JUMP JUMPDEST DUP3 SLOAD PUSH2 0xCF2 JUMP JUMPDEST PUSH2 0x183 SWAP1 PUSH2 0xD41 PUSH2 0xD31 PUSH2 0xD2C PUSH1 0x0 PUSH2 0xB67 JUMP JUMPDEST PUSH2 0x140 JUMP JUMPDEST PUSH2 0xD3A DUP4 PUSH2 0x140 JUMP JUMPDEST EQ ISZERO PUSH2 0xCEB JUMP JUMPDEST PUSH1 0x1 PUSH2 0xD01 JUMP JUMPDEST PUSH2 0x183 SWAP1 PUSH2 0xCDA JUMP JUMPDEST SWAP3 SWAP2 SWAP1 PUSH2 0xD5D CALLER PUSH2 0x1043 JUMP JUMPDEST DUP1 ISZERO PUSH2 0xDBB JUMPI JUMPDEST PUSH2 0xD6D SWAP1 PUSH2 0x62F JUMP JUMPDEST PUSH2 0xD79 PUSH2 0x695 CALLER PUSH2 0x1043 JUMP JUMPDEST PUSH2 0xD87 JUMPI JUMPDEST PUSH2 0x183 SWAP4 PUSH2 0xDD6 JUMP JUMPDEST PUSH1 0x0 DUP1 DUP1 DUP1 PUSH2 0xD9C PUSH2 0x6BC PUSH2 0x6BC PUSH1 0x1 PUSH2 0x656 JUMP JUMPDEST DUP2 SWAP1 CALLVALUE ISZERO PUSH2 0xDB1 JUMPI JUMPDEST CALLVALUE SWAP2 CALL PUSH2 0xD7E JUMPI PUSH2 0x660 JUMP JUMPDEST PUSH2 0x8FC SWAP2 POP PUSH2 0xDA5 JUMP JUMPDEST POP PUSH2 0xD6D PUSH2 0xDCC PUSH2 0x14C PUSH1 0x2 PUSH2 0x625 JUMP JUMPDEST CALLVALUE LT ISZERO SWAP1 POP PUSH2 0xD64 JUMP JUMPDEST SWAP3 SWAP2 PUSH2 0xDE1 DUP5 PUSH2 0x446 JUMP JUMPDEST PUSH1 0x0 SWAP6 PUSH2 0xDEE PUSH1 0x0 PUSH2 0x5E2 JUMP JUMPDEST DUP4 DUP2 LT ISZERO PUSH2 0xE3D JUMPI PUSH2 0xE1E SWAP1 PUSH1 0x20 DUP8 PUSH2 0xE06 DUP7 PUSH2 0x446 JUMP JUMPDEST PUSH2 0xE14 PUSH2 0x85E DUP6 DUP11 DUP13 PUSH2 0x72B JUMP JUMPDEST DUP13 PUSH2 0x878 PUSH1 0x40 MLOAD SWAP1 JUMP JUMPDEST SUB SWAP3 GAS CALL SWAP2 DUP3 ISZERO PUSH2 0x6D2 JUMPI PUSH2 0xE38 SWAP3 PUSH2 0x8B8 JUMPI POP PUSH1 0x1 ADD SWAP1 JUMP JUMPDEST PUSH2 0xDEE JUMP JUMPDEST POP SWAP6 POP POP PUSH32 0xE4E3577249108DAAA0A07E6D9AABC5FEF8E89EC09DA3F9DCCFE7EF215E4EFC12 SWAP4 SWAP3 POP PUSH2 0xE6D SWAP2 POP SWAP1 JUMP JUMPDEST SWAP1 PUSH2 0x924 PUSH2 0x91B PUSH1 0x40 MLOAD SWAP1 JUMP JUMPDEST SWAP1 PUSH2 0x183 SWAP4 SWAP3 SWAP2 PUSH2 0xD51 JUMP JUMPDEST PUSH2 0x14C PUSH1 0x0 PUSH2 0x656 JUMP JUMPDEST SWAP1 DUP2 MSTORE PUSH1 0x40 DUP2 ADD SWAP3 SWAP2 PUSH2 0x183 SWAP2 PUSH1 0x20 ADD MSTORE JUMP JUMPDEST ISZERO PUSH2 0xEAC JUMPI POP POP JUMP JUMPDEST PUSH3 0xFAE2D5 PUSH1 0xE2 SHL PUSH1 0x0 SWAP1 DUP2 MSTORE SWAP2 PUSH2 0x648 SWAP2 PUSH1 0x4 PUSH2 0xE90 JUMP JUMPDEST ISZERO PUSH2 0xECB JUMPI JUMP JUMPDEST PUSH4 0x24B964D PUSH1 0xE0 SHL PUSH1 0x0 SWAP1 DUP2 MSTORE PUSH1 0x4 SWAP1 REVERT JUMPDEST SWAP1 PUSH1 0xFF SWAP1 PUSH2 0x5D8 JUMP JUMPDEST SWAP1 PUSH2 0xEF6 PUSH2 0x14C PUSH2 0x606 SWAP3 ISZERO ISZERO SWAP1 JUMP JUMPDEST DUP3 SLOAD PUSH2 0xEDD JUMP JUMPDEST PUSH2 0xF22 PUSH2 0xF0D PUSH2 0x14C PUSH1 0x3 PUSH2 0x625 JUMP JUMPDEST CALLVALUE LT ISZERO PUSH2 0xF1A PUSH1 0x3 PUSH2 0x625 JUMP JUMPDEST SWAP1 CALLVALUE SWAP1 PUSH2 0xEA3 JUMP JUMPDEST PUSH2 0xF36 PUSH2 0xF31 PUSH2 0x695 CALLER PUSH2 0x1043 JUMP JUMPDEST PUSH2 0xEC4 JUMP JUMPDEST PUSH1 0x0 DUP1 DUP1 DUP1 PUSH2 0xF4B PUSH2 0x6BC PUSH2 0x6BC PUSH1 0x1 PUSH2 0x656 JUMP JUMPDEST DUP2 SWAP1 CALLVALUE ISZERO PUSH2 0xFA7 JUMPI JUMPDEST CALLVALUE SWAP2 CALL ISZERO PUSH2 0x6D2 JUMPI PUSH2 0xF71 PUSH1 0x1 PUSH2 0xF6C CALLER PUSH1 0x4 PUSH2 0x44F JUMP JUMPDEST PUSH2 0xEE6 JUMP JUMPDEST PUSH32 0x6252330B8AC495908D7082DBCF6CD547AFFFF5896884E8CB9C40D1B216F9F8E8 PUSH2 0xF9B PUSH1 0x40 MLOAD SWAP1 JUMP JUMPDEST DUP1 PUSH2 0x924 CALLVALUE CALLER DUP4 PUSH2 0x7E8 JUMP JUMPDEST PUSH2 0x8FC SWAP2 POP PUSH2 0xF54 JUMP JUMPDEST PUSH2 0x183 SWAP1 PUSH2 0xFBD PUSH2 0x10BE JUMP JUMPDEST PUSH2 0x183 SWAP1 PUSH1 0x2 PUSH2 0x5EF JUMP JUMPDEST PUSH2 0x183 SWAP1 PUSH2 0xFB1 JUMP JUMPDEST PUSH2 0x183 SWAP1 PUSH2 0xFDD PUSH2 0x10BE JUMP JUMPDEST PUSH1 0x0 PUSH2 0xFE8 DUP2 PUSH2 0xB67 JUMP JUMPDEST PUSH2 0xFF1 DUP2 PUSH2 0x140 JUMP JUMPDEST PUSH2 0xFFA DUP5 PUSH2 0x140 JUMP JUMPDEST EQ PUSH2 0x100A JUMPI POP POP PUSH2 0x183 SWAP1 PUSH2 0x10FB JUMP JUMPDEST PUSH4 0x1E4FBDF7 PUSH1 0xE0 SHL DUP3 MSTORE DUP2 SWAP1 PUSH2 0x1023 SWAP1 PUSH1 0x4 DUP4 ADD PUSH2 0x173 JUMP JUMPDEST SUB SWAP1 REVERT JUMPDEST PUSH2 0x183 SWAP1 PUSH2 0xFD1 JUMP JUMPDEST PUSH2 0x14C SWAP1 PUSH2 0x470 JUMP JUMPDEST PUSH2 0x14C SWAP1 SLOAD PUSH2 0x1030 JUMP JUMPDEST PUSH2 0x105A PUSH2 0x14C SWAP2 PUSH2 0x1052 PUSH1 0x0 SWAP1 JUMP JUMPDEST POP PUSH1 0x4 PUSH2 0x44F JUMP JUMPDEST PUSH2 0x1039 JUMP JUMPDEST SWAP1 PUSH2 0x183 SWAP2 PUSH2 0x106C PUSH2 0x10BE JUMP JUMPDEST PUSH1 0x0 SWAP3 SWAP2 PUSH2 0x1079 DUP5 PUSH2 0x5E2 JUMP JUMPDEST DUP2 DUP2 LT ISZERO PUSH2 0x10AD JUMPI PUSH2 0x10A8 SWAP1 PUSH2 0x10A2 DUP7 PUSH2 0xF6C PUSH1 0x4 PUSH2 0x109C PUSH2 0x85E DUP7 DUP10 DUP12 PUSH2 0x72B JUMP JUMPDEST SWAP1 PUSH2 0x44F JUMP JUMPDEST PUSH1 0x1 ADD SWAP1 JUMP JUMPDEST PUSH2 0x1079 JUMP JUMPDEST POP POP POP SWAP1 POP JUMP JUMPDEST SWAP1 PUSH2 0x183 SWAP2 PUSH2 0x105F JUMP JUMPDEST PUSH2 0x10C6 PUSH2 0xE86 JUMP JUMPDEST CALLER SWAP1 PUSH2 0x10DA PUSH2 0x10D4 DUP4 PUSH2 0x140 JUMP JUMPDEST SWAP2 PUSH2 0x140 JUMP JUMPDEST SUB PUSH2 0x10E2 JUMPI POP JUMP JUMPDEST PUSH4 0x118CDAA7 PUSH1 0xE0 SHL PUSH1 0x0 SWAP1 DUP2 MSTORE SWAP1 PUSH2 0x648 SWAP1 PUSH1 0x4 PUSH2 0x173 JUMP JUMPDEST PUSH2 0x111C PUSH2 0x1116 PUSH2 0x110B PUSH1 0x0 PUSH2 0x656 JUMP JUMPDEST PUSH2 0x6BC DUP5 PUSH1 0x0 PUSH2 0xD01 JUMP JUMPDEST SWAP2 PUSH2 0x446 JUMP JUMPDEST SWAP1 PUSH32 0x8BE0079C531659141344CD1FD0A4F28419497F9722A3DAAFE3B4186F6B6457E0 PUSH2 0x1147 PUSH1 0x40 MLOAD SWAP1 JUMP JUMPDEST PUSH1 0x0 SWAP1 LOG3 JUMP INVALID LOG2 PUSH5 0x6970667358 0x22 SLT KECCAK256 0xC1 0xC6 0xB0 0xB1 BLOBBASEFEE TIMESTAMP SWAP5 POP MOD PUSH20 0xE462B77A20FA048F6A33DACF87B9F556D8A37559 PUSH10 0xBE64736F6C634300081A STOP CALLER "
        },
        "methodIdentifiers": {
          "VIPFee()": "f0a0a299",
          "bulkTransferERC1155(address,address[],uint256[],uint256[])": "627d1e50",
          "bulkTransferERC20(address,address[],uint256)": "8ce632e8",
          "bulkTransferERC20(address,address[],uint256[])": "3e46cd53",
          "bulkTransferERC721(address,address[],uint256[])": "8164ad0e",
          "isVIP(address)": "f4201c3c",
          "owner()": "8da5cb5b",
          "receiverAddress()": "16fed3e2",
          "registerVIP()": "9c1f6133",
          "removeFromVIPList(address[])": "f48d11af",
          "renounceOwnership()": "715018a6",
          "setReceiverAddress(address)": "8279c7db",
          "setTxFee(uint256)": "f05d16f7",
          "setVIPFee(uint256)": "3d06242a",
          "transferOwnership(address)": "f2fde38b",
          "txFee()": "cf820461",
          "vipList(address)": "aa168b47"
        }
      }
    }
  }
}