{
  "contracts/testContracts/ERC1155.sol": {
    "ERC1155Tester": {
      "abi": [
        {
          "inputs": [],
          "stateMutability": "nonpayable",
          "type": "constructor"
        },
        {
          "inputs": [
            {
              "internalType": "address",
              "name": "sender",
              "type": "address"
            },
            {
              "internalType": "uint256",
              "name": "balance",
              "type": "uint256"
            },
            {
              "internalType": "uint256",
              "name": "needed",
              "type": "uint256"
            },
            {
              "internalType": "uint256",
              "name": "tokenId",
              "type": "uint256"
            }
          ],
          "name": "ERC1155InsufficientBalance",
          "type": "error"
        },
        {
          "inputs": [
            {
              "internalType": "address",
              "name": "approver",
              "type": "address"
            }
          ],
          "name": "ERC1155InvalidApprover",
          "type": "error"
        },
        {
          "inputs": [
            {
              "internalType": "uint256",
              "name": "idsLength",
              "type": "uint256"
            },
            {
              "internalType": "uint256",
              "name": "valuesLength",
              "type": "uint256"
            }
          ],
          "name": "ERC1155InvalidArrayLength",
          "type": "error"
        },
        {
          "inputs": [
            {
              "internalType": "address",
              "name": "operator",
              "type": "address"
            }
          ],
          "name": "ERC1155InvalidOperator",
          "type": "error"
        },
        {
          "inputs": [
            {
              "internalType": "address",
              "name": "receiver",
              "type": "address"
            }
          ],
          "name": "ERC1155InvalidReceiver",
          "type": "error"
        },
        {
          "inputs": [
            {
              "internalType": "address",
              "name": "sender",
              "type": "address"
            }
          ],
          "name": "ERC1155InvalidSender",
          "type": "error"
        },
        {
          "inputs": [
            {
              "internalType": "address",
              "name": "operator",
              "type": "address"
            },
            {
              "internalType": "address",
              "name": "owner",
              "type": "address"
            }
          ],
          "name": "ERC1155MissingApprovalForAll",
          "type": "error"
        },
        {
          "inputs": [
            {
              "internalType": "address",
              "name": "owner",
              "type": "address"
            }
          ],
          "name": "OwnableInvalidOwner",
          "type": "error"
        },
        {
          "inputs": [
            {
              "internalType": "address",
              "name": "account",
              "type": "address"
            }
          ],
          "name": "OwnableUnauthorizedAccount",
          "type": "error"
        },
        {
          "anonymous": false,
          "inputs": [
            {
              "indexed": true,
              "internalType": "address",
              "name": "account",
              "type": "address"
            },
            {
              "indexed": true,
              "internalType": "address",
              "name": "operator",
              "type": "address"
            },
            {
              "indexed": false,
              "internalType": "bool",
              "name": "approved",
              "type": "bool"
            }
          ],
          "name": "ApprovalForAll",
          "type": "event"
        },
        {
          "anonymous": false,
          "inputs": [
            {
              "indexed": true,
              "internalType": "address",
              "name": "previousOwner",
              "type": "address"
            },
            {
              "indexed": true,
              "internalType": "address",
              "name": "newOwner",
              "type": "address"
            }
          ],
          "name": "OwnershipTransferred",
          "type": "event"
        },
        {
          "anonymous": false,
          "inputs": [
            {
              "indexed": true,
              "internalType": "address",
              "name": "operator",
              "type": "address"
            },
            {
              "indexed": true,
              "internalType": "address",
              "name": "from",
              "type": "address"
            },
            {
              "indexed": true,
              "internalType": "address",
              "name": "to",
              "type": "address"
            },
            {
              "indexed": false,
              "internalType": "uint256[]",
              "name": "ids",
              "type": "uint256[]"
            },
            {
              "indexed": false,
              "internalType": "uint256[]",
              "name": "values",
              "type": "uint256[]"
            }
          ],
          "name": "TransferBatch",
          "type": "event"
        },
        {
          "anonymous": false,
          "inputs": [
            {
              "indexed": true,
              "internalType": "address",
              "name": "operator",
              "type": "address"
            },
            {
              "indexed": true,
              "internalType": "address",
              "name": "from",
              "type": "address"
            },
            {
              "indexed": true,
              "internalType": "address",
              "name": "to",
              "type": "address"
            },
            {
              "indexed": false,
              "internalType": "uint256",
              "name": "id",
              "type": "uint256"
            },
            {
              "indexed": false,
              "internalType": "uint256",
              "name": "value",
              "type": "uint256"
            }
          ],
          "name": "TransferSingle",
          "type": "event"
        },
        {
          "anonymous": false,
          "inputs": [
            {
              "indexed": false,
              "internalType": "string",
              "name": "value",
              "type": "string"
            },
            {
              "indexed": true,
              "internalType": "uint256",
              "name": "id",
              "type": "uint256"
            }
          ],
          "name": "URI",
          "type": "event"
        },
        {
          "inputs": [
            {
              "internalType": "address",
              "name": "account",
              "type": "address"
            },
            {
              "internalType": "uint256",
              "name": "id",
              "type": "uint256"
            }
          ],
          "name": "balanceOf",
          "outputs": [
            {
              "internalType": "uint256",
              "name": "",
              "type": "uint256"
            }
          ],
          "stateMutability": "view",
          "type": "function"
        },
        {
          "inputs": [
            {
              "internalType": "address[]",
              "name": "accounts",
              "type": "address[]"
            },
            {
              "internalType": "uint256[]",
              "name": "ids",
              "type": "uint256[]"
            }
          ],
          "name": "balanceOfBatch",
          "outputs": [
            {
              "internalType": "uint256[]",
              "name": "",
              "type": "uint256[]"
            }
          ],
          "stateMutability": "view",
          "type": "function"
        },
        {
          "inputs": [
            {
              "internalType": "address",
              "name": "account",
              "type": "address"
            },
            {
              "internalType": "address",
              "name": "operator",
              "type": "address"
            }
          ],
          "name": "isApprovedForAll",
          "outputs": [
            {
              "internalType": "bool",
              "name": "",
              "type": "bool"
            }
          ],
          "stateMutability": "view",
          "type": "function"
        },
        {
          "inputs": [
            {
              "internalType": "address",
              "name": "account",
              "type": "address"
            },
            {
              "internalType": "uint256",
              "name": "tokenId",
              "type": "uint256"
            },
            {
              "internalType": "uint256",
              "name": "amount",
              "type": "uint256"
            }
          ],
          "name": "mint",
          "outputs": [],
          "stateMutability": "nonpayable",
          "type": "function"
        },
        {
          "inputs": [],
          "name": "owner",
          "outputs": [
            {
              "internalType": "address",
              "name": "",
              "type": "address"
            }
          ],
          "stateMutability": "view",
          "type": "function"
        },
        {
          "inputs": [],
          "name": "renounceOwnership",
          "outputs": [],
          "stateMutability": "nonpayable",
          "type": "function"
        },
        {
          "inputs": [
            {
              "internalType": "address",
              "name": "from",
              "type": "address"
            },
            {
              "internalType": "address",
              "name": "to",
              "type": "address"
            },
            {
              "internalType": "uint256[]",
              "name": "ids",
              "type": "uint256[]"
            },
            {
              "internalType": "uint256[]",
              "name": "values",
              "type": "uint256[]"
            },
            {
              "internalType": "bytes",
              "name": "data",
              "type": "bytes"
            }
          ],
          "name": "safeBatchTransferFrom",
          "outputs": [],
          "stateMutability": "nonpayable",
          "type": "function"
        },
        {
          "inputs": [
            {
              "internalType": "address",
              "name": "from",
              "type": "address"
            },
            {
              "internalType": "address",
              "name": "to",
              "type": "address"
            },
            {
              "internalType": "uint256",
              "name": "id",
              "type": "uint256"
            },
            {
              "internalType": "uint256",
              "name": "value",
              "type": "uint256"
            },
            {
              "internalType": "bytes",
              "name": "data",
              "type": "bytes"
            }
          ],
          "name": "safeTransferFrom",
          "outputs": [],
          "stateMutability": "nonpayable",
          "type": "function"
        },
        {
          "inputs": [
            {
              "internalType": "address",
              "name": "operator",
              "type": "address"
            },
            {
              "internalType": "bool",
              "name": "approved",
              "type": "bool"
            }
          ],
          "name": "setApprovalForAll",
          "outputs": [],
          "stateMutability": "nonpayable",
          "type": "function"
        },
        {
          "inputs": [
            {
              "internalType": "bytes4",
              "name": "interfaceId",
              "type": "bytes4"
            }
          ],
          "name": "supportsInterface",
          "outputs": [
            {
              "internalType": "bool",
              "name": "",
              "type": "bool"
            }
          ],
          "stateMutability": "view",
          "type": "function"
        },
        {
          "inputs": [
            {
              "internalType": "address",
              "name": "newOwner",
              "type": "address"
            }
          ],
          "name": "transferOwnership",
          "outputs": [],
          "stateMutability": "nonpayable",
          "type": "function"
        },
        {
          "inputs": [
            {
              "internalType": "uint256",
              "name": "",
              "type": "uint256"
            }
          ],
          "name": "uri",
          "outputs": [
            {
              "internalType": "string",
              "name": "",
              "type": "string"
            }
          ],
          "stateMutability": "view",
          "type": "function"
        }
      ],
      "evm": {
        "bytecode": {
          "linkReferences": {},
          "object": "608060405234610022576100116100d2565b6040516115f5610c0282396115f590f35b600080fd5b634e487b7160e01b600052604160045260246000fd5b90601f01601f191681019081106001600160401b0382111761005e57604052565b610027565b9061007761007060405190565b928361003d565b565b6001600160401b03811161005e57602090601f01601f19160190565b0190565b906100ab6100a683610079565b610063565b918252565b6100ba6000610099565b90565b6100ba6100b0565b6100ba6100ba6100ba9290565b6100e36100dd6100bd565b33610148565b6100776100f060016100c5565b6100fa60646100c5565b6101026100bd565b91336101a5565b6101166100ba6100ba9290565b6001600160a01b031690565b6100ba90610109565b61013490610116565b9052565b602081019291610077919061012b565b906101529061019c565b600061015d81610122565b61016681610116565b61016f84610116565b1461017f57505061007790610284565b631e4fbdf760e01b825281906101989060048301610138565b0390fd5b6100779061049c565b90939291936000906101b682610122565b916101c083610116565b6101c985610116565b14610203575061007794956101fb60405192600184526020840152604083019160018352602083015260408201604052565b9290916104a7565b632bfa23e760e11b8152806101988460048301610138565b6100ba90610116565b6100ba905461021b565b906001600160a01b03905b9181191691161790565b6100ba90610116906001600160a01b031682565b6100ba90610243565b6100ba90610257565b906102796100ba61028092610260565b825461022e565b9055565b6102aa6102a46102946003610224565b61029f846003610269565b610260565b91610260565b907f8be0079c531659141344cd1fd0a4f28419497f9722a3daafe3b4186f6b6457e06102d560405190565b600090a3565b634e487b7160e01b600052602260045260246000fd5b9060016002830492168015610311575b602083101461030c57565b6102db565b91607f1691610301565b9160001960089290920291821b911b610239565b91906103406100ba610280936100c5565b90835461031b565b6100779160009161032f565b81811061035f575050565b8061036d6000600193610348565b01610354565b9190601f811161038257505050565b61039461007793600052602060002090565b906020601f8401819004830193106103b6575b6020601f909101040190610354565b90915081906103a7565b906103c9815190565b906001600160401b03821161005e576103ec826103e685546102f1565b85610373565b602090601f83116001146104275761028092916000918361041c575b5050600019600883021c1916906002021790565b015190503880610408565b601f1983169161043c85600052602060002090565b9260005b81811061047a57509160029391856001969410610461575b50505002019055565b01516000196008601f8516021c19169055388080610458565b91936020600181928787015181550195019201610440565b90610077916103c0565b610077906002610492565b919392906104b78286838661067e565b6104c96104c46000610122565b610116565b6104d282610116565b036104df575b5050505050565b33926104e9865190565b6104fa6104f660016100c5565b9190565b03610530576105206105269661051a61051360006100c5565b8092610afd565b94610afd565b93610b5c565b38808080806104d8565b61053b9592936109cf565b610526565b9081526040810192916100779160200152565b0152565b90610561906100c5565b600052602052604060002090565b9061056190610260565b6100ba9081565b6100ba9054610579565b610553610077946105b36060949897956105ac608086019a600087019061012b565b6020850152565b6040830152565b9060001990610239565b906105d46100ba610280926100c5565b82546105ba565b634e487b7160e01b600052601160045260246000fd5b919082018092116105fe57565b6105db565b9061062361061c610612845190565b8084529260200190565b9260200190565b9060005b8181106106345750505090565b90919261065161064a6001928651815260200190565b9460200190565b929101610627565b60408082526100ba93919261067091840190610603565b916020818403910152610603565b939290919261068b845190565b6106996104f66100ba855190565b036108a05733936000916106ac836100c5565b6106b76100ba845190565b8110156107d1576106c88184610afd565b906106d38187610afd565b916106dd86610122565b92886106e885610116565b6106f18d610116565b03610756575b61070361071b95610116565b61070c82610116565b03610720575b50505060010190565b6106ac565b6107396107489161073461074e958b610557565b61056f565b9161074383610580565b6105f1565b906105c4565b388088610712565b5090919261077061076b8c610734868b610557565b610580565b8281106107ac5761070383926107a48a8f61079f908f968a61079961071b9d9c9b610734930390565b94610557565b6105c4565b9550506106f7565b8b61019885856107bb60405190565b6303dee4c560e01b81529485946004860161058a565b50959294916107de825190565b6107eb6104f660016100c5565b03610858576108376108376108317fc3d58168c5ae7397731d063d5bbf3d657854427343f4c083240f7aacaa2d0f62959461082b61051361083d966100c5565b99610afd565b93610260565b94610260565b9461085361084a60405190565b92839283610540565b0390a4565b509361088a6108376108377f4a39dc06d4c0dbc64b70af90fd698a233a518aa5d07e595d983b8c0526c8f7fb94610260565b9461085361089760405190565b92839283610659565b60006108ca836108b66108b1885190565b915190565b635b05999160e01b84529060048401610540565b036000fd5b6001600160e01b031981160361002257565b90505190610077826108cf565b90602082820312610022576100ba916108e1565b60005b8381106109155750506000910152565b8181015183820152602001610905565b61094661094f6020936100959361093a815190565b80835293849260200190565b95869101610902565b601f01601f191690565b9390610994906100ba96946109876109a29561097d60a08a019460008b019061012b565b602089019061012b565b8682036040880152610603565b908482036060860152610603565b916080818403910152610925565b3d156109ca576109bf3d610099565b903d6000602084013e565b606090565b9193929094843b956000966109e66104f6896100c5565b116109f5575b50505050505050565b86602094610a2c610a0861029f8a610260565b94610a1260405190565b9889978896879563bc197c8160e01b875260048701610959565b03925af160009181610acc575b50610a8d5750610a50565b388080808080806109ec565b610a586109b0565b8051610a666104f6856100c5565b03610a855750632bfa23e760e11b825281906101989060048301610138565b805190602001fd5b610aa763bc197c8160e01b5b916001600160e01b03191690565b03610ab3575050610a44565b632bfa23e760e11b825281906101989060048301610138565b610aef91925060203d602011610af6575b610ae7818361003d565b8101906108ee565b9038610a39565b503d610add565b9060208091610b0a600090565b50029101015190565b9193610b486100ba9694610b41610b4f9497610b3760a0880199600089019061012b565b602087019061012b565b6040850152565b6060830152565b6080818403910152610925565b9193929094843b95600096610b736104f6896100c5565b11610b815750505050505050565b86602094610bb8610b9461029f8a610260565b94610b9e60405190565b9889978896879563f23a6e6160e01b875260048701610b13565b03925af160009181610be0575b50610bd05750610a50565b610aa763f23a6e6160e01b610a99565b610bfa91925060203d602011610af657610ae7818361003d565b9038610bc556fe6080604052600436101561001257600080fd5b60003560e01c8062fdd58e146100d157806301ffc9a7146100cc5780630e89341c146100c7578063156e29f6146100c25780632eb2c2d6146100bd5780634e1273f4146100b8578063715018a6146100b35780638da5cb5b146100ae578063a22cb465146100a9578063e985e9c5146100a4578063f242432a1461009f5763f2fde38b036100f75761073d565b61070d565b6106b0565b610674565b610607565b6105ef565b6105bc565b610488565b6102a0565b610250565b6101a2565b610141565b6001600160a01b031690565b90565b6001600160a01b0381165b036100f757565b600080fd5b90503590610109826100e5565b565b806100f0565b905035906101098261010b565b91906040838203126100f7576100e290602061013a82866100fc565b9401610111565b346100f75761016d61015d61015736600461011e565b906107bb565b6040519182918290815260200190565b0390f35b6001600160e01b031981166100f0565b9050359061010982610171565b906020828203126100f7576100e291610181565b346100f75761016d6101bd6101b836600461018e565b6107e0565b6040515b91829182901515815260200190565b906020828203126100f7576100e291610111565b60005b8381106101f75750506000910152565b81810151838201526020016101e7565b61022861023160209361023b9361021c815190565b80835293849260200190565b958691016101e4565b601f01601f191690565b0190565b60208082526100e292910190610207565b346100f75761016d61026b6102663660046101d0565b610923565b6040519182918261023f565b90916060828403126100f7576100e261029084846100fc565b93604061013a8260208701610111565b346100f7576102b96102b3366004610277565b91610979565b604051005b634e487b7160e01b600052604160045260246000fd5b90601f01601f1916810190811067ffffffffffffffff8211176102f657604052565b6102be565b9061010961030860405190565b92836102d4565b67ffffffffffffffff81116102f65760208091020190565b9092919261033c6103378261030f565b6102fb565b93818552602080860192028301928184116100f757915b8383106103605750505050565b6020809161036e8486610111565b815201920191610353565b9080601f830112156100f7578160206100e293359101610327565b67ffffffffffffffff81116102f657602090601f01601f19160190565b90826000939282370152565b909291926103cd61033782610394565b93818552818301116100f7576101099160208501906103b1565b9080601f830112156100f7578160206100e2933591016103bd565b91909160a0818403126100f75761041983826100fc565b9261042781602084016100fc565b92604083013567ffffffffffffffff81116100f75782610448918501610379565b92606081013567ffffffffffffffff81116100f75783610469918301610379565b92608082013567ffffffffffffffff81116100f7576100e292016103e7565b346100f7576102b961049b366004610402565b93929092610984565b909291926104b46103378261030f565b93818552602080860192028301928184116100f757915b8383106104d85750505050565b602080916104e684866100fc565b8152019201916104cb565b9080601f830112156100f7578160206100e2933591016104a4565b9190916040818403126100f757803567ffffffffffffffff81116100f757836105369183016104f1565b92602082013567ffffffffffffffff81116100f7576100e29201610379565b9061057561056e610564845190565b8084529260200190565b9260200190565b9060005b8181106105865750505090565b9091926105a361059c6001928651815260200190565b9460200190565b929101610579565b60208082526100e292910190610555565b346100f75761016d6105d86105d236600461050c565b90610a72565b604051918291826105ab565b60009103126100f757565b346100f7576105ff3660046105e4565b6102b9610b57565b346100f7576106173660046105e4565b61016d610622610b72565b604051918291826001600160a01b03909116815260200190565b8015156100f0565b905035906101098261063c565b91906040838203126100f7576100e290602061066d82866100fc565b9401610644565b346100f7576102b9610687366004610651565b90610b7c565b91906040838203126100f7576100e29060206106a982866100fc565b94016100fc565b346100f75761016d6101bd6106c636600461068d565b90610b87565b91909160a0818403126100f7576106e383826100fc565b926106f181602084016100fc565b926106ff8260408501610111565b926104698360608301610111565b346100f7576102b96107203660046106cc565b93929092610ba9565b906020828203126100f7576100e2916100fc565b346100f7576102b9610750366004610729565b610c41565b6100e26100e26100e29290565b9061076c90610755565b600052602052604060002090565b6100e2906100d6906001600160a01b031682565b6100e29061077a565b6100e29061078e565b9061076c90610797565b6100e29081565b6100e290546107aa565b6107db906107d66100e2936107ce600090565b506000610762565b6107a0565b6107b1565b636cdb3d1360e11b6001600160e01b0319821614908115610810575b8115610806575090565b6100e29150610c4a565b6001600160e01b031981166303a24d0760e21b1491506107fc565b634e487b7160e01b600052602260045260246000fd5b9060016002830492168015610861575b602083101461085c57565b61082b565b91607f1691610851565b8054600093929161088861087e83610841565b8085529360200190565b91600181169081156108da57506001146108a157505050565b6108b49192939450600052602060002090565b916000925b8184106108c65750500190565b8054848401526020909301926001016108b9565b92949550505060ff1916825215156020020190565b906100e29161086b565b906101096109139261090a60405190565b938480926108ef565b03836102d4565b6100e2906108f9565b506100e2600261091a565b90610109929161093c610c68565b610965565b9061094e61033783610394565b918252565b6100e26000610941565b6100e2610953565b90916101099261097361095d565b92610ca7565b90610109929161092e565b339594939291906001600160a01b038116871415806109da575b6109ad57610109959650610d25565b63711bec9160e11b60009081526001600160a01b038089166004529091166024526044036000fd5b036000fd5b506109ec6109e88883610b87565b1590565b61099e565b9081526040810192916101099160200152565b0152565b9061094e6103378361030f565b369037565b90610109610a30610a2a84610a08565b9361030f565b601f190160208401610a15565b634e487b7160e01b600052603260045260246000fd5b90610a5c825190565b811015610a6d576020809102010190565b610a3d565b908151610a87610a836100e2845190565b9190565b03610af557610a9c610a97835190565b610a1a565b91610aa76000610755565b610ab26100e2835190565b811015610aef5780610ae4610ad7610acd610aea9486610db2565b6101578488610db2565b610ae18388610a53565b52565b60010190565b610aa7565b50505090565b600091610b0b610b066109d5935190565b915190565b635b05999160e01b845290600484016109f1565b610b27610c68565b610109610b45565b6100d66100e26100e29290565b6100e290610b2f565b610109610b526000610b3c565b610df8565b610109610b1f565b6100e2906100d6565b6100e29054610b5f565b6100e26003610b68565b610109919033610e71565b6100e2916107d6610ba292610b9a600090565b5060016107a0565b5460ff1690565b339594939291906001600160a01b03811687141580610bd2575b6109ad57610109959650610f06565b50610be06109e88883610b87565b610bc3565b61010990610bf1610c68565b6000610bfc81610b3c565b6001600160a01b0381166001600160a01b03841614610c2057505061010990610df8565b631e4fbdf760e01b82526001600160a01b03166004820152602490fd5b0390fd5b61010990610be5565b610c646301ffc9a760e01b5b916001600160e01b03191690565b1490565b610c70610b72565b339081906001600160a01b031603610c855750565b63118cdaa760e01b60009081526001600160a01b039091166004526024036000fd5b9093929193600090610cb882610b3c565b916001600160a01b0383166001600160a01b03851614610d0757506101099495610cff60405192600184526020840152604083019160018352602083015260408201604052565b929091610fb0565b632bfa23e760e11b81526001600160a01b0383166004820152602490fd5b9493929190600095610d3687610b3c565b876001600160a01b0382166001600160a01b03851614610d9257506001600160a01b0381166001600160a01b03831614610d765750610109959650610fb0565b626a0d4560e21b88526001600160a01b03166004880152602487fd5b632bfa23e760e11b81526001600160a01b03919091166004820152602490fd5b9060208091610dbf600090565b50029101015190565b906001600160a01b03905b9181191691161790565b90610ded6100e2610df492610797565b8254610dc8565b9055565b610e1e610e18610e086003610b68565b610e13846003610ddd565b610797565b91610797565b907f8be0079c531659141344cd1fd0a4f28419497f9722a3daafe3b4186f6b6457e0610e4960405190565b80805b0390a3565b9060ff90610dd3565b90610e6a6100e2610df492151590565b8254610e51565b6000610e7c81610b3c565b6001600160a01b0381166001600160a01b03851614610eea575050610e4c610ee0610eda83610e1387610ed5886107d67f17307eab39ab6107e8899845ad3d59bd9653f200f220920489ca2b5937696c319960016107a0565b610e5a565b93610797565b936101c160405190565b62ced3e160e81b82526001600160a01b03166004820152602490fd5b9091949392946000610f1781610b3c565b6001600160a01b0381166001600160a01b03861614610f93576001600160a01b0381166001600160a01b03851614610f775750506101099495610cff60405192600184526020840152604083019160018352602083015260408201604052565b626a0d4560e21b82526001600160a01b03166004820152602490fd5b632bfa23e760e11b82526001600160a01b03166004820152602490fd5b91939290610fc0828683866110e7565b610fcd6100d66000610b3c565b6001600160a01b03821603610fe4575b5050505050565b3392610fee865190565b610ffb610a836001610755565b03611031576110216110279661101b6110146000610755565b8092610db2565b94610db2565b9361151a565b3880808080610fdd565b61103c9592936113b4565b611027565b610a046101099461107260609498979561106b608086019a60008701906001600160a01b03169052565b6020850152565b6040830152565b9060001990610dd3565b906110936100e2610df492610755565b8254611079565b634e487b7160e01b600052601160045260246000fd5b919082018092116110bd57565b61109a565b60408082526100e29391926110d991840190610555565b916020818403910152610555565b93929091926110f4845190565b611102610a836100e2855190565b036112fe57339360009161111583610755565b6111206100e2845190565b811015611235576111318184610db2565b9061113c8187610db2565b9161114686610b3c565b92886001600160a01b0385166001600160a01b038d16036111bf575b611189946001600160a01b03165b6001600160a01b0382160361118e575b50505060010190565b611115565b6111a26111b1916107d66111b7958b610762565b916111ac836107b1565b6110b0565b90611083565b388088611180565b509091926111d46107db8c6107d6868b610762565b8281106112105761117083926112088a8f611203908f968a6111fd6111899d9c9b6107d6930390565b94610762565b611083565b955050611162565b8b610c3d858561121f60405190565b6303dee4c560e01b815294859460048601611041565b5095929491611242825190565b61124f610a836001610755565b036112b657611295611295610eda7fc3d58168c5ae7397731d063d5bbf3d657854427343f4c083240f7aacaa2d0f62959461128f61101461129b96610755565b99610db2565b94610797565b946112b16112a860405190565b928392836109f1565b0390a4565b50936112e86112956112957f4a39dc06d4c0dbc64b70af90fd698a233a518aa5d07e595d983b8c0526c8f7fb94610797565b946112b16112f560405190565b928392836110c2565b60006109d583610b0b610b06885190565b9050519061010982610171565b906020828203126100f7576100e29161130f565b9390611379906100e2969461136c6113879561135c60a08a019460008b01906001600160a01b03169052565b6001600160a01b03166020890152565b8682036040880152610555565b908482036060860152610555565b916080818403910152610207565b3d156113af576113a43d610941565b903d6000602084013e565b606090565b9193929094843b956000966113cb610a8389610755565b116113da575b50505050505050565b866020946114116113ed610e138a610797565b946113f760405190565b9889978896879563bc197c8160e01b875260048701611330565b03925af160009181611492575b506114765750611435565b388080808080806113d1565b61143d611395565b805161144b610a8385610755565b0361146e5750632bfa23e760e11b82526001600160a01b03166004820152602490fd5b805190602001fd5b61148663bc197c8160e01b610c56565b03610f93575050611429565b6114b591925060203d6020116114bc575b6114ad81836102d4565b81019061131c565b903861141e565b503d6114a3565b91936115066100e296946114ff61150d94976114ef60a088019960008901906001600160a01b03169052565b6001600160a01b03166020870152565b6040850152565b6060830152565b6080818403910152610207565b9193929094843b95600096611531610a8389610755565b1161153f5750505050505050565b86602094611576611552610e138a610797565b9461155c60405190565b9889978896879563f23a6e6160e01b8752600487016114c3565b03925af16000918161159e575b5061158e5750611435565b61148663f23a6e6160e01b610c56565b6115b891925060203d6020116114bc576114ad81836102d4565b903861158356fea2646970667358221220e9988b85f87848afdee8e79a1ee0ecf5d0be25a517c869d18bd090c42458157d64736f6c634300081a0033",
          "opcodes": "PUSH1 0x80 PUSH1 0x40 MSTORE CALLVALUE PUSH2 0x22 JUMPI PUSH2 0x11 PUSH2 0xD2 JUMP JUMPDEST PUSH1 0x40 MLOAD PUSH2 0x15F5 PUSH2 0xC02 DUP3 CODECOPY PUSH2 0x15F5 SWAP1 RETURN JUMPDEST PUSH1 0x0 DUP1 REVERT JUMPDEST PUSH4 0x4E487B71 PUSH1 0xE0 SHL PUSH1 0x0 MSTORE PUSH1 0x41 PUSH1 0x4 MSTORE PUSH1 0x24 PUSH1 0x0 REVERT JUMPDEST SWAP1 PUSH1 0x1F ADD PUSH1 0x1F NOT AND DUP2 ADD SWAP1 DUP2 LT PUSH1 0x1 PUSH1 0x1 PUSH1 0x40 SHL SUB DUP3 GT OR PUSH2 0x5E JUMPI PUSH1 0x40 MSTORE JUMP JUMPDEST PUSH2 0x27 JUMP JUMPDEST SWAP1 PUSH2 0x77 PUSH2 0x70 PUSH1 0x40 MLOAD SWAP1 JUMP JUMPDEST SWAP3 DUP4 PUSH2 0x3D JUMP JUMPDEST JUMP JUMPDEST PUSH1 0x1 PUSH1 0x1 PUSH1 0x40 SHL SUB DUP2 GT PUSH2 0x5E JUMPI PUSH1 0x20 SWAP1 PUSH1 0x1F ADD PUSH1 0x1F NOT AND ADD SWAP1 JUMP JUMPDEST ADD SWAP1 JUMP JUMPDEST SWAP1 PUSH2 0xAB PUSH2 0xA6 DUP4 PUSH2 0x79 JUMP JUMPDEST PUSH2 0x63 JUMP JUMPDEST SWAP2 DUP3 MSTORE JUMP JUMPDEST PUSH2 0xBA PUSH1 0x0 PUSH2 0x99 JUMP JUMPDEST SWAP1 JUMP JUMPDEST PUSH2 0xBA PUSH2 0xB0 JUMP JUMPDEST PUSH2 0xBA PUSH2 0xBA PUSH2 0xBA SWAP3 SWAP1 JUMP JUMPDEST PUSH2 0xE3 PUSH2 0xDD PUSH2 0xBD JUMP JUMPDEST CALLER PUSH2 0x148 JUMP JUMPDEST PUSH2 0x77 PUSH2 0xF0 PUSH1 0x1 PUSH2 0xC5 JUMP JUMPDEST PUSH2 0xFA PUSH1 0x64 PUSH2 0xC5 JUMP JUMPDEST PUSH2 0x102 PUSH2 0xBD JUMP JUMPDEST SWAP2 CALLER PUSH2 0x1A5 JUMP JUMPDEST PUSH2 0x116 PUSH2 0xBA PUSH2 0xBA SWAP3 SWAP1 JUMP JUMPDEST PUSH1 0x1 PUSH1 0x1 PUSH1 0xA0 SHL SUB AND SWAP1 JUMP JUMPDEST PUSH2 0xBA SWAP1 PUSH2 0x109 JUMP JUMPDEST PUSH2 0x134 SWAP1 PUSH2 0x116 JUMP JUMPDEST SWAP1 MSTORE JUMP JUMPDEST PUSH1 0x20 DUP2 ADD SWAP3 SWAP2 PUSH2 0x77 SWAP2 SWAP1 PUSH2 0x12B JUMP JUMPDEST SWAP1 PUSH2 0x152 SWAP1 PUSH2 0x19C JUMP JUMPDEST PUSH1 0x0 PUSH2 0x15D DUP2 PUSH2 0x122 JUMP JUMPDEST PUSH2 0x166 DUP2 PUSH2 0x116 JUMP JUMPDEST PUSH2 0x16F DUP5 PUSH2 0x116 JUMP JUMPDEST EQ PUSH2 0x17F JUMPI POP POP PUSH2 0x77 SWAP1 PUSH2 0x284 JUMP JUMPDEST PUSH4 0x1E4FBDF7 PUSH1 0xE0 SHL DUP3 MSTORE DUP2 SWAP1 PUSH2 0x198 SWAP1 PUSH1 0x4 DUP4 ADD PUSH2 0x138 JUMP JUMPDEST SUB SWAP1 REVERT JUMPDEST PUSH2 0x77 SWAP1 PUSH2 0x49C JUMP JUMPDEST SWAP1 SWAP4 SWAP3 SWAP2 SWAP4 PUSH1 0x0 SWAP1 PUSH2 0x1B6 DUP3 PUSH2 0x122 JUMP JUMPDEST SWAP2 PUSH2 0x1C0 DUP4 PUSH2 0x116 JUMP JUMPDEST PUSH2 0x1C9 DUP6 PUSH2 0x116 JUMP JUMPDEST EQ PUSH2 0x203 JUMPI POP PUSH2 0x77 SWAP5 SWAP6 PUSH2 0x1FB PUSH1 0x40 MLOAD SWAP3 PUSH1 0x1 DUP5 MSTORE PUSH1 0x20 DUP5 ADD MSTORE PUSH1 0x40 DUP4 ADD SWAP2 PUSH1 0x1 DUP4 MSTORE PUSH1 0x20 DUP4 ADD MSTORE PUSH1 0x40 DUP3 ADD PUSH1 0x40 MSTORE JUMP JUMPDEST SWAP3 SWAP1 SWAP2 PUSH2 0x4A7 JUMP JUMPDEST PUSH4 0x2BFA23E7 PUSH1 0xE1 SHL DUP2 MSTORE DUP1 PUSH2 0x198 DUP5 PUSH1 0x4 DUP4 ADD PUSH2 0x138 JUMP JUMPDEST PUSH2 0xBA SWAP1 PUSH2 0x116 JUMP JUMPDEST PUSH2 0xBA SWAP1 SLOAD PUSH2 0x21B JUMP JUMPDEST SWAP1 PUSH1 0x1 PUSH1 0x1 PUSH1 0xA0 SHL SUB SWAP1 JUMPDEST SWAP2 DUP2 NOT AND SWAP2 AND OR SWAP1 JUMP JUMPDEST PUSH2 0xBA SWAP1 PUSH2 0x116 SWAP1 PUSH1 0x1 PUSH1 0x1 PUSH1 0xA0 SHL SUB AND DUP3 JUMP JUMPDEST PUSH2 0xBA SWAP1 PUSH2 0x243 JUMP JUMPDEST PUSH2 0xBA SWAP1 PUSH2 0x257 JUMP JUMPDEST SWAP1 PUSH2 0x279 PUSH2 0xBA PUSH2 0x280 SWAP3 PUSH2 0x260 JUMP JUMPDEST DUP3 SLOAD PUSH2 0x22E JUMP JUMPDEST SWAP1 SSTORE JUMP JUMPDEST PUSH2 0x2AA PUSH2 0x2A4 PUSH2 0x294 PUSH1 0x3 PUSH2 0x224 JUMP JUMPDEST PUSH2 0x29F DUP5 PUSH1 0x3 PUSH2 0x269 JUMP JUMPDEST PUSH2 0x260 JUMP JUMPDEST SWAP2 PUSH2 0x260 JUMP JUMPDEST SWAP1 PUSH32 0x8BE0079C531659141344CD1FD0A4F28419497F9722A3DAAFE3B4186F6B6457E0 PUSH2 0x2D5 PUSH1 0x40 MLOAD SWAP1 JUMP JUMPDEST PUSH1 0x0 SWAP1 LOG3 JUMP JUMPDEST PUSH4 0x4E487B71 PUSH1 0xE0 SHL PUSH1 0x0 MSTORE PUSH1 0x22 PUSH1 0x4 MSTORE PUSH1 0x24 PUSH1 0x0 REVERT JUMPDEST SWAP1 PUSH1 0x1 PUSH1 0x2 DUP4 DIV SWAP3 AND DUP1 ISZERO PUSH2 0x311 JUMPI JUMPDEST PUSH1 0x20 DUP4 LT EQ PUSH2 0x30C JUMPI JUMP JUMPDEST PUSH2 0x2DB JUMP JUMPDEST SWAP2 PUSH1 0x7F AND SWAP2 PUSH2 0x301 JUMP JUMPDEST SWAP2 PUSH1 0x0 NOT PUSH1 0x8 SWAP3 SWAP1 SWAP3 MUL SWAP2 DUP3 SHL SWAP2 SHL PUSH2 0x239 JUMP JUMPDEST SWAP2 SWAP1 PUSH2 0x340 PUSH2 0xBA PUSH2 0x280 SWAP4 PUSH2 0xC5 JUMP JUMPDEST SWAP1 DUP4 SLOAD PUSH2 0x31B JUMP JUMPDEST PUSH2 0x77 SWAP2 PUSH1 0x0 SWAP2 PUSH2 0x32F JUMP JUMPDEST DUP2 DUP2 LT PUSH2 0x35F JUMPI POP POP JUMP JUMPDEST DUP1 PUSH2 0x36D PUSH1 0x0 PUSH1 0x1 SWAP4 PUSH2 0x348 JUMP JUMPDEST ADD PUSH2 0x354 JUMP JUMPDEST SWAP2 SWAP1 PUSH1 0x1F DUP2 GT PUSH2 0x382 JUMPI POP POP POP JUMP JUMPDEST PUSH2 0x394 PUSH2 0x77 SWAP4 PUSH1 0x0 MSTORE PUSH1 0x20 PUSH1 0x0 KECCAK256 SWAP1 JUMP JUMPDEST SWAP1 PUSH1 0x20 PUSH1 0x1F DUP5 ADD DUP2 SWAP1 DIV DUP4 ADD SWAP4 LT PUSH2 0x3B6 JUMPI JUMPDEST PUSH1 0x20 PUSH1 0x1F SWAP1 SWAP2 ADD DIV ADD SWAP1 PUSH2 0x354 JUMP JUMPDEST SWAP1 SWAP2 POP DUP2 SWAP1 PUSH2 0x3A7 JUMP JUMPDEST SWAP1 PUSH2 0x3C9 DUP2 MLOAD SWAP1 JUMP JUMPDEST SWAP1 PUSH1 0x1 PUSH1 0x1 PUSH1 0x40 SHL SUB DUP3 GT PUSH2 0x5E JUMPI PUSH2 0x3EC DUP3 PUSH2 0x3E6 DUP6 SLOAD PUSH2 0x2F1 JUMP JUMPDEST DUP6 PUSH2 0x373 JUMP JUMPDEST PUSH1 0x20 SWAP1 PUSH1 0x1F DUP4 GT PUSH1 0x1 EQ PUSH2 0x427 JUMPI PUSH2 0x280 SWAP3 SWAP2 PUSH1 0x0 SWAP2 DUP4 PUSH2 0x41C JUMPI JUMPDEST POP POP PUSH1 0x0 NOT PUSH1 0x8 DUP4 MUL SHR NOT AND SWAP1 PUSH1 0x2 MUL OR SWAP1 JUMP JUMPDEST ADD MLOAD SWAP1 POP CODESIZE DUP1 PUSH2 0x408 JUMP JUMPDEST PUSH1 0x1F NOT DUP4 AND SWAP2 PUSH2 0x43C DUP6 PUSH1 0x0 MSTORE PUSH1 0x20 PUSH1 0x0 KECCAK256 SWAP1 JUMP JUMPDEST SWAP3 PUSH1 0x0 JUMPDEST DUP2 DUP2 LT PUSH2 0x47A JUMPI POP SWAP2 PUSH1 0x2 SWAP4 SWAP2 DUP6 PUSH1 0x1 SWAP7 SWAP5 LT PUSH2 0x461 JUMPI JUMPDEST POP POP POP MUL ADD SWAP1 SSTORE JUMP JUMPDEST ADD MLOAD PUSH1 0x0 NOT PUSH1 0x8 PUSH1 0x1F DUP6 AND MUL SHR NOT AND SWAP1 SSTORE CODESIZE DUP1 DUP1 PUSH2 0x458 JUMP JUMPDEST SWAP2 SWAP4 PUSH1 0x20 PUSH1 0x1 DUP2 SWAP3 DUP8 DUP8 ADD MLOAD DUP2 SSTORE ADD SWAP6 ADD SWAP3 ADD PUSH2 0x440 JUMP JUMPDEST SWAP1 PUSH2 0x77 SWAP2 PUSH2 0x3C0 JUMP JUMPDEST PUSH2 0x77 SWAP1 PUSH1 0x2 PUSH2 0x492 JUMP JUMPDEST SWAP2 SWAP4 SWAP3 SWAP1 PUSH2 0x4B7 DUP3 DUP7 DUP4 DUP7 PUSH2 0x67E JUMP JUMPDEST PUSH2 0x4C9 PUSH2 0x4C4 PUSH1 0x0 PUSH2 0x122 JUMP JUMPDEST PUSH2 0x116 JUMP JUMPDEST PUSH2 0x4D2 DUP3 PUSH2 0x116 JUMP JUMPDEST SUB PUSH2 0x4DF JUMPI JUMPDEST POP POP POP POP POP JUMP JUMPDEST CALLER SWAP3 PUSH2 0x4E9 DUP7 MLOAD SWAP1 JUMP JUMPDEST PUSH2 0x4FA PUSH2 0x4F6 PUSH1 0x1 PUSH2 0xC5 JUMP JUMPDEST SWAP2 SWAP1 JUMP JUMPDEST SUB PUSH2 0x530 JUMPI PUSH2 0x520 PUSH2 0x526 SWAP7 PUSH2 0x51A PUSH2 0x513 PUSH1 0x0 PUSH2 0xC5 JUMP JUMPDEST DUP1 SWAP3 PUSH2 0xAFD JUMP JUMPDEST SWAP5 PUSH2 0xAFD JUMP JUMPDEST SWAP4 PUSH2 0xB5C JUMP JUMPDEST CODESIZE DUP1 DUP1 DUP1 DUP1 PUSH2 0x4D8 JUMP JUMPDEST PUSH2 0x53B SWAP6 SWAP3 SWAP4 PUSH2 0x9CF JUMP JUMPDEST PUSH2 0x526 JUMP JUMPDEST SWAP1 DUP2 MSTORE PUSH1 0x40 DUP2 ADD SWAP3 SWAP2 PUSH2 0x77 SWAP2 PUSH1 0x20 ADD MSTORE JUMP JUMPDEST ADD MSTORE JUMP JUMPDEST SWAP1 PUSH2 0x561 SWAP1 PUSH2 0xC5 JUMP JUMPDEST PUSH1 0x0 MSTORE PUSH1 0x20 MSTORE PUSH1 0x40 PUSH1 0x0 KECCAK256 SWAP1 JUMP JUMPDEST SWAP1 PUSH2 0x561 SWAP1 PUSH2 0x260 JUMP JUMPDEST PUSH2 0xBA SWAP1 DUP2 JUMP JUMPDEST PUSH2 0xBA SWAP1 SLOAD PUSH2 0x579 JUMP JUMPDEST PUSH2 0x553 PUSH2 0x77 SWAP5 PUSH2 0x5B3 PUSH1 0x60 SWAP5 SWAP9 SWAP8 SWAP6 PUSH2 0x5AC PUSH1 0x80 DUP7 ADD SWAP11 PUSH1 0x0 DUP8 ADD SWAP1 PUSH2 0x12B JUMP JUMPDEST PUSH1 0x20 DUP6 ADD MSTORE JUMP JUMPDEST PUSH1 0x40 DUP4 ADD MSTORE JUMP JUMPDEST SWAP1 PUSH1 0x0 NOT SWAP1 PUSH2 0x239 JUMP JUMPDEST SWAP1 PUSH2 0x5D4 PUSH2 0xBA PUSH2 0x280 SWAP3 PUSH2 0xC5 JUMP JUMPDEST DUP3 SLOAD PUSH2 0x5BA JUMP JUMPDEST PUSH4 0x4E487B71 PUSH1 0xE0 SHL PUSH1 0x0 MSTORE PUSH1 0x11 PUSH1 0x4 MSTORE PUSH1 0x24 PUSH1 0x0 REVERT JUMPDEST SWAP2 SWAP1 DUP3 ADD DUP1 SWAP3 GT PUSH2 0x5FE JUMPI JUMP JUMPDEST PUSH2 0x5DB JUMP JUMPDEST SWAP1 PUSH2 0x623 PUSH2 0x61C PUSH2 0x612 DUP5 MLOAD SWAP1 JUMP JUMPDEST DUP1 DUP5 MSTORE SWAP3 PUSH1 0x20 ADD SWAP1 JUMP JUMPDEST SWAP3 PUSH1 0x20 ADD SWAP1 JUMP JUMPDEST SWAP1 PUSH1 0x0 JUMPDEST DUP2 DUP2 LT PUSH2 0x634 JUMPI POP POP POP SWAP1 JUMP JUMPDEST SWAP1 SWAP2 SWAP3 PUSH2 0x651 PUSH2 0x64A PUSH1 0x1 SWAP3 DUP7 MLOAD DUP2 MSTORE PUSH1 0x20 ADD SWAP1 JUMP JUMPDEST SWAP5 PUSH1 0x20 ADD SWAP1 JUMP JUMPDEST SWAP3 SWAP2 ADD PUSH2 0x627 JUMP JUMPDEST PUSH1 0x40 DUP1 DUP3 MSTORE PUSH2 0xBA SWAP4 SWAP2 SWAP3 PUSH2 0x670 SWAP2 DUP5 ADD SWAP1 PUSH2 0x603 JUMP JUMPDEST SWAP2 PUSH1 0x20 DUP2 DUP5 SUB SWAP2 ADD MSTORE PUSH2 0x603 JUMP JUMPDEST SWAP4 SWAP3 SWAP1 SWAP2 SWAP3 PUSH2 0x68B DUP5 MLOAD SWAP1 JUMP JUMPDEST PUSH2 0x699 PUSH2 0x4F6 PUSH2 0xBA DUP6 MLOAD SWAP1 JUMP JUMPDEST SUB PUSH2 0x8A0 JUMPI CALLER SWAP4 PUSH1 0x0 SWAP2 PUSH2 0x6AC DUP4 PUSH2 0xC5 JUMP JUMPDEST PUSH2 0x6B7 PUSH2 0xBA DUP5 MLOAD SWAP1 JUMP JUMPDEST DUP2 LT ISZERO PUSH2 0x7D1 JUMPI PUSH2 0x6C8 DUP2 DUP5 PUSH2 0xAFD JUMP JUMPDEST SWAP1 PUSH2 0x6D3 DUP2 DUP8 PUSH2 0xAFD JUMP JUMPDEST SWAP2 PUSH2 0x6DD DUP7 PUSH2 0x122 JUMP JUMPDEST SWAP3 DUP9 PUSH2 0x6E8 DUP6 PUSH2 0x116 JUMP JUMPDEST PUSH2 0x6F1 DUP14 PUSH2 0x116 JUMP JUMPDEST SUB PUSH2 0x756 JUMPI JUMPDEST PUSH2 0x703 PUSH2 0x71B SWAP6 PUSH2 0x116 JUMP JUMPDEST PUSH2 0x70C DUP3 PUSH2 0x116 JUMP JUMPDEST SUB PUSH2 0x720 JUMPI JUMPDEST POP POP POP PUSH1 0x1 ADD SWAP1 JUMP JUMPDEST PUSH2 0x6AC JUMP JUMPDEST PUSH2 0x739 PUSH2 0x748 SWAP2 PUSH2 0x734 PUSH2 0x74E SWAP6 DUP12 PUSH2 0x557 JUMP JUMPDEST PUSH2 0x56F JUMP JUMPDEST SWAP2 PUSH2 0x743 DUP4 PUSH2 0x580 JUMP JUMPDEST PUSH2 0x5F1 JUMP JUMPDEST SWAP1 PUSH2 0x5C4 JUMP JUMPDEST CODESIZE DUP1 DUP9 PUSH2 0x712 JUMP JUMPDEST POP SWAP1 SWAP2 SWAP3 PUSH2 0x770 PUSH2 0x76B DUP13 PUSH2 0x734 DUP7 DUP12 PUSH2 0x557 JUMP JUMPDEST PUSH2 0x580 JUMP JUMPDEST DUP3 DUP2 LT PUSH2 0x7AC JUMPI PUSH2 0x703 DUP4 SWAP3 PUSH2 0x7A4 DUP11 DUP16 PUSH2 0x79F SWAP1 DUP16 SWAP7 DUP11 PUSH2 0x799 PUSH2 0x71B SWAP14 SWAP13 SWAP12 PUSH2 0x734 SWAP4 SUB SWAP1 JUMP JUMPDEST SWAP5 PUSH2 0x557 JUMP JUMPDEST PUSH2 0x5C4 JUMP JUMPDEST SWAP6 POP POP PUSH2 0x6F7 JUMP JUMPDEST DUP12 PUSH2 0x198 DUP6 DUP6 PUSH2 0x7BB PUSH1 0x40 MLOAD SWAP1 JUMP JUMPDEST PUSH4 0x3DEE4C5 PUSH1 0xE0 SHL DUP2 MSTORE SWAP5 DUP6 SWAP5 PUSH1 0x4 DUP7 ADD PUSH2 0x58A JUMP JUMPDEST POP SWAP6 SWAP3 SWAP5 SWAP2 PUSH2 0x7DE DUP3 MLOAD SWAP1 JUMP JUMPDEST PUSH2 0x7EB PUSH2 0x4F6 PUSH1 0x1 PUSH2 0xC5 JUMP JUMPDEST SUB PUSH2 0x858 JUMPI PUSH2 0x837 PUSH2 0x837 PUSH2 0x831 PUSH32 0xC3D58168C5AE7397731D063D5BBF3D657854427343F4C083240F7AACAA2D0F62 SWAP6 SWAP5 PUSH2 0x82B PUSH2 0x513 PUSH2 0x83D SWAP7 PUSH2 0xC5 JUMP JUMPDEST SWAP10 PUSH2 0xAFD JUMP JUMPDEST SWAP4 PUSH2 0x260 JUMP JUMPDEST SWAP5 PUSH2 0x260 JUMP JUMPDEST SWAP5 PUSH2 0x853 PUSH2 0x84A PUSH1 0x40 MLOAD SWAP1 JUMP JUMPDEST SWAP3 DUP4 SWAP3 DUP4 PUSH2 0x540 JUMP JUMPDEST SUB SWAP1 LOG4 JUMP JUMPDEST POP SWAP4 PUSH2 0x88A PUSH2 0x837 PUSH2 0x837 PUSH32 0x4A39DC06D4C0DBC64B70AF90FD698A233A518AA5D07E595D983B8C0526C8F7FB SWAP5 PUSH2 0x260 JUMP JUMPDEST SWAP5 PUSH2 0x853 PUSH2 0x897 PUSH1 0x40 MLOAD SWAP1 JUMP JUMPDEST SWAP3 DUP4 SWAP3 DUP4 PUSH2 0x659 JUMP JUMPDEST PUSH1 0x0 PUSH2 0x8CA DUP4 PUSH2 0x8B6 PUSH2 0x8B1 DUP9 MLOAD SWAP1 JUMP JUMPDEST SWAP2 MLOAD SWAP1 JUMP JUMPDEST PUSH4 0x5B059991 PUSH1 0xE0 SHL DUP5 MSTORE SWAP1 PUSH1 0x4 DUP5 ADD PUSH2 0x540 JUMP JUMPDEST SUB PUSH1 0x0 REVERT JUMPDEST PUSH1 0x1 PUSH1 0x1 PUSH1 0xE0 SHL SUB NOT DUP2 AND SUB PUSH2 0x22 JUMPI JUMP JUMPDEST SWAP1 POP MLOAD SWAP1 PUSH2 0x77 DUP3 PUSH2 0x8CF JUMP JUMPDEST SWAP1 PUSH1 0x20 DUP3 DUP3 SUB SLT PUSH2 0x22 JUMPI PUSH2 0xBA SWAP2 PUSH2 0x8E1 JUMP JUMPDEST PUSH1 0x0 JUMPDEST DUP4 DUP2 LT PUSH2 0x915 JUMPI POP POP PUSH1 0x0 SWAP2 ADD MSTORE JUMP JUMPDEST DUP2 DUP2 ADD MLOAD DUP4 DUP3 ADD MSTORE PUSH1 0x20 ADD PUSH2 0x905 JUMP JUMPDEST PUSH2 0x946 PUSH2 0x94F PUSH1 0x20 SWAP4 PUSH2 0x95 SWAP4 PUSH2 0x93A DUP2 MLOAD SWAP1 JUMP JUMPDEST DUP1 DUP4 MSTORE SWAP4 DUP5 SWAP3 PUSH1 0x20 ADD SWAP1 JUMP JUMPDEST SWAP6 DUP7 SWAP2 ADD PUSH2 0x902 JUMP JUMPDEST PUSH1 0x1F ADD PUSH1 0x1F NOT AND SWAP1 JUMP JUMPDEST SWAP4 SWAP1 PUSH2 0x994 SWAP1 PUSH2 0xBA SWAP7 SWAP5 PUSH2 0x987 PUSH2 0x9A2 SWAP6 PUSH2 0x97D PUSH1 0xA0 DUP11 ADD SWAP5 PUSH1 0x0 DUP12 ADD SWAP1 PUSH2 0x12B JUMP JUMPDEST PUSH1 0x20 DUP10 ADD SWAP1 PUSH2 0x12B JUMP JUMPDEST DUP7 DUP3 SUB PUSH1 0x40 DUP9 ADD MSTORE PUSH2 0x603 JUMP JUMPDEST SWAP1 DUP5 DUP3 SUB PUSH1 0x60 DUP7 ADD MSTORE PUSH2 0x603 JUMP JUMPDEST SWAP2 PUSH1 0x80 DUP2 DUP5 SUB SWAP2 ADD MSTORE PUSH2 0x925 JUMP JUMPDEST RETURNDATASIZE ISZERO PUSH2 0x9CA JUMPI PUSH2 0x9BF RETURNDATASIZE PUSH2 0x99 JUMP JUMPDEST SWAP1 RETURNDATASIZE PUSH1 0x0 PUSH1 0x20 DUP5 ADD RETURNDATACOPY JUMP JUMPDEST PUSH1 0x60 SWAP1 JUMP JUMPDEST SWAP2 SWAP4 SWAP3 SWAP1 SWAP5 DUP5 EXTCODESIZE SWAP6 PUSH1 0x0 SWAP7 PUSH2 0x9E6 PUSH2 0x4F6 DUP10 PUSH2 0xC5 JUMP JUMPDEST GT PUSH2 0x9F5 JUMPI JUMPDEST POP POP POP POP POP POP POP JUMP JUMPDEST DUP7 PUSH1 0x20 SWAP5 PUSH2 0xA2C PUSH2 0xA08 PUSH2 0x29F DUP11 PUSH2 0x260 JUMP JUMPDEST SWAP5 PUSH2 0xA12 PUSH1 0x40 MLOAD SWAP1 JUMP JUMPDEST SWAP9 DUP10 SWAP8 DUP9 SWAP7 DUP8 SWAP6 PUSH4 0xBC197C81 PUSH1 0xE0 SHL DUP8 MSTORE PUSH1 0x4 DUP8 ADD PUSH2 0x959 JUMP JUMPDEST SUB SWAP3 GAS CALL PUSH1 0x0 SWAP2 DUP2 PUSH2 0xACC JUMPI JUMPDEST POP PUSH2 0xA8D JUMPI POP PUSH2 0xA50 JUMP JUMPDEST CODESIZE DUP1 DUP1 DUP1 DUP1 DUP1 DUP1 PUSH2 0x9EC JUMP JUMPDEST PUSH2 0xA58 PUSH2 0x9B0 JUMP JUMPDEST DUP1 MLOAD PUSH2 0xA66 PUSH2 0x4F6 DUP6 PUSH2 0xC5 JUMP JUMPDEST SUB PUSH2 0xA85 JUMPI POP PUSH4 0x2BFA23E7 PUSH1 0xE1 SHL DUP3 MSTORE DUP2 SWAP1 PUSH2 0x198 SWAP1 PUSH1 0x4 DUP4 ADD PUSH2 0x138 JUMP JUMPDEST DUP1 MLOAD SWAP1 PUSH1 0x20 ADD REVERT JUMPDEST PUSH2 0xAA7 PUSH4 0xBC197C81 PUSH1 0xE0 SHL JUMPDEST SWAP2 PUSH1 0x1 PUSH1 0x1 PUSH1 0xE0 SHL SUB NOT AND SWAP1 JUMP JUMPDEST SUB PUSH2 0xAB3 JUMPI POP POP PUSH2 0xA44 JUMP JUMPDEST PUSH4 0x2BFA23E7 PUSH1 0xE1 SHL DUP3 MSTORE DUP2 SWAP1 PUSH2 0x198 SWAP1 PUSH1 0x4 DUP4 ADD PUSH2 0x138 JUMP JUMPDEST PUSH2 0xAEF SWAP2 SWAP3 POP PUSH1 0x20 RETURNDATASIZE PUSH1 0x20 GT PUSH2 0xAF6 JUMPI JUMPDEST PUSH2 0xAE7 DUP2 DUP4 PUSH2 0x3D JUMP JUMPDEST DUP2 ADD SWAP1 PUSH2 0x8EE JUMP JUMPDEST SWAP1 CODESIZE PUSH2 0xA39 JUMP JUMPDEST POP RETURNDATASIZE PUSH2 0xADD JUMP JUMPDEST SWAP1 PUSH1 0x20 DUP1 SWAP2 PUSH2 0xB0A PUSH1 0x0 SWAP1 JUMP JUMPDEST POP MUL SWAP2 ADD ADD MLOAD SWAP1 JUMP JUMPDEST SWAP2 SWAP4 PUSH2 0xB48 PUSH2 0xBA SWAP7 SWAP5 PUSH2 0xB41 PUSH2 0xB4F SWAP5 SWAP8 PUSH2 0xB37 PUSH1 0xA0 DUP9 ADD SWAP10 PUSH1 0x0 DUP10 ADD SWAP1 PUSH2 0x12B JUMP JUMPDEST PUSH1 0x20 DUP8 ADD SWAP1 PUSH2 0x12B JUMP JUMPDEST PUSH1 0x40 DUP6 ADD MSTORE JUMP JUMPDEST PUSH1 0x60 DUP4 ADD MSTORE JUMP JUMPDEST PUSH1 0x80 DUP2 DUP5 SUB SWAP2 ADD MSTORE PUSH2 0x925 JUMP JUMPDEST SWAP2 SWAP4 SWAP3 SWAP1 SWAP5 DUP5 EXTCODESIZE SWAP6 PUSH1 0x0 SWAP7 PUSH2 0xB73 PUSH2 0x4F6 DUP10 PUSH2 0xC5 JUMP JUMPDEST GT PUSH2 0xB81 JUMPI POP POP POP POP POP POP POP JUMP JUMPDEST DUP7 PUSH1 0x20 SWAP5 PUSH2 0xBB8 PUSH2 0xB94 PUSH2 0x29F DUP11 PUSH2 0x260 JUMP JUMPDEST SWAP5 PUSH2 0xB9E PUSH1 0x40 MLOAD SWAP1 JUMP JUMPDEST SWAP9 DUP10 SWAP8 DUP9 SWAP7 DUP8 SWAP6 PUSH4 0xF23A6E61 PUSH1 0xE0 SHL DUP8 MSTORE PUSH1 0x4 DUP8 ADD PUSH2 0xB13 JUMP JUMPDEST SUB SWAP3 GAS CALL PUSH1 0x0 SWAP2 DUP2 PUSH2 0xBE0 JUMPI JUMPDEST POP PUSH2 0xBD0 JUMPI POP PUSH2 0xA50 JUMP JUMPDEST PUSH2 0xAA7 PUSH4 0xF23A6E61 PUSH1 0xE0 SHL PUSH2 0xA99 JUMP JUMPDEST PUSH2 0xBFA SWAP2 SWAP3 POP PUSH1 0x20 RETURNDATASIZE PUSH1 0x20 GT PUSH2 0xAF6 JUMPI PUSH2 0xAE7 DUP2 DUP4 PUSH2 0x3D JUMP JUMPDEST SWAP1 CODESIZE PUSH2 0xBC5 JUMP INVALID PUSH1 0x80 PUSH1 0x40 MSTORE PUSH1 0x4 CALLDATASIZE LT ISZERO PUSH2 0x12 JUMPI PUSH1 0x0 DUP1 REVERT JUMPDEST PUSH1 0x0 CALLDATALOAD PUSH1 0xE0 SHR DUP1 PUSH3 0xFDD58E EQ PUSH2 0xD1 JUMPI DUP1 PUSH4 0x1FFC9A7 EQ PUSH2 0xCC JUMPI DUP1 PUSH4 0xE89341C EQ PUSH2 0xC7 JUMPI DUP1 PUSH4 0x156E29F6 EQ PUSH2 0xC2 JUMPI DUP1 PUSH4 0x2EB2C2D6 EQ PUSH2 0xBD JUMPI DUP1 PUSH4 0x4E1273F4 EQ PUSH2 0xB8 JUMPI DUP1 PUSH4 0x715018A6 EQ PUSH2 0xB3 JUMPI DUP1 PUSH4 0x8DA5CB5B EQ PUSH2 0xAE JUMPI DUP1 PUSH4 0xA22CB465 EQ PUSH2 0xA9 JUMPI DUP1 PUSH4 0xE985E9C5 EQ PUSH2 0xA4 JUMPI DUP1 PUSH4 0xF242432A EQ PUSH2 0x9F JUMPI PUSH4 0xF2FDE38B SUB PUSH2 0xF7 JUMPI PUSH2 0x73D JUMP JUMPDEST PUSH2 0x70D JUMP JUMPDEST PUSH2 0x6B0 JUMP JUMPDEST PUSH2 0x674 JUMP JUMPDEST PUSH2 0x607 JUMP JUMPDEST PUSH2 0x5EF JUMP JUMPDEST PUSH2 0x5BC JUMP JUMPDEST PUSH2 0x488 JUMP JUMPDEST PUSH2 0x2A0 JUMP JUMPDEST PUSH2 0x250 JUMP JUMPDEST PUSH2 0x1A2 JUMP JUMPDEST PUSH2 0x141 JUMP JUMPDEST PUSH1 0x1 PUSH1 0x1 PUSH1 0xA0 SHL SUB AND SWAP1 JUMP JUMPDEST SWAP1 JUMP JUMPDEST PUSH1 0x1 PUSH1 0x1 PUSH1 0xA0 SHL SUB DUP2 AND JUMPDEST SUB PUSH2 0xF7 JUMPI JUMP JUMPDEST PUSH1 0x0 DUP1 REVERT JUMPDEST SWAP1 POP CALLDATALOAD SWAP1 PUSH2 0x109 DUP3 PUSH2 0xE5 JUMP JUMPDEST JUMP JUMPDEST DUP1 PUSH2 0xF0 JUMP JUMPDEST SWAP1 POP CALLDATALOAD SWAP1 PUSH2 0x109 DUP3 PUSH2 0x10B JUMP JUMPDEST SWAP2 SWAP1 PUSH1 0x40 DUP4 DUP3 SUB SLT PUSH2 0xF7 JUMPI PUSH2 0xE2 SWAP1 PUSH1 0x20 PUSH2 0x13A DUP3 DUP7 PUSH2 0xFC JUMP JUMPDEST SWAP5 ADD PUSH2 0x111 JUMP JUMPDEST CALLVALUE PUSH2 0xF7 JUMPI PUSH2 0x16D PUSH2 0x15D PUSH2 0x157 CALLDATASIZE PUSH1 0x4 PUSH2 0x11E JUMP JUMPDEST SWAP1 PUSH2 0x7BB JUMP JUMPDEST PUSH1 0x40 MLOAD SWAP2 DUP3 SWAP2 DUP3 SWAP1 DUP2 MSTORE PUSH1 0x20 ADD SWAP1 JUMP JUMPDEST SUB SWAP1 RETURN JUMPDEST PUSH1 0x1 PUSH1 0x1 PUSH1 0xE0 SHL SUB NOT DUP2 AND PUSH2 0xF0 JUMP JUMPDEST SWAP1 POP CALLDATALOAD SWAP1 PUSH2 0x109 DUP3 PUSH2 0x171 JUMP JUMPDEST SWAP1 PUSH1 0x20 DUP3 DUP3 SUB SLT PUSH2 0xF7 JUMPI PUSH2 0xE2 SWAP2 PUSH2 0x181 JUMP JUMPDEST CALLVALUE PUSH2 0xF7 JUMPI PUSH2 0x16D PUSH2 0x1BD PUSH2 0x1B8 CALLDATASIZE PUSH1 0x4 PUSH2 0x18E JUMP JUMPDEST PUSH2 0x7E0 JUMP JUMPDEST PUSH1 0x40 MLOAD JUMPDEST SWAP2 DUP3 SWAP2 DUP3 SWAP1 ISZERO ISZERO DUP2 MSTORE PUSH1 0x20 ADD SWAP1 JUMP JUMPDEST SWAP1 PUSH1 0x20 DUP3 DUP3 SUB SLT PUSH2 0xF7 JUMPI PUSH2 0xE2 SWAP2 PUSH2 0x111 JUMP JUMPDEST PUSH1 0x0 JUMPDEST DUP4 DUP2 LT PUSH2 0x1F7 JUMPI POP POP PUSH1 0x0 SWAP2 ADD MSTORE JUMP JUMPDEST DUP2 DUP2 ADD MLOAD DUP4 DUP3 ADD MSTORE PUSH1 0x20 ADD PUSH2 0x1E7 JUMP JUMPDEST PUSH2 0x228 PUSH2 0x231 PUSH1 0x20 SWAP4 PUSH2 0x23B SWAP4 PUSH2 0x21C DUP2 MLOAD SWAP1 JUMP JUMPDEST DUP1 DUP4 MSTORE SWAP4 DUP5 SWAP3 PUSH1 0x20 ADD SWAP1 JUMP JUMPDEST SWAP6 DUP7 SWAP2 ADD PUSH2 0x1E4 JUMP JUMPDEST PUSH1 0x1F ADD PUSH1 0x1F NOT AND SWAP1 JUMP JUMPDEST ADD SWAP1 JUMP JUMPDEST PUSH1 0x20 DUP1 DUP3 MSTORE PUSH2 0xE2 SWAP3 SWAP2 ADD SWAP1 PUSH2 0x207 JUMP JUMPDEST CALLVALUE PUSH2 0xF7 JUMPI PUSH2 0x16D PUSH2 0x26B PUSH2 0x266 CALLDATASIZE PUSH1 0x4 PUSH2 0x1D0 JUMP JUMPDEST PUSH2 0x923 JUMP JUMPDEST PUSH1 0x40 MLOAD SWAP2 DUP3 SWAP2 DUP3 PUSH2 0x23F JUMP JUMPDEST SWAP1 SWAP2 PUSH1 0x60 DUP3 DUP5 SUB SLT PUSH2 0xF7 JUMPI PUSH2 0xE2 PUSH2 0x290 DUP5 DUP5 PUSH2 0xFC JUMP JUMPDEST SWAP4 PUSH1 0x40 PUSH2 0x13A DUP3 PUSH1 0x20 DUP8 ADD PUSH2 0x111 JUMP JUMPDEST CALLVALUE PUSH2 0xF7 JUMPI PUSH2 0x2B9 PUSH2 0x2B3 CALLDATASIZE PUSH1 0x4 PUSH2 0x277 JUMP JUMPDEST SWAP2 PUSH2 0x979 JUMP JUMPDEST PUSH1 0x40 MLOAD STOP JUMPDEST PUSH4 0x4E487B71 PUSH1 0xE0 SHL PUSH1 0x0 MSTORE PUSH1 0x41 PUSH1 0x4 MSTORE PUSH1 0x24 PUSH1 0x0 REVERT JUMPDEST SWAP1 PUSH1 0x1F ADD PUSH1 0x1F NOT AND DUP2 ADD SWAP1 DUP2 LT PUSH8 0xFFFFFFFFFFFFFFFF DUP3 GT OR PUSH2 0x2F6 JUMPI PUSH1 0x40 MSTORE JUMP JUMPDEST PUSH2 0x2BE JUMP JUMPDEST SWAP1 PUSH2 0x109 PUSH2 0x308 PUSH1 0x40 MLOAD SWAP1 JUMP JUMPDEST SWAP3 DUP4 PUSH2 0x2D4 JUMP JUMPDEST PUSH8 0xFFFFFFFFFFFFFFFF DUP2 GT PUSH2 0x2F6 JUMPI PUSH1 0x20 DUP1 SWAP2 MUL ADD SWAP1 JUMP JUMPDEST SWAP1 SWAP3 SWAP2 SWAP3 PUSH2 0x33C PUSH2 0x337 DUP3 PUSH2 0x30F JUMP JUMPDEST PUSH2 0x2FB JUMP JUMPDEST SWAP4 DUP2 DUP6 MSTORE PUSH1 0x20 DUP1 DUP7 ADD SWAP3 MUL DUP4 ADD SWAP3 DUP2 DUP5 GT PUSH2 0xF7 JUMPI SWAP2 JUMPDEST DUP4 DUP4 LT PUSH2 0x360 JUMPI POP POP POP POP JUMP JUMPDEST PUSH1 0x20 DUP1 SWAP2 PUSH2 0x36E DUP5 DUP7 PUSH2 0x111 JUMP JUMPDEST DUP2 MSTORE ADD SWAP3 ADD SWAP2 PUSH2 0x353 JUMP JUMPDEST SWAP1 DUP1 PUSH1 0x1F DUP4 ADD SLT ISZERO PUSH2 0xF7 JUMPI DUP2 PUSH1 0x20 PUSH2 0xE2 SWAP4 CALLDATALOAD SWAP2 ADD PUSH2 0x327 JUMP JUMPDEST PUSH8 0xFFFFFFFFFFFFFFFF DUP2 GT PUSH2 0x2F6 JUMPI PUSH1 0x20 SWAP1 PUSH1 0x1F ADD PUSH1 0x1F NOT AND ADD SWAP1 JUMP JUMPDEST SWAP1 DUP3 PUSH1 0x0 SWAP4 SWAP3 DUP3 CALLDATACOPY ADD MSTORE JUMP JUMPDEST SWAP1 SWAP3 SWAP2 SWAP3 PUSH2 0x3CD PUSH2 0x337 DUP3 PUSH2 0x394 JUMP JUMPDEST SWAP4 DUP2 DUP6 MSTORE DUP2 DUP4 ADD GT PUSH2 0xF7 JUMPI PUSH2 0x109 SWAP2 PUSH1 0x20 DUP6 ADD SWAP1 PUSH2 0x3B1 JUMP JUMPDEST SWAP1 DUP1 PUSH1 0x1F DUP4 ADD SLT ISZERO PUSH2 0xF7 JUMPI DUP2 PUSH1 0x20 PUSH2 0xE2 SWAP4 CALLDATALOAD SWAP2 ADD PUSH2 0x3BD JUMP JUMPDEST SWAP2 SWAP1 SWAP2 PUSH1 0xA0 DUP2 DUP5 SUB SLT PUSH2 0xF7 JUMPI PUSH2 0x419 DUP4 DUP3 PUSH2 0xFC JUMP JUMPDEST SWAP3 PUSH2 0x427 DUP2 PUSH1 0x20 DUP5 ADD PUSH2 0xFC JUMP JUMPDEST SWAP3 PUSH1 0x40 DUP4 ADD CALLDATALOAD PUSH8 0xFFFFFFFFFFFFFFFF DUP2 GT PUSH2 0xF7 JUMPI DUP3 PUSH2 0x448 SWAP2 DUP6 ADD PUSH2 0x379 JUMP JUMPDEST SWAP3 PUSH1 0x60 DUP2 ADD CALLDATALOAD PUSH8 0xFFFFFFFFFFFFFFFF DUP2 GT PUSH2 0xF7 JUMPI DUP4 PUSH2 0x469 SWAP2 DUP4 ADD PUSH2 0x379 JUMP JUMPDEST SWAP3 PUSH1 0x80 DUP3 ADD CALLDATALOAD PUSH8 0xFFFFFFFFFFFFFFFF DUP2 GT PUSH2 0xF7 JUMPI PUSH2 0xE2 SWAP3 ADD PUSH2 0x3E7 JUMP JUMPDEST CALLVALUE PUSH2 0xF7 JUMPI PUSH2 0x2B9 PUSH2 0x49B CALLDATASIZE PUSH1 0x4 PUSH2 0x402 JUMP JUMPDEST SWAP4 SWAP3 SWAP1 SWAP3 PUSH2 0x984 JUMP JUMPDEST SWAP1 SWAP3 SWAP2 SWAP3 PUSH2 0x4B4 PUSH2 0x337 DUP3 PUSH2 0x30F JUMP JUMPDEST SWAP4 DUP2 DUP6 MSTORE PUSH1 0x20 DUP1 DUP7 ADD SWAP3 MUL DUP4 ADD SWAP3 DUP2 DUP5 GT PUSH2 0xF7 JUMPI SWAP2 JUMPDEST DUP4 DUP4 LT PUSH2 0x4D8 JUMPI POP POP POP POP JUMP JUMPDEST PUSH1 0x20 DUP1 SWAP2 PUSH2 0x4E6 DUP5 DUP7 PUSH2 0xFC JUMP JUMPDEST DUP2 MSTORE ADD SWAP3 ADD SWAP2 PUSH2 0x4CB JUMP JUMPDEST SWAP1 DUP1 PUSH1 0x1F DUP4 ADD SLT ISZERO PUSH2 0xF7 JUMPI DUP2 PUSH1 0x20 PUSH2 0xE2 SWAP4 CALLDATALOAD SWAP2 ADD PUSH2 0x4A4 JUMP JUMPDEST SWAP2 SWAP1 SWAP2 PUSH1 0x40 DUP2 DUP5 SUB SLT PUSH2 0xF7 JUMPI DUP1 CALLDATALOAD PUSH8 0xFFFFFFFFFFFFFFFF DUP2 GT PUSH2 0xF7 JUMPI DUP4 PUSH2 0x536 SWAP2 DUP4 ADD PUSH2 0x4F1 JUMP JUMPDEST SWAP3 PUSH1 0x20 DUP3 ADD CALLDATALOAD PUSH8 0xFFFFFFFFFFFFFFFF DUP2 GT PUSH2 0xF7 JUMPI PUSH2 0xE2 SWAP3 ADD PUSH2 0x379 JUMP JUMPDEST SWAP1 PUSH2 0x575 PUSH2 0x56E PUSH2 0x564 DUP5 MLOAD SWAP1 JUMP JUMPDEST DUP1 DUP5 MSTORE SWAP3 PUSH1 0x20 ADD SWAP1 JUMP JUMPDEST SWAP3 PUSH1 0x20 ADD SWAP1 JUMP JUMPDEST SWAP1 PUSH1 0x0 JUMPDEST DUP2 DUP2 LT PUSH2 0x586 JUMPI POP POP POP SWAP1 JUMP JUMPDEST SWAP1 SWAP2 SWAP3 PUSH2 0x5A3 PUSH2 0x59C PUSH1 0x1 SWAP3 DUP7 MLOAD DUP2 MSTORE PUSH1 0x20 ADD SWAP1 JUMP JUMPDEST SWAP5 PUSH1 0x20 ADD SWAP1 JUMP JUMPDEST SWAP3 SWAP2 ADD PUSH2 0x579 JUMP JUMPDEST PUSH1 0x20 DUP1 DUP3 MSTORE PUSH2 0xE2 SWAP3 SWAP2 ADD SWAP1 PUSH2 0x555 JUMP JUMPDEST CALLVALUE PUSH2 0xF7 JUMPI PUSH2 0x16D PUSH2 0x5D8 PUSH2 0x5D2 CALLDATASIZE PUSH1 0x4 PUSH2 0x50C JUMP JUMPDEST SWAP1 PUSH2 0xA72 JUMP JUMPDEST PUSH1 0x40 MLOAD SWAP2 DUP3 SWAP2 DUP3 PUSH2 0x5AB JUMP JUMPDEST PUSH1 0x0 SWAP2 SUB SLT PUSH2 0xF7 JUMPI JUMP JUMPDEST CALLVALUE PUSH2 0xF7 JUMPI PUSH2 0x5FF CALLDATASIZE PUSH1 0x4 PUSH2 0x5E4 JUMP JUMPDEST PUSH2 0x2B9 PUSH2 0xB57 JUMP JUMPDEST CALLVALUE PUSH2 0xF7 JUMPI PUSH2 0x617 CALLDATASIZE PUSH1 0x4 PUSH2 0x5E4 JUMP JUMPDEST PUSH2 0x16D PUSH2 0x622 PUSH2 0xB72 JUMP JUMPDEST PUSH1 0x40 MLOAD SWAP2 DUP3 SWAP2 DUP3 PUSH1 0x1 PUSH1 0x1 PUSH1 0xA0 SHL SUB SWAP1 SWAP2 AND DUP2 MSTORE PUSH1 0x20 ADD SWAP1 JUMP JUMPDEST DUP1 ISZERO ISZERO PUSH2 0xF0 JUMP JUMPDEST SWAP1 POP CALLDATALOAD SWAP1 PUSH2 0x109 DUP3 PUSH2 0x63C JUMP JUMPDEST SWAP2 SWAP1 PUSH1 0x40 DUP4 DUP3 SUB SLT PUSH2 0xF7 JUMPI PUSH2 0xE2 SWAP1 PUSH1 0x20 PUSH2 0x66D DUP3 DUP7 PUSH2 0xFC JUMP JUMPDEST SWAP5 ADD PUSH2 0x644 JUMP JUMPDEST CALLVALUE PUSH2 0xF7 JUMPI PUSH2 0x2B9 PUSH2 0x687 CALLDATASIZE PUSH1 0x4 PUSH2 0x651 JUMP JUMPDEST SWAP1 PUSH2 0xB7C JUMP JUMPDEST SWAP2 SWAP1 PUSH1 0x40 DUP4 DUP3 SUB SLT PUSH2 0xF7 JUMPI PUSH2 0xE2 SWAP1 PUSH1 0x20 PUSH2 0x6A9 DUP3 DUP7 PUSH2 0xFC JUMP JUMPDEST SWAP5 ADD PUSH2 0xFC JUMP JUMPDEST CALLVALUE PUSH2 0xF7 JUMPI PUSH2 0x16D PUSH2 0x1BD PUSH2 0x6C6 CALLDATASIZE PUSH1 0x4 PUSH2 0x68D JUMP JUMPDEST SWAP1 PUSH2 0xB87 JUMP JUMPDEST SWAP2 SWAP1 SWAP2 PUSH1 0xA0 DUP2 DUP5 SUB SLT PUSH2 0xF7 JUMPI PUSH2 0x6E3 DUP4 DUP3 PUSH2 0xFC JUMP JUMPDEST SWAP3 PUSH2 0x6F1 DUP2 PUSH1 0x20 DUP5 ADD PUSH2 0xFC JUMP JUMPDEST SWAP3 PUSH2 0x6FF DUP3 PUSH1 0x40 DUP6 ADD PUSH2 0x111 JUMP JUMPDEST SWAP3 PUSH2 0x469 DUP4 PUSH1 0x60 DUP4 ADD PUSH2 0x111 JUMP JUMPDEST CALLVALUE PUSH2 0xF7 JUMPI PUSH2 0x2B9 PUSH2 0x720 CALLDATASIZE PUSH1 0x4 PUSH2 0x6CC JUMP JUMPDEST SWAP4 SWAP3 SWAP1 SWAP3 PUSH2 0xBA9 JUMP JUMPDEST SWAP1 PUSH1 0x20 DUP3 DUP3 SUB SLT PUSH2 0xF7 JUMPI PUSH2 0xE2 SWAP2 PUSH2 0xFC JUMP JUMPDEST CALLVALUE PUSH2 0xF7 JUMPI PUSH2 0x2B9 PUSH2 0x750 CALLDATASIZE PUSH1 0x4 PUSH2 0x729 JUMP JUMPDEST PUSH2 0xC41 JUMP JUMPDEST PUSH2 0xE2 PUSH2 0xE2 PUSH2 0xE2 SWAP3 SWAP1 JUMP JUMPDEST SWAP1 PUSH2 0x76C SWAP1 PUSH2 0x755 JUMP JUMPDEST PUSH1 0x0 MSTORE PUSH1 0x20 MSTORE PUSH1 0x40 PUSH1 0x0 KECCAK256 SWAP1 JUMP JUMPDEST PUSH2 0xE2 SWAP1 PUSH2 0xD6 SWAP1 PUSH1 0x1 PUSH1 0x1 PUSH1 0xA0 SHL SUB AND DUP3 JUMP JUMPDEST PUSH2 0xE2 SWAP1 PUSH2 0x77A JUMP JUMPDEST PUSH2 0xE2 SWAP1 PUSH2 0x78E JUMP JUMPDEST SWAP1 PUSH2 0x76C SWAP1 PUSH2 0x797 JUMP JUMPDEST PUSH2 0xE2 SWAP1 DUP2 JUMP JUMPDEST PUSH2 0xE2 SWAP1 SLOAD PUSH2 0x7AA JUMP JUMPDEST PUSH2 0x7DB SWAP1 PUSH2 0x7D6 PUSH2 0xE2 SWAP4 PUSH2 0x7CE PUSH1 0x0 SWAP1 JUMP JUMPDEST POP PUSH1 0x0 PUSH2 0x762 JUMP JUMPDEST PUSH2 0x7A0 JUMP JUMPDEST PUSH2 0x7B1 JUMP JUMPDEST PUSH4 0x6CDB3D13 PUSH1 0xE1 SHL PUSH1 0x1 PUSH1 0x1 PUSH1 0xE0 SHL SUB NOT DUP3 AND EQ SWAP1 DUP2 ISZERO PUSH2 0x810 JUMPI JUMPDEST DUP2 ISZERO PUSH2 0x806 JUMPI POP SWAP1 JUMP JUMPDEST PUSH2 0xE2 SWAP2 POP PUSH2 0xC4A JUMP JUMPDEST PUSH1 0x1 PUSH1 0x1 PUSH1 0xE0 SHL SUB NOT DUP2 AND PUSH4 0x3A24D07 PUSH1 0xE2 SHL EQ SWAP2 POP PUSH2 0x7FC JUMP JUMPDEST PUSH4 0x4E487B71 PUSH1 0xE0 SHL PUSH1 0x0 MSTORE PUSH1 0x22 PUSH1 0x4 MSTORE PUSH1 0x24 PUSH1 0x0 REVERT JUMPDEST SWAP1 PUSH1 0x1 PUSH1 0x2 DUP4 DIV SWAP3 AND DUP1 ISZERO PUSH2 0x861 JUMPI JUMPDEST PUSH1 0x20 DUP4 LT EQ PUSH2 0x85C JUMPI JUMP JUMPDEST PUSH2 0x82B JUMP JUMPDEST SWAP2 PUSH1 0x7F AND SWAP2 PUSH2 0x851 JUMP JUMPDEST DUP1 SLOAD PUSH1 0x0 SWAP4 SWAP3 SWAP2 PUSH2 0x888 PUSH2 0x87E DUP4 PUSH2 0x841 JUMP JUMPDEST DUP1 DUP6 MSTORE SWAP4 PUSH1 0x20 ADD SWAP1 JUMP JUMPDEST SWAP2 PUSH1 0x1 DUP2 AND SWAP1 DUP2 ISZERO PUSH2 0x8DA JUMPI POP PUSH1 0x1 EQ PUSH2 0x8A1 JUMPI POP POP POP JUMP JUMPDEST PUSH2 0x8B4 SWAP2 SWAP3 SWAP4 SWAP5 POP PUSH1 0x0 MSTORE PUSH1 0x20 PUSH1 0x0 KECCAK256 SWAP1 JUMP JUMPDEST SWAP2 PUSH1 0x0 SWAP3 JUMPDEST DUP2 DUP5 LT PUSH2 0x8C6 JUMPI POP POP ADD SWAP1 JUMP JUMPDEST DUP1 SLOAD DUP5 DUP5 ADD MSTORE PUSH1 0x20 SWAP1 SWAP4 ADD SWAP3 PUSH1 0x1 ADD PUSH2 0x8B9 JUMP JUMPDEST SWAP3 SWAP5 SWAP6 POP POP POP PUSH1 0xFF NOT AND DUP3 MSTORE ISZERO ISZERO PUSH1 0x20 MUL ADD SWAP1 JUMP JUMPDEST SWAP1 PUSH2 0xE2 SWAP2 PUSH2 0x86B JUMP JUMPDEST SWAP1 PUSH2 0x109 PUSH2 0x913 SWAP3 PUSH2 0x90A PUSH1 0x40 MLOAD SWAP1 JUMP JUMPDEST SWAP4 DUP5 DUP1 SWAP3 PUSH2 0x8EF JUMP JUMPDEST SUB DUP4 PUSH2 0x2D4 JUMP JUMPDEST PUSH2 0xE2 SWAP1 PUSH2 0x8F9 JUMP JUMPDEST POP PUSH2 0xE2 PUSH1 0x2 PUSH2 0x91A JUMP JUMPDEST SWAP1 PUSH2 0x109 SWAP3 SWAP2 PUSH2 0x93C PUSH2 0xC68 JUMP JUMPDEST PUSH2 0x965 JUMP JUMPDEST SWAP1 PUSH2 0x94E PUSH2 0x337 DUP4 PUSH2 0x394 JUMP JUMPDEST SWAP2 DUP3 MSTORE JUMP JUMPDEST PUSH2 0xE2 PUSH1 0x0 PUSH2 0x941 JUMP JUMPDEST PUSH2 0xE2 PUSH2 0x953 JUMP JUMPDEST SWAP1 SWAP2 PUSH2 0x109 SWAP3 PUSH2 0x973 PUSH2 0x95D JUMP JUMPDEST SWAP3 PUSH2 0xCA7 JUMP JUMPDEST SWAP1 PUSH2 0x109 SWAP3 SWAP2 PUSH2 0x92E JUMP JUMPDEST CALLER SWAP6 SWAP5 SWAP4 SWAP3 SWAP2 SWAP1 PUSH1 0x1 PUSH1 0x1 PUSH1 0xA0 SHL SUB DUP2 AND DUP8 EQ ISZERO DUP1 PUSH2 0x9DA JUMPI JUMPDEST PUSH2 0x9AD JUMPI PUSH2 0x109 SWAP6 SWAP7 POP PUSH2 0xD25 JUMP JUMPDEST PUSH4 0x711BEC91 PUSH1 0xE1 SHL PUSH1 0x0 SWAP1 DUP2 MSTORE PUSH1 0x1 PUSH1 0x1 PUSH1 0xA0 SHL SUB DUP1 DUP10 AND PUSH1 0x4 MSTORE SWAP1 SWAP2 AND PUSH1 0x24 MSTORE PUSH1 0x44 SUB PUSH1 0x0 REVERT JUMPDEST SUB PUSH1 0x0 REVERT JUMPDEST POP PUSH2 0x9EC PUSH2 0x9E8 DUP9 DUP4 PUSH2 0xB87 JUMP JUMPDEST ISZERO SWAP1 JUMP JUMPDEST PUSH2 0x99E JUMP JUMPDEST SWAP1 DUP2 MSTORE PUSH1 0x40 DUP2 ADD SWAP3 SWAP2 PUSH2 0x109 SWAP2 PUSH1 0x20 ADD MSTORE JUMP JUMPDEST ADD MSTORE JUMP JUMPDEST SWAP1 PUSH2 0x94E PUSH2 0x337 DUP4 PUSH2 0x30F JUMP JUMPDEST CALLDATASIZE SWAP1 CALLDATACOPY JUMP JUMPDEST SWAP1 PUSH2 0x109 PUSH2 0xA30 PUSH2 0xA2A DUP5 PUSH2 0xA08 JUMP JUMPDEST SWAP4 PUSH2 0x30F JUMP JUMPDEST PUSH1 0x1F NOT ADD PUSH1 0x20 DUP5 ADD PUSH2 0xA15 JUMP JUMPDEST PUSH4 0x4E487B71 PUSH1 0xE0 SHL PUSH1 0x0 MSTORE PUSH1 0x32 PUSH1 0x4 MSTORE PUSH1 0x24 PUSH1 0x0 REVERT JUMPDEST SWAP1 PUSH2 0xA5C DUP3 MLOAD SWAP1 JUMP JUMPDEST DUP2 LT ISZERO PUSH2 0xA6D JUMPI PUSH1 0x20 DUP1 SWAP2 MUL ADD ADD SWAP1 JUMP JUMPDEST PUSH2 0xA3D JUMP JUMPDEST SWAP1 DUP2 MLOAD PUSH2 0xA87 PUSH2 0xA83 PUSH2 0xE2 DUP5 MLOAD SWAP1 JUMP JUMPDEST SWAP2 SWAP1 JUMP JUMPDEST SUB PUSH2 0xAF5 JUMPI PUSH2 0xA9C PUSH2 0xA97 DUP4 MLOAD SWAP1 JUMP JUMPDEST PUSH2 0xA1A JUMP JUMPDEST SWAP2 PUSH2 0xAA7 PUSH1 0x0 PUSH2 0x755 JUMP JUMPDEST PUSH2 0xAB2 PUSH2 0xE2 DUP4 MLOAD SWAP1 JUMP JUMPDEST DUP2 LT ISZERO PUSH2 0xAEF JUMPI DUP1 PUSH2 0xAE4 PUSH2 0xAD7 PUSH2 0xACD PUSH2 0xAEA SWAP5 DUP7 PUSH2 0xDB2 JUMP JUMPDEST PUSH2 0x157 DUP5 DUP9 PUSH2 0xDB2 JUMP JUMPDEST PUSH2 0xAE1 DUP4 DUP9 PUSH2 0xA53 JUMP JUMPDEST MSTORE JUMP JUMPDEST PUSH1 0x1 ADD SWAP1 JUMP JUMPDEST PUSH2 0xAA7 JUMP JUMPDEST POP POP POP SWAP1 JUMP JUMPDEST PUSH1 0x0 SWAP2 PUSH2 0xB0B PUSH2 0xB06 PUSH2 0x9D5 SWAP4 MLOAD SWAP1 JUMP JUMPDEST SWAP2 MLOAD SWAP1 JUMP JUMPDEST PUSH4 0x5B059991 PUSH1 0xE0 SHL DUP5 MSTORE SWAP1 PUSH1 0x4 DUP5 ADD PUSH2 0x9F1 JUMP JUMPDEST PUSH2 0xB27 PUSH2 0xC68 JUMP JUMPDEST PUSH2 0x109 PUSH2 0xB45 JUMP JUMPDEST PUSH2 0xD6 PUSH2 0xE2 PUSH2 0xE2 SWAP3 SWAP1 JUMP JUMPDEST PUSH2 0xE2 SWAP1 PUSH2 0xB2F JUMP JUMPDEST PUSH2 0x109 PUSH2 0xB52 PUSH1 0x0 PUSH2 0xB3C JUMP JUMPDEST PUSH2 0xDF8 JUMP JUMPDEST PUSH2 0x109 PUSH2 0xB1F JUMP JUMPDEST PUSH2 0xE2 SWAP1 PUSH2 0xD6 JUMP JUMPDEST PUSH2 0xE2 SWAP1 SLOAD PUSH2 0xB5F JUMP JUMPDEST PUSH2 0xE2 PUSH1 0x3 PUSH2 0xB68 JUMP JUMPDEST PUSH2 0x109 SWAP2 SWAP1 CALLER PUSH2 0xE71 JUMP JUMPDEST PUSH2 0xE2 SWAP2 PUSH2 0x7D6 PUSH2 0xBA2 SWAP3 PUSH2 0xB9A PUSH1 0x0 SWAP1 JUMP JUMPDEST POP PUSH1 0x1 PUSH2 0x7A0 JUMP JUMPDEST SLOAD PUSH1 0xFF AND SWAP1 JUMP JUMPDEST CALLER SWAP6 SWAP5 SWAP4 SWAP3 SWAP2 SWAP1 PUSH1 0x1 PUSH1 0x1 PUSH1 0xA0 SHL SUB DUP2 AND DUP8 EQ ISZERO DUP1 PUSH2 0xBD2 JUMPI JUMPDEST PUSH2 0x9AD JUMPI PUSH2 0x109 SWAP6 SWAP7 POP PUSH2 0xF06 JUMP JUMPDEST POP PUSH2 0xBE0 PUSH2 0x9E8 DUP9 DUP4 PUSH2 0xB87 JUMP JUMPDEST PUSH2 0xBC3 JUMP JUMPDEST PUSH2 0x109 SWAP1 PUSH2 0xBF1 PUSH2 0xC68 JUMP JUMPDEST PUSH1 0x0 PUSH2 0xBFC DUP2 PUSH2 0xB3C JUMP JUMPDEST PUSH1 0x1 PUSH1 0x1 PUSH1 0xA0 SHL SUB DUP2 AND PUSH1 0x1 PUSH1 0x1 PUSH1 0xA0 SHL SUB DUP5 AND EQ PUSH2 0xC20 JUMPI POP POP PUSH2 0x109 SWAP1 PUSH2 0xDF8 JUMP JUMPDEST PUSH4 0x1E4FBDF7 PUSH1 0xE0 SHL DUP3 MSTORE PUSH1 0x1 PUSH1 0x1 PUSH1 0xA0 SHL SUB AND PUSH1 0x4 DUP3 ADD MSTORE PUSH1 0x24 SWAP1 REVERT JUMPDEST SUB SWAP1 REVERT JUMPDEST PUSH2 0x109 SWAP1 PUSH2 0xBE5 JUMP JUMPDEST PUSH2 0xC64 PUSH4 0x1FFC9A7 PUSH1 0xE0 SHL JUMPDEST SWAP2 PUSH1 0x1 PUSH1 0x1 PUSH1 0xE0 SHL SUB NOT AND SWAP1 JUMP JUMPDEST EQ SWAP1 JUMP JUMPDEST PUSH2 0xC70 PUSH2 0xB72 JUMP JUMPDEST CALLER SWAP1 DUP2 SWAP1 PUSH1 0x1 PUSH1 0x1 PUSH1 0xA0 SHL SUB AND SUB PUSH2 0xC85 JUMPI POP JUMP JUMPDEST PUSH4 0x118CDAA7 PUSH1 0xE0 SHL PUSH1 0x0 SWAP1 DUP2 MSTORE PUSH1 0x1 PUSH1 0x1 PUSH1 0xA0 SHL SUB SWAP1 SWAP2 AND PUSH1 0x4 MSTORE PUSH1 0x24 SUB PUSH1 0x0 REVERT JUMPDEST SWAP1 SWAP4 SWAP3 SWAP2 SWAP4 PUSH1 0x0 SWAP1 PUSH2 0xCB8 DUP3 PUSH2 0xB3C JUMP JUMPDEST SWAP2 PUSH1 0x1 PUSH1 0x1 PUSH1 0xA0 SHL SUB DUP4 AND PUSH1 0x1 PUSH1 0x1 PUSH1 0xA0 SHL SUB DUP6 AND EQ PUSH2 0xD07 JUMPI POP PUSH2 0x109 SWAP5 SWAP6 PUSH2 0xCFF PUSH1 0x40 MLOAD SWAP3 PUSH1 0x1 DUP5 MSTORE PUSH1 0x20 DUP5 ADD MSTORE PUSH1 0x40 DUP4 ADD SWAP2 PUSH1 0x1 DUP4 MSTORE PUSH1 0x20 DUP4 ADD MSTORE PUSH1 0x40 DUP3 ADD PUSH1 0x40 MSTORE JUMP JUMPDEST SWAP3 SWAP1 SWAP2 PUSH2 0xFB0 JUMP JUMPDEST PUSH4 0x2BFA23E7 PUSH1 0xE1 SHL DUP2 MSTORE PUSH1 0x1 PUSH1 0x1 PUSH1 0xA0 SHL SUB DUP4 AND PUSH1 0x4 DUP3 ADD MSTORE PUSH1 0x24 SWAP1 REVERT JUMPDEST SWAP5 SWAP4 SWAP3 SWAP2 SWAP1 PUSH1 0x0 SWAP6 PUSH2 0xD36 DUP8 PUSH2 0xB3C JUMP JUMPDEST DUP8 PUSH1 0x1 PUSH1 0x1 PUSH1 0xA0 SHL SUB DUP3 AND PUSH1 0x1 PUSH1 0x1 PUSH1 0xA0 SHL SUB DUP6 AND EQ PUSH2 0xD92 JUMPI POP PUSH1 0x1 PUSH1 0x1 PUSH1 0xA0 SHL SUB DUP2 AND PUSH1 0x1 PUSH1 0x1 PUSH1 0xA0 SHL SUB DUP4 AND EQ PUSH2 0xD76 JUMPI POP PUSH2 0x109 SWAP6 SWAP7 POP PUSH2 0xFB0 JUMP JUMPDEST PUSH3 0x6A0D45 PUSH1 0xE2 SHL DUP9 MSTORE PUSH1 0x1 PUSH1 0x1 PUSH1 0xA0 SHL SUB AND PUSH1 0x4 DUP9 ADD MSTORE PUSH1 0x24 DUP8 REVERT JUMPDEST PUSH4 0x2BFA23E7 PUSH1 0xE1 SHL DUP2 MSTORE PUSH1 0x1 PUSH1 0x1 PUSH1 0xA0 SHL SUB SWAP2 SWAP1 SWAP2 AND PUSH1 0x4 DUP3 ADD MSTORE PUSH1 0x24 SWAP1 REVERT JUMPDEST SWAP1 PUSH1 0x20 DUP1 SWAP2 PUSH2 0xDBF PUSH1 0x0 SWAP1 JUMP JUMPDEST POP MUL SWAP2 ADD ADD MLOAD SWAP1 JUMP JUMPDEST SWAP1 PUSH1 0x1 PUSH1 0x1 PUSH1 0xA0 SHL SUB SWAP1 JUMPDEST SWAP2 DUP2 NOT AND SWAP2 AND OR SWAP1 JUMP JUMPDEST SWAP1 PUSH2 0xDED PUSH2 0xE2 PUSH2 0xDF4 SWAP3 PUSH2 0x797 JUMP JUMPDEST DUP3 SLOAD PUSH2 0xDC8 JUMP JUMPDEST SWAP1 SSTORE JUMP JUMPDEST PUSH2 0xE1E PUSH2 0xE18 PUSH2 0xE08 PUSH1 0x3 PUSH2 0xB68 JUMP JUMPDEST PUSH2 0xE13 DUP5 PUSH1 0x3 PUSH2 0xDDD JUMP JUMPDEST PUSH2 0x797 JUMP JUMPDEST SWAP2 PUSH2 0x797 JUMP JUMPDEST SWAP1 PUSH32 0x8BE0079C531659141344CD1FD0A4F28419497F9722A3DAAFE3B4186F6B6457E0 PUSH2 0xE49 PUSH1 0x40 MLOAD SWAP1 JUMP JUMPDEST DUP1 DUP1 JUMPDEST SUB SWAP1 LOG3 JUMP JUMPDEST SWAP1 PUSH1 0xFF SWAP1 PUSH2 0xDD3 JUMP JUMPDEST SWAP1 PUSH2 0xE6A PUSH2 0xE2 PUSH2 0xDF4 SWAP3 ISZERO ISZERO SWAP1 JUMP JUMPDEST DUP3 SLOAD PUSH2 0xE51 JUMP JUMPDEST PUSH1 0x0 PUSH2 0xE7C DUP2 PUSH2 0xB3C JUMP JUMPDEST PUSH1 0x1 PUSH1 0x1 PUSH1 0xA0 SHL SUB DUP2 AND PUSH1 0x1 PUSH1 0x1 PUSH1 0xA0 SHL SUB DUP6 AND EQ PUSH2 0xEEA JUMPI POP POP PUSH2 0xE4C PUSH2 0xEE0 PUSH2 0xEDA DUP4 PUSH2 0xE13 DUP8 PUSH2 0xED5 DUP9 PUSH2 0x7D6 PUSH32 0x17307EAB39AB6107E8899845AD3D59BD9653F200F220920489CA2B5937696C31 SWAP10 PUSH1 0x1 PUSH2 0x7A0 JUMP JUMPDEST PUSH2 0xE5A JUMP JUMPDEST SWAP4 PUSH2 0x797 JUMP JUMPDEST SWAP4 PUSH2 0x1C1 PUSH1 0x40 MLOAD SWAP1 JUMP JUMPDEST PUSH3 0xCED3E1 PUSH1 0xE8 SHL DUP3 MSTORE PUSH1 0x1 PUSH1 0x1 PUSH1 0xA0 SHL SUB AND PUSH1 0x4 DUP3 ADD MSTORE PUSH1 0x24 SWAP1 REVERT JUMPDEST SWAP1 SWAP2 SWAP5 SWAP4 SWAP3 SWAP5 PUSH1 0x0 PUSH2 0xF17 DUP2 PUSH2 0xB3C JUMP JUMPDEST PUSH1 0x1 PUSH1 0x1 PUSH1 0xA0 SHL SUB DUP2 AND PUSH1 0x1 PUSH1 0x1 PUSH1 0xA0 SHL SUB DUP7 AND EQ PUSH2 0xF93 JUMPI PUSH1 0x1 PUSH1 0x1 PUSH1 0xA0 SHL SUB DUP2 AND PUSH1 0x1 PUSH1 0x1 PUSH1 0xA0 SHL SUB DUP6 AND EQ PUSH2 0xF77 JUMPI POP POP PUSH2 0x109 SWAP5 SWAP6 PUSH2 0xCFF PUSH1 0x40 MLOAD SWAP3 PUSH1 0x1 DUP5 MSTORE PUSH1 0x20 DUP5 ADD MSTORE PUSH1 0x40 DUP4 ADD SWAP2 PUSH1 0x1 DUP4 MSTORE PUSH1 0x20 DUP4 ADD MSTORE PUSH1 0x40 DUP3 ADD PUSH1 0x40 MSTORE JUMP JUMPDEST PUSH3 0x6A0D45 PUSH1 0xE2 SHL DUP3 MSTORE PUSH1 0x1 PUSH1 0x1 PUSH1 0xA0 SHL SUB AND PUSH1 0x4 DUP3 ADD MSTORE PUSH1 0x24 SWAP1 REVERT JUMPDEST PUSH4 0x2BFA23E7 PUSH1 0xE1 SHL DUP3 MSTORE PUSH1 0x1 PUSH1 0x1 PUSH1 0xA0 SHL SUB AND PUSH1 0x4 DUP3 ADD MSTORE PUSH1 0x24 SWAP1 REVERT JUMPDEST SWAP2 SWAP4 SWAP3 SWAP1 PUSH2 0xFC0 DUP3 DUP7 DUP4 DUP7 PUSH2 0x10E7 JUMP JUMPDEST PUSH2 0xFCD PUSH2 0xD6 PUSH1 0x0 PUSH2 0xB3C JUMP JUMPDEST PUSH1 0x1 PUSH1 0x1 PUSH1 0xA0 SHL SUB DUP3 AND SUB PUSH2 0xFE4 JUMPI JUMPDEST POP POP POP POP POP JUMP JUMPDEST CALLER SWAP3 PUSH2 0xFEE DUP7 MLOAD SWAP1 JUMP JUMPDEST PUSH2 0xFFB PUSH2 0xA83 PUSH1 0x1 PUSH2 0x755 JUMP JUMPDEST SUB PUSH2 0x1031 JUMPI PUSH2 0x1021 PUSH2 0x1027 SWAP7 PUSH2 0x101B PUSH2 0x1014 PUSH1 0x0 PUSH2 0x755 JUMP JUMPDEST DUP1 SWAP3 PUSH2 0xDB2 JUMP JUMPDEST SWAP5 PUSH2 0xDB2 JUMP JUMPDEST SWAP4 PUSH2 0x151A JUMP JUMPDEST CODESIZE DUP1 DUP1 DUP1 DUP1 PUSH2 0xFDD JUMP JUMPDEST PUSH2 0x103C SWAP6 SWAP3 SWAP4 PUSH2 0x13B4 JUMP JUMPDEST PUSH2 0x1027 JUMP JUMPDEST PUSH2 0xA04 PUSH2 0x109 SWAP5 PUSH2 0x1072 PUSH1 0x60 SWAP5 SWAP9 SWAP8 SWAP6 PUSH2 0x106B PUSH1 0x80 DUP7 ADD SWAP11 PUSH1 0x0 DUP8 ADD SWAP1 PUSH1 0x1 PUSH1 0x1 PUSH1 0xA0 SHL SUB AND SWAP1 MSTORE JUMP JUMPDEST PUSH1 0x20 DUP6 ADD MSTORE JUMP JUMPDEST PUSH1 0x40 DUP4 ADD MSTORE JUMP JUMPDEST SWAP1 PUSH1 0x0 NOT SWAP1 PUSH2 0xDD3 JUMP JUMPDEST SWAP1 PUSH2 0x1093 PUSH2 0xE2 PUSH2 0xDF4 SWAP3 PUSH2 0x755 JUMP JUMPDEST DUP3 SLOAD PUSH2 0x1079 JUMP JUMPDEST PUSH4 0x4E487B71 PUSH1 0xE0 SHL PUSH1 0x0 MSTORE PUSH1 0x11 PUSH1 0x4 MSTORE PUSH1 0x24 PUSH1 0x0 REVERT JUMPDEST SWAP2 SWAP1 DUP3 ADD DUP1 SWAP3 GT PUSH2 0x10BD JUMPI JUMP JUMPDEST PUSH2 0x109A JUMP JUMPDEST PUSH1 0x40 DUP1 DUP3 MSTORE PUSH2 0xE2 SWAP4 SWAP2 SWAP3 PUSH2 0x10D9 SWAP2 DUP5 ADD SWAP1 PUSH2 0x555 JUMP JUMPDEST SWAP2 PUSH1 0x20 DUP2 DUP5 SUB SWAP2 ADD MSTORE PUSH2 0x555 JUMP JUMPDEST SWAP4 SWAP3 SWAP1 SWAP2 SWAP3 PUSH2 0x10F4 DUP5 MLOAD SWAP1 JUMP JUMPDEST PUSH2 0x1102 PUSH2 0xA83 PUSH2 0xE2 DUP6 MLOAD SWAP1 JUMP JUMPDEST SUB PUSH2 0x12FE JUMPI CALLER SWAP4 PUSH1 0x0 SWAP2 PUSH2 0x1115 DUP4 PUSH2 0x755 JUMP JUMPDEST PUSH2 0x1120 PUSH2 0xE2 DUP5 MLOAD SWAP1 JUMP JUMPDEST DUP2 LT ISZERO PUSH2 0x1235 JUMPI PUSH2 0x1131 DUP2 DUP5 PUSH2 0xDB2 JUMP JUMPDEST SWAP1 PUSH2 0x113C DUP2 DUP8 PUSH2 0xDB2 JUMP JUMPDEST SWAP2 PUSH2 0x1146 DUP7 PUSH2 0xB3C JUMP JUMPDEST SWAP3 DUP9 PUSH1 0x1 PUSH1 0x1 PUSH1 0xA0 SHL SUB DUP6 AND PUSH1 0x1 PUSH1 0x1 PUSH1 0xA0 SHL SUB DUP14 AND SUB PUSH2 0x11BF JUMPI JUMPDEST PUSH2 0x1189 SWAP5 PUSH1 0x1 PUSH1 0x1 PUSH1 0xA0 SHL SUB AND JUMPDEST PUSH1 0x1 PUSH1 0x1 PUSH1 0xA0 SHL SUB DUP3 AND SUB PUSH2 0x118E JUMPI JUMPDEST POP POP POP PUSH1 0x1 ADD SWAP1 JUMP JUMPDEST PUSH2 0x1115 JUMP JUMPDEST PUSH2 0x11A2 PUSH2 0x11B1 SWAP2 PUSH2 0x7D6 PUSH2 0x11B7 SWAP6 DUP12 PUSH2 0x762 JUMP JUMPDEST SWAP2 PUSH2 0x11AC DUP4 PUSH2 0x7B1 JUMP JUMPDEST PUSH2 0x10B0 JUMP JUMPDEST SWAP1 PUSH2 0x1083 JUMP JUMPDEST CODESIZE DUP1 DUP9 PUSH2 0x1180 JUMP JUMPDEST POP SWAP1 SWAP2 SWAP3 PUSH2 0x11D4 PUSH2 0x7DB DUP13 PUSH2 0x7D6 DUP7 DUP12 PUSH2 0x762 JUMP JUMPDEST DUP3 DUP2 LT PUSH2 0x1210 JUMPI PUSH2 0x1170 DUP4 SWAP3 PUSH2 0x1208 DUP11 DUP16 PUSH2 0x1203 SWAP1 DUP16 SWAP7 DUP11 PUSH2 0x11FD PUSH2 0x1189 SWAP14 SWAP13 SWAP12 PUSH2 0x7D6 SWAP4 SUB SWAP1 JUMP JUMPDEST SWAP5 PUSH2 0x762 JUMP JUMPDEST PUSH2 0x1083 JUMP JUMPDEST SWAP6 POP POP PUSH2 0x1162 JUMP JUMPDEST DUP12 PUSH2 0xC3D DUP6 DUP6 PUSH2 0x121F PUSH1 0x40 MLOAD SWAP1 JUMP JUMPDEST PUSH4 0x3DEE4C5 PUSH1 0xE0 SHL DUP2 MSTORE SWAP5 DUP6 SWAP5 PUSH1 0x4 DUP7 ADD PUSH2 0x1041 JUMP JUMPDEST POP SWAP6 SWAP3 SWAP5 SWAP2 PUSH2 0x1242 DUP3 MLOAD SWAP1 JUMP JUMPDEST PUSH2 0x124F PUSH2 0xA83 PUSH1 0x1 PUSH2 0x755 JUMP JUMPDEST SUB PUSH2 0x12B6 JUMPI PUSH2 0x1295 PUSH2 0x1295 PUSH2 0xEDA PUSH32 0xC3D58168C5AE7397731D063D5BBF3D657854427343F4C083240F7AACAA2D0F62 SWAP6 SWAP5 PUSH2 0x128F PUSH2 0x1014 PUSH2 0x129B SWAP7 PUSH2 0x755 JUMP JUMPDEST SWAP10 PUSH2 0xDB2 JUMP JUMPDEST SWAP5 PUSH2 0x797 JUMP JUMPDEST SWAP5 PUSH2 0x12B1 PUSH2 0x12A8 PUSH1 0x40 MLOAD SWAP1 JUMP JUMPDEST SWAP3 DUP4 SWAP3 DUP4 PUSH2 0x9F1 JUMP JUMPDEST SUB SWAP1 LOG4 JUMP JUMPDEST POP SWAP4 PUSH2 0x12E8 PUSH2 0x1295 PUSH2 0x1295 PUSH32 0x4A39DC06D4C0DBC64B70AF90FD698A233A518AA5D07E595D983B8C0526C8F7FB SWAP5 PUSH2 0x797 JUMP JUMPDEST SWAP5 PUSH2 0x12B1 PUSH2 0x12F5 PUSH1 0x40 MLOAD SWAP1 JUMP JUMPDEST SWAP3 DUP4 SWAP3 DUP4 PUSH2 0x10C2 JUMP JUMPDEST PUSH1 0x0 PUSH2 0x9D5 DUP4 PUSH2 0xB0B PUSH2 0xB06 DUP9 MLOAD SWAP1 JUMP JUMPDEST SWAP1 POP MLOAD SWAP1 PUSH2 0x109 DUP3 PUSH2 0x171 JUMP JUMPDEST SWAP1 PUSH1 0x20 DUP3 DUP3 SUB SLT PUSH2 0xF7 JUMPI PUSH2 0xE2 SWAP2 PUSH2 0x130F JUMP JUMPDEST SWAP4 SWAP1 PUSH2 0x1379 SWAP1 PUSH2 0xE2 SWAP7 SWAP5 PUSH2 0x136C PUSH2 0x1387 SWAP6 PUSH2 0x135C PUSH1 0xA0 DUP11 ADD SWAP5 PUSH1 0x0 DUP12 ADD SWAP1 PUSH1 0x1 PUSH1 0x1 PUSH1 0xA0 SHL SUB AND SWAP1 MSTORE JUMP JUMPDEST PUSH1 0x1 PUSH1 0x1 PUSH1 0xA0 SHL SUB AND PUSH1 0x20 DUP10 ADD MSTORE JUMP JUMPDEST DUP7 DUP3 SUB PUSH1 0x40 DUP9 ADD MSTORE PUSH2 0x555 JUMP JUMPDEST SWAP1 DUP5 DUP3 SUB PUSH1 0x60 DUP7 ADD MSTORE PUSH2 0x555 JUMP JUMPDEST SWAP2 PUSH1 0x80 DUP2 DUP5 SUB SWAP2 ADD MSTORE PUSH2 0x207 JUMP JUMPDEST RETURNDATASIZE ISZERO PUSH2 0x13AF JUMPI PUSH2 0x13A4 RETURNDATASIZE PUSH2 0x941 JUMP JUMPDEST SWAP1 RETURNDATASIZE PUSH1 0x0 PUSH1 0x20 DUP5 ADD RETURNDATACOPY JUMP JUMPDEST PUSH1 0x60 SWAP1 JUMP JUMPDEST SWAP2 SWAP4 SWAP3 SWAP1 SWAP5 DUP5 EXTCODESIZE SWAP6 PUSH1 0x0 SWAP7 PUSH2 0x13CB PUSH2 0xA83 DUP10 PUSH2 0x755 JUMP JUMPDEST GT PUSH2 0x13DA JUMPI JUMPDEST POP POP POP POP POP POP POP JUMP JUMPDEST DUP7 PUSH1 0x20 SWAP5 PUSH2 0x1411 PUSH2 0x13ED PUSH2 0xE13 DUP11 PUSH2 0x797 JUMP JUMPDEST SWAP5 PUSH2 0x13F7 PUSH1 0x40 MLOAD SWAP1 JUMP JUMPDEST SWAP9 DUP10 SWAP8 DUP9 SWAP7 DUP8 SWAP6 PUSH4 0xBC197C81 PUSH1 0xE0 SHL DUP8 MSTORE PUSH1 0x4 DUP8 ADD PUSH2 0x1330 JUMP JUMPDEST SUB SWAP3 GAS CALL PUSH1 0x0 SWAP2 DUP2 PUSH2 0x1492 JUMPI JUMPDEST POP PUSH2 0x1476 JUMPI POP PUSH2 0x1435 JUMP JUMPDEST CODESIZE DUP1 DUP1 DUP1 DUP1 DUP1 DUP1 PUSH2 0x13D1 JUMP JUMPDEST PUSH2 0x143D PUSH2 0x1395 JUMP JUMPDEST DUP1 MLOAD PUSH2 0x144B PUSH2 0xA83 DUP6 PUSH2 0x755 JUMP JUMPDEST SUB PUSH2 0x146E JUMPI POP PUSH4 0x2BFA23E7 PUSH1 0xE1 SHL DUP3 MSTORE PUSH1 0x1 PUSH1 0x1 PUSH1 0xA0 SHL SUB AND PUSH1 0x4 DUP3 ADD MSTORE PUSH1 0x24 SWAP1 REVERT JUMPDEST DUP1 MLOAD SWAP1 PUSH1 0x20 ADD REVERT JUMPDEST PUSH2 0x1486 PUSH4 0xBC197C81 PUSH1 0xE0 SHL PUSH2 0xC56 JUMP JUMPDEST SUB PUSH2 0xF93 JUMPI POP POP PUSH2 0x1429 JUMP JUMPDEST PUSH2 0x14B5 SWAP2 SWAP3 POP PUSH1 0x20 RETURNDATASIZE PUSH1 0x20 GT PUSH2 0x14BC JUMPI JUMPDEST PUSH2 0x14AD DUP2 DUP4 PUSH2 0x2D4 JUMP JUMPDEST DUP2 ADD SWAP1 PUSH2 0x131C JUMP JUMPDEST SWAP1 CODESIZE PUSH2 0x141E JUMP JUMPDEST POP RETURNDATASIZE PUSH2 0x14A3 JUMP JUMPDEST SWAP2 SWAP4 PUSH2 0x1506 PUSH2 0xE2 SWAP7 SWAP5 PUSH2 0x14FF PUSH2 0x150D SWAP5 SWAP8 PUSH2 0x14EF PUSH1 0xA0 DUP9 ADD SWAP10 PUSH1 0x0 DUP10 ADD SWAP1 PUSH1 0x1 PUSH1 0x1 PUSH1 0xA0 SHL SUB AND SWAP1 MSTORE JUMP JUMPDEST PUSH1 0x1 PUSH1 0x1 PUSH1 0xA0 SHL SUB AND PUSH1 0x20 DUP8 ADD MSTORE JUMP JUMPDEST PUSH1 0x40 DUP6 ADD MSTORE JUMP JUMPDEST PUSH1 0x60 DUP4 ADD MSTORE JUMP JUMPDEST PUSH1 0x80 DUP2 DUP5 SUB SWAP2 ADD MSTORE PUSH2 0x207 JUMP JUMPDEST SWAP2 SWAP4 SWAP3 SWAP1 SWAP5 DUP5 EXTCODESIZE SWAP6 PUSH1 0x0 SWAP7 PUSH2 0x1531 PUSH2 0xA83 DUP10 PUSH2 0x755 JUMP JUMPDEST GT PUSH2 0x153F JUMPI POP POP POP POP POP POP POP JUMP JUMPDEST DUP7 PUSH1 0x20 SWAP5 PUSH2 0x1576 PUSH2 0x1552 PUSH2 0xE13 DUP11 PUSH2 0x797 JUMP JUMPDEST SWAP5 PUSH2 0x155C PUSH1 0x40 MLOAD SWAP1 JUMP JUMPDEST SWAP9 DUP10 SWAP8 DUP9 SWAP7 DUP8 SWAP6 PUSH4 0xF23A6E61 PUSH1 0xE0 SHL DUP8 MSTORE PUSH1 0x4 DUP8 ADD PUSH2 0x14C3 JUMP JUMPDEST SUB SWAP3 GAS CALL PUSH1 0x0 SWAP2 DUP2 PUSH2 0x159E JUMPI JUMPDEST POP PUSH2 0x158E JUMPI POP PUSH2 0x1435 JUMP JUMPDEST PUSH2 0x1486 PUSH4 0xF23A6E61 PUSH1 0xE0 SHL PUSH2 0xC56 JUMP JUMPDEST PUSH2 0x15B8 SWAP2 SWAP3 POP PUSH1 0x20 RETURNDATASIZE PUSH1 0x20 GT PUSH2 0x14BC JUMPI PUSH2 0x14AD DUP2 DUP4 PUSH2 0x2D4 JUMP JUMPDEST SWAP1 CODESIZE PUSH2 0x1583 JUMP INVALID LOG2 PUSH5 0x6970667358 0x22 SLT KECCAK256 0xE9 SWAP9 DUP12 DUP6 0xF8 PUSH25 0x48AFDEE8E79A1EE0ECF5D0BE25A517C869D18BD090C4245815 PUSH30 0x64736F6C634300081A003300000000000000000000000000000000000000 "
        },
        "methodIdentifiers": {
          "balanceOf(address,uint256)": "00fdd58e",
          "balanceOfBatch(address[],uint256[])": "4e1273f4",
          "isApprovedForAll(address,address)": "e985e9c5",
          "mint(address,uint256,uint256)": "156e29f6",
          "owner()": "8da5cb5b",
          "renounceOwnership()": "715018a6",
          "safeBatchTransferFrom(address,address,uint256[],uint256[],bytes)": "2eb2c2d6",
          "safeTransferFrom(address,address,uint256,uint256,bytes)": "f242432a",
          "setApprovalForAll(address,bool)": "a22cb465",
          "supportsInterface(bytes4)": "01ffc9a7",
          "transferOwnership(address)": "f2fde38b",
          "uri(uint256)": "0e89341c"
        }
      }
    }
  }
}