{
  "contracts/BulkSender.sol": {
    "BulkSender": {
      "abi": [
        {
          "inputs": [
            {
              "internalType": "address",
              "name": "_receiverAddress",
              "type": "address"
            }
          ],
          "stateMutability": "nonpayable",
          "type": "constructor"
        },
        {
          "inputs": [],
          "name": "AlreadyContract",
          "type": "error"
        },
        {
          "inputs": [],
          "name": "AlreadyNormalAddress",
          "type": "error"
        },
        {
          "inputs": [],
          "name": "AlreadyOwner",
          "type": "error"
        },
        {
          "inputs": [],
          "name": "AlreadyToken",
          "type": "error"
        },
        {
          "inputs": [],
          "name": "AlreadyVIP",
          "type": "error"
        },
        {
          "inputs": [
            {
              "internalType": "address",
              "name": "token",
              "type": "address"
            },
            {
              "internalType": "uint256",
              "name": "available",
              "type": "uint256"
            },
            {
              "internalType": "uint256",
              "name": "required",
              "type": "uint256"
            }
          ],
          "name": "InsufficientAllowance",
          "type": "error"
        },
        {
          "inputs": [
            {
              "internalType": "uint256",
              "name": "available",
              "type": "uint256"
            },
            {
              "internalType": "uint256",
              "name": "required",
              "type": "uint256"
            }
          ],
          "name": "InsufficientFunds",
          "type": "error"
        },
        {
          "inputs": [],
          "name": "InvalidInput",
          "type": "error"
        },
        {
          "inputs": [],
          "name": "NotAllowedAccount",
          "type": "error"
        },
        {
          "inputs": [],
          "name": "NotContract",
          "type": "error"
        },
        {
          "inputs": [
            {
              "internalType": "uint256",
              "name": "available",
              "type": "uint256"
            },
            {
              "internalType": "uint256",
              "name": "required",
              "type": "uint256"
            }
          ],
          "name": "NotEnoughEther",
          "type": "error"
        },
        {
          "inputs": [
            {
              "internalType": "uint256",
              "name": "available",
              "type": "uint256"
            },
            {
              "internalType": "uint256",
              "name": "required",
              "type": "uint256"
            }
          ],
          "name": "NotEnoughTokens",
          "type": "error"
        },
        {
          "inputs": [],
          "name": "NotNormalAddress",
          "type": "error"
        },
        {
          "inputs": [],
          "name": "NotOwner",
          "type": "error"
        },
        {
          "inputs": [],
          "name": "NotToken",
          "type": "error"
        },
        {
          "inputs": [],
          "name": "NotVIP",
          "type": "error"
        },
        {
          "inputs": [
            {
              "internalType": "address",
              "name": "owner",
              "type": "address"
            }
          ],
          "name": "OwnableInvalidOwner",
          "type": "error"
        },
        {
          "inputs": [
            {
              "internalType": "address",
              "name": "account",
              "type": "address"
            }
          ],
          "name": "OwnableUnauthorizedAccount",
          "type": "error"
        },
        {
          "inputs": [],
          "name": "Unauthorized",
          "type": "error"
        },
        {
          "inputs": [],
          "name": "ZeroAddress",
          "type": "error"
        },
        {
          "anonymous": false,
          "inputs": [
            {
              "indexed": false,
              "internalType": "address",
              "name": "token",
              "type": "address"
            },
            {
              "indexed": false,
              "internalType": "address",
              "name": "receiver",
              "type": "address"
            },
            {
              "indexed": false,
              "internalType": "uint256",
              "name": "balance",
              "type": "uint256"
            }
          ],
          "name": "LogGetToken",
          "type": "event"
        },
        {
          "anonymous": false,
          "inputs": [
            {
              "indexed": false,
              "internalType": "address",
              "name": "token",
              "type": "address"
            },
            {
              "indexed": false,
              "internalType": "uint256",
              "name": "total",
              "type": "uint256"
            }
          ],
          "name": "LogTokenBulkSent",
          "type": "event"
        },
        {
          "anonymous": false,
          "inputs": [
            {
              "indexed": false,
              "internalType": "address",
              "name": "sender",
              "type": "address"
            },
            {
              "indexed": false,
              "internalType": "uint256",
              "name": "value",
              "type": "uint256"
            }
          ],
          "name": "LogViPRegistered",
          "type": "event"
        },
        {
          "anonymous": false,
          "inputs": [
            {
              "indexed": true,
              "internalType": "address",
              "name": "previousOwner",
              "type": "address"
            },
            {
              "indexed": true,
              "internalType": "address",
              "name": "newOwner",
              "type": "address"
            }
          ],
          "name": "OwnershipTransferred",
          "type": "event"
        },
        {
          "inputs": [],
          "name": "VIPFee",
          "outputs": [
            {
              "internalType": "uint256",
              "name": "",
              "type": "uint256"
            }
          ],
          "stateMutability": "view",
          "type": "function"
        },
        {
          "inputs": [
            {
              "internalType": "address",
              "name": "_tokenAddress",
              "type": "address"
            },
            {
              "internalType": "address[]",
              "name": "_receivers",
              "type": "address[]"
            },
            {
              "internalType": "uint256[]",
              "name": "_values",
              "type": "uint256[]"
            }
          ],
          "name": "bulkTransferERC20",
          "outputs": [],
          "stateMutability": "payable",
          "type": "function"
        },
        {
          "inputs": [
            {
              "internalType": "address",
              "name": "_tokenAddress",
              "type": "address"
            },
            {
              "internalType": "address[]",
              "name": "_receivers",
              "type": "address[]"
            },
            {
              "internalType": "uint256",
              "name": "_value",
              "type": "uint256"
            }
          ],
          "name": "bulkTransferERC20",
          "outputs": [],
          "stateMutability": "payable",
          "type": "function"
        },
        {
          "inputs": [
            {
              "internalType": "address",
              "name": "_addr",
              "type": "address"
            }
          ],
          "name": "isVIP",
          "outputs": [
            {
              "internalType": "bool",
              "name": "",
              "type": "bool"
            }
          ],
          "stateMutability": "view",
          "type": "function"
        },
        {
          "inputs": [],
          "name": "owner",
          "outputs": [
            {
              "internalType": "address",
              "name": "",
              "type": "address"
            }
          ],
          "stateMutability": "view",
          "type": "function"
        },
        {
          "inputs": [],
          "name": "receiverAddress",
          "outputs": [
            {
              "internalType": "address",
              "name": "",
              "type": "address"
            }
          ],
          "stateMutability": "view",
          "type": "function"
        },
        {
          "inputs": [],
          "name": "registerVIP",
          "outputs": [],
          "stateMutability": "payable",
          "type": "function"
        },
        {
          "inputs": [
            {
              "internalType": "address[]",
              "name": "_vipList",
              "type": "address[]"
            }
          ],
          "name": "removeFromVIPList",
          "outputs": [],
          "stateMutability": "nonpayable",
          "type": "function"
        },
        {
          "inputs": [],
          "name": "renounceOwnership",
          "outputs": [],
          "stateMutability": "nonpayable",
          "type": "function"
        },
        {
          "inputs": [
            {
              "internalType": "address",
              "name": "_addr",
              "type": "address"
            }
          ],
          "name": "setReceiverAddress",
          "outputs": [],
          "stateMutability": "nonpayable",
          "type": "function"
        },
        {
          "inputs": [
            {
              "internalType": "uint256",
              "name": "_fee",
              "type": "uint256"
            }
          ],
          "name": "setTxFee",
          "outputs": [],
          "stateMutability": "nonpayable",
          "type": "function"
        },
        {
          "inputs": [
            {
              "internalType": "uint256",
              "name": "_fee",
              "type": "uint256"
            }
          ],
          "name": "setVIPFee",
          "outputs": [],
          "stateMutability": "nonpayable",
          "type": "function"
        },
        {
          "inputs": [
            {
              "internalType": "address",
              "name": "newOwner",
              "type": "address"
            }
          ],
          "name": "transferOwnership",
          "outputs": [],
          "stateMutability": "nonpayable",
          "type": "function"
        },
        {
          "inputs": [],
          "name": "txFee",
          "outputs": [
            {
              "internalType": "uint256",
              "name": "",
              "type": "uint256"
            }
          ],
          "stateMutability": "view",
          "type": "function"
        },
        {
          "inputs": [
            {
              "internalType": "address",
              "name": "",
              "type": "address"
            }
          ],
          "name": "vipList",
          "outputs": [
            {
              "internalType": "bool",
              "name": "",
              "type": "bool"
            }
          ],
          "stateMutability": "view",
          "type": "function"
        }
      ],
      "evm": {
        "bytecode": {
          "linkReferences": {},
          "object": "60806040523461002a576100196100146100c2565b610164565b604051610d516102868239610d5190f35b600080fd5b634e487b7160e01b600052604160045260246000fd5b90601f01601f191681019081106001600160401b0382111761006657604052565b61002f565b9061007f61007860405190565b9283610045565b565b6001600160a01b031690565b90565b6001600160a01b0381160361002a57565b9050519061007f82610090565b9060208282031261002a5761008d916100a1565b61008d610fd7803803806100d58161006b565b9283398101906100ae565b90600019905b9181191691161790565b61008d61008d61008d9290565b9061010d61008d610114926100f0565b82546100e0565b9055565b906001600160a01b03906100e6565b61008d90610081906001600160a01b031682565b61008d90610127565b61008d9061013b565b9061015d61008d61011492610144565b8254610118565b61007f906101713361019d565b610183662386f26fc1000060026100fd565b61019667016345785d8a000060036100fd565b600161014d565b61007f906101cf565b61008161008d61008d9290565b61008d906101a6565b6001600160a01b03909116815260200190565b60006101da816101b3565b6001600160a01b0381166001600160a01b038416146101fe57505061007f9061022e565b631e4fbdf760e01b8252819061021790600483016101bc565b0390fd5b61008d90610081565b61008d905461021b565b61025461024e61023e6000610224565b61024984600061014d565b610144565b91610144565b907f8be0079c531659141344cd1fd0a4f28419497f9722a3daafe3b4186f6b6457e061027f60405190565b600090a356fe6080604052600436101561001257600080fd5b60003560e01c806316fed3e2146101025780633d06242a146100fd5780633e46cd53146100f8578063715018a6146100f35780638279c7db146100ee5780638ce632e8146100e95780638da5cb5b146100e45780639c1f6133146100df578063aa168b47146100da578063cf820461146100d5578063f05d16f7146100d0578063f0a0a299146100cb578063f2fde38b146100c6578063f4201c3c146100c15763f48d11af03610112576104db565b61049a565b610482565b610467565b610443565b610418565b6103c9565b610349565b61032e565b610317565b6102ba565b61028e565b610277565b6101ba565b610165565b600091031261011257565b600080fd5b61012c916008021c5b6001600160a01b031690565b90565b9061012c9154610117565b61012c6000600161012f565b61014f90610120565b9052565b6020810192916101639190610146565b565b3461011257610175366004610107565b61018c61018061013a565b60405191829182610153565b0390f35b805b0361011257565b9050359061016382610190565b906020828203126101125761012c91610199565b34610112576101d26101cd3660046101a6565b610548565b604051005b61019281610120565b90503590610163826101d7565b909182601f830112156101125781359167ffffffffffffffff831161011257602001926020830284011161011257565b6060818303126101125761023182826101e0565b92602082013567ffffffffffffffff811161011257836102529184016101ed565b929093604082013567ffffffffffffffff81116101125761027392016101ed565b9091565b6101d261028536600461021d565b9392909261085b565b346101125761029e366004610107565b6101d26108a0565b906020828203126101125761012c916101e0565b34610112576101d26102cd3660046102a6565b610916565b90606082820312610112576102e781836101e0565b92602083013567ffffffffffffffff8111610112578261030e60409461012c9387016101ed565b94909501610199565b6101d26103253660046102d2565b92919091610a48565b346101125761033e366004610107565b61018c610180610a54565b610354366004610107565b6101d2610acb565b61012c90610120906001600160a01b031682565b61012c9061035c565b61012c90610370565b9061038c90610379565b600052602052604060002090565b61012c916008021c5b60ff1690565b9061012c915461039a565b60006103c461012c926004610382565b6103a9565b346101125761018c6103e46103df3660046102a6565b6103b4565b60405191829182901515815260200190565b61012c916008021c81565b9061012c91546103f6565b61012c60006002610401565b3461011257610428366004610107565b61018c61043361040c565b6040519182918290815260200190565b34610112576101d26104563660046101a6565b610b96565b61012c60006003610401565b3461011257610477366004610107565b61018c61043361045b565b34610112576101d26104953660046102a6565b610bf5565b346101125761018c6103e46104b03660046102a6565b610c11565b9060208282031261011257813567ffffffffffffffff81116101125761027392016101ed565b34610112576101d26104ee3660046104b5565b90610c82565b61016390610500610c8c565b61053d565b90600019905b9181191691161790565b61012c61012c61012c9290565b9061053261012c61053992610515565b8254610505565b9055565b610163906003610522565b610163906104f4565b61012c9081565b61012c9054610551565b1561056957565b6332eaa48760e11b6000908152600490fd5b036000fd5b61012c90610120565b61012c9054610580565b6040513d6000823e3d90fd5b939291906105ac33610c11565b8015610614575b6105bc90610562565b6105cc6105c833610c11565b1590565b6105da575b61016394610736565b60008080806105f46105ef6105ef6001610589565b610379565b8190341561060a575b3491f16105d1575b610593565b6108fc91506105fd565b506105bc61062561012c6002610558565b34101590506105b3565b1561063657565b63b4fa3fb360e01b6000908152600490fd5b634e487b7160e01b600052603260045260246000fd5b919081101561066e576020020190565b610648565b3561012c816101d7565b3561012c81610190565b634e487b7160e01b600052604160045260246000fd5b90601f01601f1916810190811067ffffffffffffffff8211176106bf57604052565b610687565b801515610192565b90505190610163826106c4565b906020828203126101125761012c916106cc565b604090610717610163949695939661070d60608401986000850190610146565b6020830190610146565b0152565b91602061016392949361071760408201966000830190610146565b93909291809561074783881461062f565b61075086610379565b9060009761075e6000610515565b81811015610816578060208b8a8a6107a061079b868d6107956107908f9b8f9c61078a6107ca9e610379565b9961065e565b610673565b9461065e565b61067d565b926107aa60405190565b8097819582946107be6323b872dd60e01b90565b845233600485016106ed565b03925af1918215610605576107e5926107ea575b5060010190565b61075e565b61080a9060203d811161080f575b610802818361069d565b8101906106d9565b6107de565b503d6107f8565b5095509650505050507fe4e3577249108daaa0a07e6d9aabc5fef8e89ec09da3f9dccfe7ef215e4efc129161085661084d60405190565b9283928361071b565b0390a1565b906101639493929161059f565b610870610c8c565b61016361088e565b61012061012c61012c9290565b61012c90610878565b61016361089b6000610885565b610cc9565b610163610868565b610163906108b4610c8c565b6108e6565b1561011257565b906001600160a01b039061050b565b906108df61012c61053992610379565b82546108c0565b6101639061090f6108ff6108fa6000610885565b610120565b61090883610120565b14156108b9565b60016108cf565b610163906108a8565b92919061092b33610c11565b8015610989575b61093b90610562565b6109476105c833610c11565b610955575b610163936109a4565b600080808061096a6105ef6105ef6001610589565b8190341561097f575b3491f161094c57610593565b6108fc9150610973565b5061093b61099a61012c6002610558565b3410159050610932565b92916109af84610379565b6000956109bc6000610515565b83811015610a0b576109ec906020876109d486610379565b6109e2610790858a8c61065e565b8c6107aa60405190565b03925af191821561060557610a06926107ea575060010190565b6109bc565b509550507fe4e3577249108daaa0a07e6d9aabc5fef8e89ec09da3f9dccfe7ef215e4efc12939250610a3b915090565b9061085661084d60405190565b9061016393929161091f565b61012c6000610589565b9081526040810192916101639160200152565b15610a7a575050565b62fae2d560e21b60009081529161057b916004610a5e565b15610a9957565b63024b964d60e01b6000908152600490fd5b9060ff9061050b565b90610ac461012c61053992151590565b8254610aab565b610af0610adb61012c6003610558565b341015610ae86003610558565b903490610a71565b610b04610aff6105c833610c11565b610a92565b6000808080610b196105ef6105ef6001610589565b81903415610b75575b3491f11561060557610b3f6001610b3a336004610382565b610ab4565b7f6252330b8ac495908d7082dbcf6cd547affff5896884e8cb9c40d1b216f9f8e8610b6960405190565b8061085634338361071b565b6108fc9150610b22565b61016390610b8b610c8c565b610163906002610522565b61016390610b7f565b61016390610bab610c8c565b6000610bb681610885565b610bbf81610120565b610bc884610120565b14610bd857505061016390610cc9565b631e4fbdf760e01b82528190610bf19060048301610153565b0390fd5b61016390610b9f565b61012c906103a3565b61012c9054610bfe565b610c2861012c91610c20600090565b506004610382565b610c07565b9061016391610c3a610c8c565b60009291610c4784610515565b81811015610c7b57610c7690610c7086610b3a6004610c6a61079086898b61065e565b90610382565b60010190565b610c47565b5050509050565b9061016391610c2d565b610c94610a54565b3390610ca8610ca283610120565b91610120565b03610cb05750565b63118cdaa760e01b60009081529061057b906004610153565b610cea610ce4610cd96000610589565b6105ef8460006108cf565b91610379565b907f8be0079c531659141344cd1fd0a4f28419497f9722a3daafe3b4186f6b6457e0610d1560405190565b600090a356fea264697066735822122041be6721677b59efe3ba054dcf2ec924f9e94f03bd5dd1990c181398beda3b4a64736f6c634300081a0033",
          "opcodes": "PUSH1 0x80 PUSH1 0x40 MSTORE CALLVALUE PUSH2 0x2A JUMPI PUSH2 0x19 PUSH2 0x14 PUSH2 0xC2 JUMP JUMPDEST PUSH2 0x164 JUMP JUMPDEST PUSH1 0x40 MLOAD PUSH2 0xD51 PUSH2 0x286 DUP3 CODECOPY PUSH2 0xD51 SWAP1 RETURN JUMPDEST PUSH1 0x0 DUP1 REVERT JUMPDEST PUSH4 0x4E487B71 PUSH1 0xE0 SHL PUSH1 0x0 MSTORE PUSH1 0x41 PUSH1 0x4 MSTORE PUSH1 0x24 PUSH1 0x0 REVERT JUMPDEST SWAP1 PUSH1 0x1F ADD PUSH1 0x1F NOT AND DUP2 ADD SWAP1 DUP2 LT PUSH1 0x1 PUSH1 0x1 PUSH1 0x40 SHL SUB DUP3 GT OR PUSH2 0x66 JUMPI PUSH1 0x40 MSTORE JUMP JUMPDEST PUSH2 0x2F JUMP JUMPDEST SWAP1 PUSH2 0x7F PUSH2 0x78 PUSH1 0x40 MLOAD SWAP1 JUMP JUMPDEST SWAP3 DUP4 PUSH2 0x45 JUMP JUMPDEST JUMP JUMPDEST PUSH1 0x1 PUSH1 0x1 PUSH1 0xA0 SHL SUB AND SWAP1 JUMP JUMPDEST SWAP1 JUMP JUMPDEST PUSH1 0x1 PUSH1 0x1 PUSH1 0xA0 SHL SUB DUP2 AND SUB PUSH2 0x2A JUMPI JUMP JUMPDEST SWAP1 POP MLOAD SWAP1 PUSH2 0x7F DUP3 PUSH2 0x90 JUMP JUMPDEST SWAP1 PUSH1 0x20 DUP3 DUP3 SUB SLT PUSH2 0x2A JUMPI PUSH2 0x8D SWAP2 PUSH2 0xA1 JUMP JUMPDEST PUSH2 0x8D PUSH2 0xFD7 DUP1 CODESIZE SUB DUP1 PUSH2 0xD5 DUP2 PUSH2 0x6B JUMP JUMPDEST SWAP3 DUP4 CODECOPY DUP2 ADD SWAP1 PUSH2 0xAE JUMP JUMPDEST SWAP1 PUSH1 0x0 NOT SWAP1 JUMPDEST SWAP2 DUP2 NOT AND SWAP2 AND OR SWAP1 JUMP JUMPDEST PUSH2 0x8D PUSH2 0x8D PUSH2 0x8D SWAP3 SWAP1 JUMP JUMPDEST SWAP1 PUSH2 0x10D PUSH2 0x8D PUSH2 0x114 SWAP3 PUSH2 0xF0 JUMP JUMPDEST DUP3 SLOAD PUSH2 0xE0 JUMP JUMPDEST SWAP1 SSTORE JUMP JUMPDEST SWAP1 PUSH1 0x1 PUSH1 0x1 PUSH1 0xA0 SHL SUB SWAP1 PUSH2 0xE6 JUMP JUMPDEST PUSH2 0x8D SWAP1 PUSH2 0x81 SWAP1 PUSH1 0x1 PUSH1 0x1 PUSH1 0xA0 SHL SUB AND DUP3 JUMP JUMPDEST PUSH2 0x8D SWAP1 PUSH2 0x127 JUMP JUMPDEST PUSH2 0x8D SWAP1 PUSH2 0x13B JUMP JUMPDEST SWAP1 PUSH2 0x15D PUSH2 0x8D PUSH2 0x114 SWAP3 PUSH2 0x144 JUMP JUMPDEST DUP3 SLOAD PUSH2 0x118 JUMP JUMPDEST PUSH2 0x7F SWAP1 PUSH2 0x171 CALLER PUSH2 0x19D JUMP JUMPDEST PUSH2 0x183 PUSH7 0x2386F26FC10000 PUSH1 0x2 PUSH2 0xFD JUMP JUMPDEST PUSH2 0x196 PUSH8 0x16345785D8A0000 PUSH1 0x3 PUSH2 0xFD JUMP JUMPDEST PUSH1 0x1 PUSH2 0x14D JUMP JUMPDEST PUSH2 0x7F SWAP1 PUSH2 0x1CF JUMP JUMPDEST PUSH2 0x81 PUSH2 0x8D PUSH2 0x8D SWAP3 SWAP1 JUMP JUMPDEST PUSH2 0x8D SWAP1 PUSH2 0x1A6 JUMP JUMPDEST PUSH1 0x1 PUSH1 0x1 PUSH1 0xA0 SHL SUB SWAP1 SWAP2 AND DUP2 MSTORE PUSH1 0x20 ADD SWAP1 JUMP JUMPDEST PUSH1 0x0 PUSH2 0x1DA DUP2 PUSH2 0x1B3 JUMP JUMPDEST PUSH1 0x1 PUSH1 0x1 PUSH1 0xA0 SHL SUB DUP2 AND PUSH1 0x1 PUSH1 0x1 PUSH1 0xA0 SHL SUB DUP5 AND EQ PUSH2 0x1FE JUMPI POP POP PUSH2 0x7F SWAP1 PUSH2 0x22E JUMP JUMPDEST PUSH4 0x1E4FBDF7 PUSH1 0xE0 SHL DUP3 MSTORE DUP2 SWAP1 PUSH2 0x217 SWAP1 PUSH1 0x4 DUP4 ADD PUSH2 0x1BC JUMP JUMPDEST SUB SWAP1 REVERT JUMPDEST PUSH2 0x8D SWAP1 PUSH2 0x81 JUMP JUMPDEST PUSH2 0x8D SWAP1 SLOAD PUSH2 0x21B JUMP JUMPDEST PUSH2 0x254 PUSH2 0x24E PUSH2 0x23E PUSH1 0x0 PUSH2 0x224 JUMP JUMPDEST PUSH2 0x249 DUP5 PUSH1 0x0 PUSH2 0x14D JUMP JUMPDEST PUSH2 0x144 JUMP JUMPDEST SWAP2 PUSH2 0x144 JUMP JUMPDEST SWAP1 PUSH32 0x8BE0079C531659141344CD1FD0A4F28419497F9722A3DAAFE3B4186F6B6457E0 PUSH2 0x27F PUSH1 0x40 MLOAD SWAP1 JUMP JUMPDEST PUSH1 0x0 SWAP1 LOG3 JUMP INVALID PUSH1 0x80 PUSH1 0x40 MSTORE PUSH1 0x4 CALLDATASIZE LT ISZERO PUSH2 0x12 JUMPI PUSH1 0x0 DUP1 REVERT JUMPDEST PUSH1 0x0 CALLDATALOAD PUSH1 0xE0 SHR DUP1 PUSH4 0x16FED3E2 EQ PUSH2 0x102 JUMPI DUP1 PUSH4 0x3D06242A EQ PUSH2 0xFD JUMPI DUP1 PUSH4 0x3E46CD53 EQ PUSH2 0xF8 JUMPI DUP1 PUSH4 0x715018A6 EQ PUSH2 0xF3 JUMPI DUP1 PUSH4 0x8279C7DB EQ PUSH2 0xEE JUMPI DUP1 PUSH4 0x8CE632E8 EQ PUSH2 0xE9 JUMPI DUP1 PUSH4 0x8DA5CB5B EQ PUSH2 0xE4 JUMPI DUP1 PUSH4 0x9C1F6133 EQ PUSH2 0xDF JUMPI DUP1 PUSH4 0xAA168B47 EQ PUSH2 0xDA JUMPI DUP1 PUSH4 0xCF820461 EQ PUSH2 0xD5 JUMPI DUP1 PUSH4 0xF05D16F7 EQ PUSH2 0xD0 JUMPI DUP1 PUSH4 0xF0A0A299 EQ PUSH2 0xCB JUMPI DUP1 PUSH4 0xF2FDE38B EQ PUSH2 0xC6 JUMPI DUP1 PUSH4 0xF4201C3C EQ PUSH2 0xC1 JUMPI PUSH4 0xF48D11AF SUB PUSH2 0x112 JUMPI PUSH2 0x4DB JUMP JUMPDEST PUSH2 0x49A JUMP JUMPDEST PUSH2 0x482 JUMP JUMPDEST PUSH2 0x467 JUMP JUMPDEST PUSH2 0x443 JUMP JUMPDEST PUSH2 0x418 JUMP JUMPDEST PUSH2 0x3C9 JUMP JUMPDEST PUSH2 0x349 JUMP JUMPDEST PUSH2 0x32E JUMP JUMPDEST PUSH2 0x317 JUMP JUMPDEST PUSH2 0x2BA JUMP JUMPDEST PUSH2 0x28E JUMP JUMPDEST PUSH2 0x277 JUMP JUMPDEST PUSH2 0x1BA JUMP JUMPDEST PUSH2 0x165 JUMP JUMPDEST PUSH1 0x0 SWAP2 SUB SLT PUSH2 0x112 JUMPI JUMP JUMPDEST PUSH1 0x0 DUP1 REVERT JUMPDEST PUSH2 0x12C SWAP2 PUSH1 0x8 MUL SHR JUMPDEST PUSH1 0x1 PUSH1 0x1 PUSH1 0xA0 SHL SUB AND SWAP1 JUMP JUMPDEST SWAP1 JUMP JUMPDEST SWAP1 PUSH2 0x12C SWAP2 SLOAD PUSH2 0x117 JUMP JUMPDEST PUSH2 0x12C PUSH1 0x0 PUSH1 0x1 PUSH2 0x12F JUMP JUMPDEST PUSH2 0x14F SWAP1 PUSH2 0x120 JUMP JUMPDEST SWAP1 MSTORE JUMP JUMPDEST PUSH1 0x20 DUP2 ADD SWAP3 SWAP2 PUSH2 0x163 SWAP2 SWAP1 PUSH2 0x146 JUMP JUMPDEST JUMP JUMPDEST CALLVALUE PUSH2 0x112 JUMPI PUSH2 0x175 CALLDATASIZE PUSH1 0x4 PUSH2 0x107 JUMP JUMPDEST PUSH2 0x18C PUSH2 0x180 PUSH2 0x13A JUMP JUMPDEST PUSH1 0x40 MLOAD SWAP2 DUP3 SWAP2 DUP3 PUSH2 0x153 JUMP JUMPDEST SUB SWAP1 RETURN JUMPDEST DUP1 JUMPDEST SUB PUSH2 0x112 JUMPI JUMP JUMPDEST SWAP1 POP CALLDATALOAD SWAP1 PUSH2 0x163 DUP3 PUSH2 0x190 JUMP JUMPDEST SWAP1 PUSH1 0x20 DUP3 DUP3 SUB SLT PUSH2 0x112 JUMPI PUSH2 0x12C SWAP2 PUSH2 0x199 JUMP JUMPDEST CALLVALUE PUSH2 0x112 JUMPI PUSH2 0x1D2 PUSH2 0x1CD CALLDATASIZE PUSH1 0x4 PUSH2 0x1A6 JUMP JUMPDEST PUSH2 0x548 JUMP JUMPDEST PUSH1 0x40 MLOAD STOP JUMPDEST PUSH2 0x192 DUP2 PUSH2 0x120 JUMP JUMPDEST SWAP1 POP CALLDATALOAD SWAP1 PUSH2 0x163 DUP3 PUSH2 0x1D7 JUMP JUMPDEST SWAP1 SWAP2 DUP3 PUSH1 0x1F DUP4 ADD SLT ISZERO PUSH2 0x112 JUMPI DUP2 CALLDATALOAD SWAP2 PUSH8 0xFFFFFFFFFFFFFFFF DUP4 GT PUSH2 0x112 JUMPI PUSH1 0x20 ADD SWAP3 PUSH1 0x20 DUP4 MUL DUP5 ADD GT PUSH2 0x112 JUMPI JUMP JUMPDEST PUSH1 0x60 DUP2 DUP4 SUB SLT PUSH2 0x112 JUMPI PUSH2 0x231 DUP3 DUP3 PUSH2 0x1E0 JUMP JUMPDEST SWAP3 PUSH1 0x20 DUP3 ADD CALLDATALOAD PUSH8 0xFFFFFFFFFFFFFFFF DUP2 GT PUSH2 0x112 JUMPI DUP4 PUSH2 0x252 SWAP2 DUP5 ADD PUSH2 0x1ED JUMP JUMPDEST SWAP3 SWAP1 SWAP4 PUSH1 0x40 DUP3 ADD CALLDATALOAD PUSH8 0xFFFFFFFFFFFFFFFF DUP2 GT PUSH2 0x112 JUMPI PUSH2 0x273 SWAP3 ADD PUSH2 0x1ED JUMP JUMPDEST SWAP1 SWAP2 JUMP JUMPDEST PUSH2 0x1D2 PUSH2 0x285 CALLDATASIZE PUSH1 0x4 PUSH2 0x21D JUMP JUMPDEST SWAP4 SWAP3 SWAP1 SWAP3 PUSH2 0x85B JUMP JUMPDEST CALLVALUE PUSH2 0x112 JUMPI PUSH2 0x29E CALLDATASIZE PUSH1 0x4 PUSH2 0x107 JUMP JUMPDEST PUSH2 0x1D2 PUSH2 0x8A0 JUMP JUMPDEST SWAP1 PUSH1 0x20 DUP3 DUP3 SUB SLT PUSH2 0x112 JUMPI PUSH2 0x12C SWAP2 PUSH2 0x1E0 JUMP JUMPDEST CALLVALUE PUSH2 0x112 JUMPI PUSH2 0x1D2 PUSH2 0x2CD CALLDATASIZE PUSH1 0x4 PUSH2 0x2A6 JUMP JUMPDEST PUSH2 0x916 JUMP JUMPDEST SWAP1 PUSH1 0x60 DUP3 DUP3 SUB SLT PUSH2 0x112 JUMPI PUSH2 0x2E7 DUP2 DUP4 PUSH2 0x1E0 JUMP JUMPDEST SWAP3 PUSH1 0x20 DUP4 ADD CALLDATALOAD PUSH8 0xFFFFFFFFFFFFFFFF DUP2 GT PUSH2 0x112 JUMPI DUP3 PUSH2 0x30E PUSH1 0x40 SWAP5 PUSH2 0x12C SWAP4 DUP8 ADD PUSH2 0x1ED JUMP JUMPDEST SWAP5 SWAP1 SWAP6 ADD PUSH2 0x199 JUMP JUMPDEST PUSH2 0x1D2 PUSH2 0x325 CALLDATASIZE PUSH1 0x4 PUSH2 0x2D2 JUMP JUMPDEST SWAP3 SWAP2 SWAP1 SWAP2 PUSH2 0xA48 JUMP JUMPDEST CALLVALUE PUSH2 0x112 JUMPI PUSH2 0x33E CALLDATASIZE PUSH1 0x4 PUSH2 0x107 JUMP JUMPDEST PUSH2 0x18C PUSH2 0x180 PUSH2 0xA54 JUMP JUMPDEST PUSH2 0x354 CALLDATASIZE PUSH1 0x4 PUSH2 0x107 JUMP JUMPDEST PUSH2 0x1D2 PUSH2 0xACB JUMP JUMPDEST PUSH2 0x12C SWAP1 PUSH2 0x120 SWAP1 PUSH1 0x1 PUSH1 0x1 PUSH1 0xA0 SHL SUB AND DUP3 JUMP JUMPDEST PUSH2 0x12C SWAP1 PUSH2 0x35C JUMP JUMPDEST PUSH2 0x12C SWAP1 PUSH2 0x370 JUMP JUMPDEST SWAP1 PUSH2 0x38C SWAP1 PUSH2 0x379 JUMP JUMPDEST PUSH1 0x0 MSTORE PUSH1 0x20 MSTORE PUSH1 0x40 PUSH1 0x0 KECCAK256 SWAP1 JUMP JUMPDEST PUSH2 0x12C SWAP2 PUSH1 0x8 MUL SHR JUMPDEST PUSH1 0xFF AND SWAP1 JUMP JUMPDEST SWAP1 PUSH2 0x12C SWAP2 SLOAD PUSH2 0x39A JUMP JUMPDEST PUSH1 0x0 PUSH2 0x3C4 PUSH2 0x12C SWAP3 PUSH1 0x4 PUSH2 0x382 JUMP JUMPDEST PUSH2 0x3A9 JUMP JUMPDEST CALLVALUE PUSH2 0x112 JUMPI PUSH2 0x18C PUSH2 0x3E4 PUSH2 0x3DF CALLDATASIZE PUSH1 0x4 PUSH2 0x2A6 JUMP JUMPDEST PUSH2 0x3B4 JUMP JUMPDEST PUSH1 0x40 MLOAD SWAP2 DUP3 SWAP2 DUP3 SWAP1 ISZERO ISZERO DUP2 MSTORE PUSH1 0x20 ADD SWAP1 JUMP JUMPDEST PUSH2 0x12C SWAP2 PUSH1 0x8 MUL SHR DUP2 JUMP JUMPDEST SWAP1 PUSH2 0x12C SWAP2 SLOAD PUSH2 0x3F6 JUMP JUMPDEST PUSH2 0x12C PUSH1 0x0 PUSH1 0x2 PUSH2 0x401 JUMP JUMPDEST CALLVALUE PUSH2 0x112 JUMPI PUSH2 0x428 CALLDATASIZE PUSH1 0x4 PUSH2 0x107 JUMP JUMPDEST PUSH2 0x18C PUSH2 0x433 PUSH2 0x40C JUMP JUMPDEST PUSH1 0x40 MLOAD SWAP2 DUP3 SWAP2 DUP3 SWAP1 DUP2 MSTORE PUSH1 0x20 ADD SWAP1 JUMP JUMPDEST CALLVALUE PUSH2 0x112 JUMPI PUSH2 0x1D2 PUSH2 0x456 CALLDATASIZE PUSH1 0x4 PUSH2 0x1A6 JUMP JUMPDEST PUSH2 0xB96 JUMP JUMPDEST PUSH2 0x12C PUSH1 0x0 PUSH1 0x3 PUSH2 0x401 JUMP JUMPDEST CALLVALUE PUSH2 0x112 JUMPI PUSH2 0x477 CALLDATASIZE PUSH1 0x4 PUSH2 0x107 JUMP JUMPDEST PUSH2 0x18C PUSH2 0x433 PUSH2 0x45B JUMP JUMPDEST CALLVALUE PUSH2 0x112 JUMPI PUSH2 0x1D2 PUSH2 0x495 CALLDATASIZE PUSH1 0x4 PUSH2 0x2A6 JUMP JUMPDEST PUSH2 0xBF5 JUMP JUMPDEST CALLVALUE PUSH2 0x112 JUMPI PUSH2 0x18C PUSH2 0x3E4 PUSH2 0x4B0 CALLDATASIZE PUSH1 0x4 PUSH2 0x2A6 JUMP JUMPDEST PUSH2 0xC11 JUMP JUMPDEST SWAP1 PUSH1 0x20 DUP3 DUP3 SUB SLT PUSH2 0x112 JUMPI DUP2 CALLDATALOAD PUSH8 0xFFFFFFFFFFFFFFFF DUP2 GT PUSH2 0x112 JUMPI PUSH2 0x273 SWAP3 ADD PUSH2 0x1ED JUMP JUMPDEST CALLVALUE PUSH2 0x112 JUMPI PUSH2 0x1D2 PUSH2 0x4EE CALLDATASIZE PUSH1 0x4 PUSH2 0x4B5 JUMP JUMPDEST SWAP1 PUSH2 0xC82 JUMP JUMPDEST PUSH2 0x163 SWAP1 PUSH2 0x500 PUSH2 0xC8C JUMP JUMPDEST PUSH2 0x53D JUMP JUMPDEST SWAP1 PUSH1 0x0 NOT SWAP1 JUMPDEST SWAP2 DUP2 NOT AND SWAP2 AND OR SWAP1 JUMP JUMPDEST PUSH2 0x12C PUSH2 0x12C PUSH2 0x12C SWAP3 SWAP1 JUMP JUMPDEST SWAP1 PUSH2 0x532 PUSH2 0x12C PUSH2 0x539 SWAP3 PUSH2 0x515 JUMP JUMPDEST DUP3 SLOAD PUSH2 0x505 JUMP JUMPDEST SWAP1 SSTORE JUMP JUMPDEST PUSH2 0x163 SWAP1 PUSH1 0x3 PUSH2 0x522 JUMP JUMPDEST PUSH2 0x163 SWAP1 PUSH2 0x4F4 JUMP JUMPDEST PUSH2 0x12C SWAP1 DUP2 JUMP JUMPDEST PUSH2 0x12C SWAP1 SLOAD PUSH2 0x551 JUMP JUMPDEST ISZERO PUSH2 0x569 JUMPI JUMP JUMPDEST PUSH4 0x32EAA487 PUSH1 0xE1 SHL PUSH1 0x0 SWAP1 DUP2 MSTORE PUSH1 0x4 SWAP1 REVERT JUMPDEST SUB PUSH1 0x0 REVERT JUMPDEST PUSH2 0x12C SWAP1 PUSH2 0x120 JUMP JUMPDEST PUSH2 0x12C SWAP1 SLOAD PUSH2 0x580 JUMP JUMPDEST PUSH1 0x40 MLOAD RETURNDATASIZE PUSH1 0x0 DUP3 RETURNDATACOPY RETURNDATASIZE SWAP1 REVERT JUMPDEST SWAP4 SWAP3 SWAP2 SWAP1 PUSH2 0x5AC CALLER PUSH2 0xC11 JUMP JUMPDEST DUP1 ISZERO PUSH2 0x614 JUMPI JUMPDEST PUSH2 0x5BC SWAP1 PUSH2 0x562 JUMP JUMPDEST PUSH2 0x5CC PUSH2 0x5C8 CALLER PUSH2 0xC11 JUMP JUMPDEST ISZERO SWAP1 JUMP JUMPDEST PUSH2 0x5DA JUMPI JUMPDEST PUSH2 0x163 SWAP5 PUSH2 0x736 JUMP JUMPDEST PUSH1 0x0 DUP1 DUP1 DUP1 PUSH2 0x5F4 PUSH2 0x5EF PUSH2 0x5EF PUSH1 0x1 PUSH2 0x589 JUMP JUMPDEST PUSH2 0x379 JUMP JUMPDEST DUP2 SWAP1 CALLVALUE ISZERO PUSH2 0x60A JUMPI JUMPDEST CALLVALUE SWAP2 CALL PUSH2 0x5D1 JUMPI JUMPDEST PUSH2 0x593 JUMP JUMPDEST PUSH2 0x8FC SWAP2 POP PUSH2 0x5FD JUMP JUMPDEST POP PUSH2 0x5BC PUSH2 0x625 PUSH2 0x12C PUSH1 0x2 PUSH2 0x558 JUMP JUMPDEST CALLVALUE LT ISZERO SWAP1 POP PUSH2 0x5B3 JUMP JUMPDEST ISZERO PUSH2 0x636 JUMPI JUMP JUMPDEST PUSH4 0xB4FA3FB3 PUSH1 0xE0 SHL PUSH1 0x0 SWAP1 DUP2 MSTORE PUSH1 0x4 SWAP1 REVERT JUMPDEST PUSH4 0x4E487B71 PUSH1 0xE0 SHL PUSH1 0x0 MSTORE PUSH1 0x32 PUSH1 0x4 MSTORE PUSH1 0x24 PUSH1 0x0 REVERT JUMPDEST SWAP2 SWAP1 DUP2 LT ISZERO PUSH2 0x66E JUMPI PUSH1 0x20 MUL ADD SWAP1 JUMP JUMPDEST PUSH2 0x648 JUMP JUMPDEST CALLDATALOAD PUSH2 0x12C DUP2 PUSH2 0x1D7 JUMP JUMPDEST CALLDATALOAD PUSH2 0x12C DUP2 PUSH2 0x190 JUMP JUMPDEST PUSH4 0x4E487B71 PUSH1 0xE0 SHL PUSH1 0x0 MSTORE PUSH1 0x41 PUSH1 0x4 MSTORE PUSH1 0x24 PUSH1 0x0 REVERT JUMPDEST SWAP1 PUSH1 0x1F ADD PUSH1 0x1F NOT AND DUP2 ADD SWAP1 DUP2 LT PUSH8 0xFFFFFFFFFFFFFFFF DUP3 GT OR PUSH2 0x6BF JUMPI PUSH1 0x40 MSTORE JUMP JUMPDEST PUSH2 0x687 JUMP JUMPDEST DUP1 ISZERO ISZERO PUSH2 0x192 JUMP JUMPDEST SWAP1 POP MLOAD SWAP1 PUSH2 0x163 DUP3 PUSH2 0x6C4 JUMP JUMPDEST SWAP1 PUSH1 0x20 DUP3 DUP3 SUB SLT PUSH2 0x112 JUMPI PUSH2 0x12C SWAP2 PUSH2 0x6CC JUMP JUMPDEST PUSH1 0x40 SWAP1 PUSH2 0x717 PUSH2 0x163 SWAP5 SWAP7 SWAP6 SWAP4 SWAP7 PUSH2 0x70D PUSH1 0x60 DUP5 ADD SWAP9 PUSH1 0x0 DUP6 ADD SWAP1 PUSH2 0x146 JUMP JUMPDEST PUSH1 0x20 DUP4 ADD SWAP1 PUSH2 0x146 JUMP JUMPDEST ADD MSTORE JUMP JUMPDEST SWAP2 PUSH1 0x20 PUSH2 0x163 SWAP3 SWAP5 SWAP4 PUSH2 0x717 PUSH1 0x40 DUP3 ADD SWAP7 PUSH1 0x0 DUP4 ADD SWAP1 PUSH2 0x146 JUMP JUMPDEST SWAP4 SWAP1 SWAP3 SWAP2 DUP1 SWAP6 PUSH2 0x747 DUP4 DUP9 EQ PUSH2 0x62F JUMP JUMPDEST PUSH2 0x750 DUP7 PUSH2 0x379 JUMP JUMPDEST SWAP1 PUSH1 0x0 SWAP8 PUSH2 0x75E PUSH1 0x0 PUSH2 0x515 JUMP JUMPDEST DUP2 DUP2 LT ISZERO PUSH2 0x816 JUMPI DUP1 PUSH1 0x20 DUP12 DUP11 DUP11 PUSH2 0x7A0 PUSH2 0x79B DUP7 DUP14 PUSH2 0x795 PUSH2 0x790 DUP16 SWAP12 DUP16 SWAP13 PUSH2 0x78A PUSH2 0x7CA SWAP15 PUSH2 0x379 JUMP JUMPDEST SWAP10 PUSH2 0x65E JUMP JUMPDEST PUSH2 0x673 JUMP JUMPDEST SWAP5 PUSH2 0x65E JUMP JUMPDEST PUSH2 0x67D JUMP JUMPDEST SWAP3 PUSH2 0x7AA PUSH1 0x40 MLOAD SWAP1 JUMP JUMPDEST DUP1 SWAP8 DUP2 SWAP6 DUP3 SWAP5 PUSH2 0x7BE PUSH4 0x23B872DD PUSH1 0xE0 SHL SWAP1 JUMP JUMPDEST DUP5 MSTORE CALLER PUSH1 0x4 DUP6 ADD PUSH2 0x6ED JUMP JUMPDEST SUB SWAP3 GAS CALL SWAP2 DUP3 ISZERO PUSH2 0x605 JUMPI PUSH2 0x7E5 SWAP3 PUSH2 0x7EA JUMPI JUMPDEST POP PUSH1 0x1 ADD SWAP1 JUMP JUMPDEST PUSH2 0x75E JUMP JUMPDEST PUSH2 0x80A SWAP1 PUSH1 0x20 RETURNDATASIZE DUP2 GT PUSH2 0x80F JUMPI JUMPDEST PUSH2 0x802 DUP2 DUP4 PUSH2 0x69D JUMP JUMPDEST DUP2 ADD SWAP1 PUSH2 0x6D9 JUMP JUMPDEST PUSH2 0x7DE JUMP JUMPDEST POP RETURNDATASIZE PUSH2 0x7F8 JUMP JUMPDEST POP SWAP6 POP SWAP7 POP POP POP POP POP PUSH32 0xE4E3577249108DAAA0A07E6D9AABC5FEF8E89EC09DA3F9DCCFE7EF215E4EFC12 SWAP2 PUSH2 0x856 PUSH2 0x84D PUSH1 0x40 MLOAD SWAP1 JUMP JUMPDEST SWAP3 DUP4 SWAP3 DUP4 PUSH2 0x71B JUMP JUMPDEST SUB SWAP1 LOG1 JUMP JUMPDEST SWAP1 PUSH2 0x163 SWAP5 SWAP4 SWAP3 SWAP2 PUSH2 0x59F JUMP JUMPDEST PUSH2 0x870 PUSH2 0xC8C JUMP JUMPDEST PUSH2 0x163 PUSH2 0x88E JUMP JUMPDEST PUSH2 0x120 PUSH2 0x12C PUSH2 0x12C SWAP3 SWAP1 JUMP JUMPDEST PUSH2 0x12C SWAP1 PUSH2 0x878 JUMP JUMPDEST PUSH2 0x163 PUSH2 0x89B PUSH1 0x0 PUSH2 0x885 JUMP JUMPDEST PUSH2 0xCC9 JUMP JUMPDEST PUSH2 0x163 PUSH2 0x868 JUMP JUMPDEST PUSH2 0x163 SWAP1 PUSH2 0x8B4 PUSH2 0xC8C JUMP JUMPDEST PUSH2 0x8E6 JUMP JUMPDEST ISZERO PUSH2 0x112 JUMPI JUMP JUMPDEST SWAP1 PUSH1 0x1 PUSH1 0x1 PUSH1 0xA0 SHL SUB SWAP1 PUSH2 0x50B JUMP JUMPDEST SWAP1 PUSH2 0x8DF PUSH2 0x12C PUSH2 0x539 SWAP3 PUSH2 0x379 JUMP JUMPDEST DUP3 SLOAD PUSH2 0x8C0 JUMP JUMPDEST PUSH2 0x163 SWAP1 PUSH2 0x90F PUSH2 0x8FF PUSH2 0x8FA PUSH1 0x0 PUSH2 0x885 JUMP JUMPDEST PUSH2 0x120 JUMP JUMPDEST PUSH2 0x908 DUP4 PUSH2 0x120 JUMP JUMPDEST EQ ISZERO PUSH2 0x8B9 JUMP JUMPDEST PUSH1 0x1 PUSH2 0x8CF JUMP JUMPDEST PUSH2 0x163 SWAP1 PUSH2 0x8A8 JUMP JUMPDEST SWAP3 SWAP2 SWAP1 PUSH2 0x92B CALLER PUSH2 0xC11 JUMP JUMPDEST DUP1 ISZERO PUSH2 0x989 JUMPI JUMPDEST PUSH2 0x93B SWAP1 PUSH2 0x562 JUMP JUMPDEST PUSH2 0x947 PUSH2 0x5C8 CALLER PUSH2 0xC11 JUMP JUMPDEST PUSH2 0x955 JUMPI JUMPDEST PUSH2 0x163 SWAP4 PUSH2 0x9A4 JUMP JUMPDEST PUSH1 0x0 DUP1 DUP1 DUP1 PUSH2 0x96A PUSH2 0x5EF PUSH2 0x5EF PUSH1 0x1 PUSH2 0x589 JUMP JUMPDEST DUP2 SWAP1 CALLVALUE ISZERO PUSH2 0x97F JUMPI JUMPDEST CALLVALUE SWAP2 CALL PUSH2 0x94C JUMPI PUSH2 0x593 JUMP JUMPDEST PUSH2 0x8FC SWAP2 POP PUSH2 0x973 JUMP JUMPDEST POP PUSH2 0x93B PUSH2 0x99A PUSH2 0x12C PUSH1 0x2 PUSH2 0x558 JUMP JUMPDEST CALLVALUE LT ISZERO SWAP1 POP PUSH2 0x932 JUMP JUMPDEST SWAP3 SWAP2 PUSH2 0x9AF DUP5 PUSH2 0x379 JUMP JUMPDEST PUSH1 0x0 SWAP6 PUSH2 0x9BC PUSH1 0x0 PUSH2 0x515 JUMP JUMPDEST DUP4 DUP2 LT ISZERO PUSH2 0xA0B JUMPI PUSH2 0x9EC SWAP1 PUSH1 0x20 DUP8 PUSH2 0x9D4 DUP7 PUSH2 0x379 JUMP JUMPDEST PUSH2 0x9E2 PUSH2 0x790 DUP6 DUP11 DUP13 PUSH2 0x65E JUMP JUMPDEST DUP13 PUSH2 0x7AA PUSH1 0x40 MLOAD SWAP1 JUMP JUMPDEST SUB SWAP3 GAS CALL SWAP2 DUP3 ISZERO PUSH2 0x605 JUMPI PUSH2 0xA06 SWAP3 PUSH2 0x7EA JUMPI POP PUSH1 0x1 ADD SWAP1 JUMP JUMPDEST PUSH2 0x9BC JUMP JUMPDEST POP SWAP6 POP POP PUSH32 0xE4E3577249108DAAA0A07E6D9AABC5FEF8E89EC09DA3F9DCCFE7EF215E4EFC12 SWAP4 SWAP3 POP PUSH2 0xA3B SWAP2 POP SWAP1 JUMP JUMPDEST SWAP1 PUSH2 0x856 PUSH2 0x84D PUSH1 0x40 MLOAD SWAP1 JUMP JUMPDEST SWAP1 PUSH2 0x163 SWAP4 SWAP3 SWAP2 PUSH2 0x91F JUMP JUMPDEST PUSH2 0x12C PUSH1 0x0 PUSH2 0x589 JUMP JUMPDEST SWAP1 DUP2 MSTORE PUSH1 0x40 DUP2 ADD SWAP3 SWAP2 PUSH2 0x163 SWAP2 PUSH1 0x20 ADD MSTORE JUMP JUMPDEST ISZERO PUSH2 0xA7A JUMPI POP POP JUMP JUMPDEST PUSH3 0xFAE2D5 PUSH1 0xE2 SHL PUSH1 0x0 SWAP1 DUP2 MSTORE SWAP2 PUSH2 0x57B SWAP2 PUSH1 0x4 PUSH2 0xA5E JUMP JUMPDEST ISZERO PUSH2 0xA99 JUMPI JUMP JUMPDEST PUSH4 0x24B964D PUSH1 0xE0 SHL PUSH1 0x0 SWAP1 DUP2 MSTORE PUSH1 0x4 SWAP1 REVERT JUMPDEST SWAP1 PUSH1 0xFF SWAP1 PUSH2 0x50B JUMP JUMPDEST SWAP1 PUSH2 0xAC4 PUSH2 0x12C PUSH2 0x539 SWAP3 ISZERO ISZERO SWAP1 JUMP JUMPDEST DUP3 SLOAD PUSH2 0xAAB JUMP JUMPDEST PUSH2 0xAF0 PUSH2 0xADB PUSH2 0x12C PUSH1 0x3 PUSH2 0x558 JUMP JUMPDEST CALLVALUE LT ISZERO PUSH2 0xAE8 PUSH1 0x3 PUSH2 0x558 JUMP JUMPDEST SWAP1 CALLVALUE SWAP1 PUSH2 0xA71 JUMP JUMPDEST PUSH2 0xB04 PUSH2 0xAFF PUSH2 0x5C8 CALLER PUSH2 0xC11 JUMP JUMPDEST PUSH2 0xA92 JUMP JUMPDEST PUSH1 0x0 DUP1 DUP1 DUP1 PUSH2 0xB19 PUSH2 0x5EF PUSH2 0x5EF PUSH1 0x1 PUSH2 0x589 JUMP JUMPDEST DUP2 SWAP1 CALLVALUE ISZERO PUSH2 0xB75 JUMPI JUMPDEST CALLVALUE SWAP2 CALL ISZERO PUSH2 0x605 JUMPI PUSH2 0xB3F PUSH1 0x1 PUSH2 0xB3A CALLER PUSH1 0x4 PUSH2 0x382 JUMP JUMPDEST PUSH2 0xAB4 JUMP JUMPDEST PUSH32 0x6252330B8AC495908D7082DBCF6CD547AFFFF5896884E8CB9C40D1B216F9F8E8 PUSH2 0xB69 PUSH1 0x40 MLOAD SWAP1 JUMP JUMPDEST DUP1 PUSH2 0x856 CALLVALUE CALLER DUP4 PUSH2 0x71B JUMP JUMPDEST PUSH2 0x8FC SWAP2 POP PUSH2 0xB22 JUMP JUMPDEST PUSH2 0x163 SWAP1 PUSH2 0xB8B PUSH2 0xC8C JUMP JUMPDEST PUSH2 0x163 SWAP1 PUSH1 0x2 PUSH2 0x522 JUMP JUMPDEST PUSH2 0x163 SWAP1 PUSH2 0xB7F JUMP JUMPDEST PUSH2 0x163 SWAP1 PUSH2 0xBAB PUSH2 0xC8C JUMP JUMPDEST PUSH1 0x0 PUSH2 0xBB6 DUP2 PUSH2 0x885 JUMP JUMPDEST PUSH2 0xBBF DUP2 PUSH2 0x120 JUMP JUMPDEST PUSH2 0xBC8 DUP5 PUSH2 0x120 JUMP JUMPDEST EQ PUSH2 0xBD8 JUMPI POP POP PUSH2 0x163 SWAP1 PUSH2 0xCC9 JUMP JUMPDEST PUSH4 0x1E4FBDF7 PUSH1 0xE0 SHL DUP3 MSTORE DUP2 SWAP1 PUSH2 0xBF1 SWAP1 PUSH1 0x4 DUP4 ADD PUSH2 0x153 JUMP JUMPDEST SUB SWAP1 REVERT JUMPDEST PUSH2 0x163 SWAP1 PUSH2 0xB9F JUMP JUMPDEST PUSH2 0x12C SWAP1 PUSH2 0x3A3 JUMP JUMPDEST PUSH2 0x12C SWAP1 SLOAD PUSH2 0xBFE JUMP JUMPDEST PUSH2 0xC28 PUSH2 0x12C SWAP2 PUSH2 0xC20 PUSH1 0x0 SWAP1 JUMP JUMPDEST POP PUSH1 0x4 PUSH2 0x382 JUMP JUMPDEST PUSH2 0xC07 JUMP JUMPDEST SWAP1 PUSH2 0x163 SWAP2 PUSH2 0xC3A PUSH2 0xC8C JUMP JUMPDEST PUSH1 0x0 SWAP3 SWAP2 PUSH2 0xC47 DUP5 PUSH2 0x515 JUMP JUMPDEST DUP2 DUP2 LT ISZERO PUSH2 0xC7B JUMPI PUSH2 0xC76 SWAP1 PUSH2 0xC70 DUP7 PUSH2 0xB3A PUSH1 0x4 PUSH2 0xC6A PUSH2 0x790 DUP7 DUP10 DUP12 PUSH2 0x65E JUMP JUMPDEST SWAP1 PUSH2 0x382 JUMP JUMPDEST PUSH1 0x1 ADD SWAP1 JUMP JUMPDEST PUSH2 0xC47 JUMP JUMPDEST POP POP POP SWAP1 POP JUMP JUMPDEST SWAP1 PUSH2 0x163 SWAP2 PUSH2 0xC2D JUMP JUMPDEST PUSH2 0xC94 PUSH2 0xA54 JUMP JUMPDEST CALLER SWAP1 PUSH2 0xCA8 PUSH2 0xCA2 DUP4 PUSH2 0x120 JUMP JUMPDEST SWAP2 PUSH2 0x120 JUMP JUMPDEST SUB PUSH2 0xCB0 JUMPI POP JUMP JUMPDEST PUSH4 0x118CDAA7 PUSH1 0xE0 SHL PUSH1 0x0 SWAP1 DUP2 MSTORE SWAP1 PUSH2 0x57B SWAP1 PUSH1 0x4 PUSH2 0x153 JUMP JUMPDEST PUSH2 0xCEA PUSH2 0xCE4 PUSH2 0xCD9 PUSH1 0x0 PUSH2 0x589 JUMP JUMPDEST PUSH2 0x5EF DUP5 PUSH1 0x0 PUSH2 0x8CF JUMP JUMPDEST SWAP2 PUSH2 0x379 JUMP JUMPDEST SWAP1 PUSH32 0x8BE0079C531659141344CD1FD0A4F28419497F9722A3DAAFE3B4186F6B6457E0 PUSH2 0xD15 PUSH1 0x40 MLOAD SWAP1 JUMP JUMPDEST PUSH1 0x0 SWAP1 LOG3 JUMP INVALID LOG2 PUSH5 0x6970667358 0x22 SLT KECCAK256 COINBASE 0xBE PUSH8 0x21677B59EFE3BA05 0x4D 0xCF 0x2E 0xC9 0x24 0xF9 0xE9 0x4F SUB 0xBD TSTORE 0xD1 SWAP10 0xC XOR SGT SWAP9 0xBE 0xDA EXTCODESIZE BLOBBASEFEE PUSH5 0x736F6C6343 STOP ADDMOD BYTE STOP CALLER "
        },
        "methodIdentifiers": {
          "VIPFee()": "f0a0a299",
          "bulkTransferERC20(address,address[],uint256)": "8ce632e8",
          "bulkTransferERC20(address,address[],uint256[])": "3e46cd53",
          "isVIP(address)": "f4201c3c",
          "owner()": "8da5cb5b",
          "receiverAddress()": "16fed3e2",
          "registerVIP()": "9c1f6133",
          "removeFromVIPList(address[])": "f48d11af",
          "renounceOwnership()": "715018a6",
          "setReceiverAddress(address)": "8279c7db",
          "setTxFee(uint256)": "f05d16f7",
          "setVIPFee(uint256)": "3d06242a",
          "transferOwnership(address)": "f2fde38b",
          "txFee()": "cf820461",
          "vipList(address)": "aa168b47"
        }
      }
    }
  }
}